{
  "_format": "hh-sol-artifact-1",
  "contractName": "VotingOfficeUser",
  "sourceName": "contracts/VotingOfficeUser.sol",
  "abi": [
    {
      "inputs": [],
      "name": "VotingOfficeAlreadyExist",
      "type": "error"
    },
    {
      "anonymous": false,
      "inputs": [
        {
          "indexed": true,
          "internalType": "uint256",
          "name": "votingOfficeId",
          "type": "uint256"
        },
        {
          "indexed": false,
          "internalType": "string",
          "name": "shortName",
          "type": "string"
        },
        {
          "indexed": true,
          "internalType": "address",
          "name": "user",
          "type": "address"
        }
      ],
      "name": "NewVotingOffice",
      "type": "event"
    },
    {
      "inputs": [],
      "name": "getVotingOffices",
      "outputs": [
        {
          "components": [
            {
              "internalType": "uint256",
              "name": "id",
              "type": "uint256"
            },
            {
              "internalType": "string",
              "name": "designation",
              "type": "string"
            },
            {
              "internalType": "address",
              "name": "user",
              "type": "address"
            }
          ],
          "internalType": "struct VotingOfficeUser.VotingOffice[]",
          "name": "",
          "type": "tuple[]"
        }
      ],
      "stateMutability": "view",
      "type": "function"
    },
    {
      "inputs": [
        {
          "internalType": "string",
          "name": "_designation",
          "type": "string"
        }
      ],
      "name": "setVotingOffice",
      "outputs": [],
      "stateMutability": "nonpayable",
      "type": "function"
    },
    {
      "inputs": [
        {
          "internalType": "uint256",
          "name": "",
          "type": "uint256"
        }
      ],
      "name": "votingOfficeInfo",
      "outputs": [
        {
          "internalType": "uint256",
          "name": "id",
          "type": "uint256"
        },
        {
          "internalType": "string",
          "name": "designation",
          "type": "string"
        },
        {
          "internalType": "address",
          "name": "user",
          "type": "address"
        }
      ],
      "stateMutability": "view",
      "type": "function"
    }
  ],
  "bytecode": "0x608060405234801561001057600080fd5b50610e60806100206000396000f3fe608060405234801561001057600080fd5b50600436106100415760003560e01c8063ce121abb14610046578063dd10fb8514610078578063f188114514610096575b600080fd5b610060600480360381019061005b9190610838565b6100b2565b60405161006f93929190610b76565b60405180910390f35b610080610184565b60405161008d9190610b10565b60405180910390f35b6100b060048036038101906100ab91906107eb565b6102d5565b005b60006020528060005260406000206000915090508060000154908060010180546100db90610cb8565b80601f016020809104026020016040519081016040528092919081815260200182805461010790610cb8565b80156101545780601f1061012957610100808354040283529160200191610154565b820191906000526020600020905b81548152906001019060200180831161013757829003601f168201915b5050505050908060020160009054906101000a900473ffffffffffffffffffffffffffffffffffffffff16905083565b60606002805480602002602001604051908101604052809291908181526020016000905b828210156102cc5783829060005260206000209060030201604051806060016040529081600082015481526020016001820180546101e590610cb8565b80601f016020809104026020016040519081016040528092919081815260200182805461021190610cb8565b801561025e5780601f106102335761010080835404028352916020019161025e565b820191906000526020600020905b81548152906001019060200180831161024157829003601f168201915b505050505081526020016002820160009054906101000a900473ffffffffffffffffffffffffffffffffffffffff1673ffffffffffffffffffffffffffffffffffffffff1673ffffffffffffffffffffffffffffffffffffffff1681525050815260200190600101906101a8565b50505050905090565b81816000600280549050905060005b818110156103ab5783836040516020016102ff929190610ae0565b604051602081830303815290604052805190602001206002828154811061032957610328610d91565b5b906000526020600020906003020160010160405160200161034a9190610af9565b604051602081830303815290604052805190602001201415610398576040517f729322de00000000000000000000000000000000000000000000000000000000815260040160405180910390fd5b80806103a390610cea565b9150506102e4565b5060008585905014156103f3576040517f08c379a00000000000000000000000000000000000000000000000000000000081526004016103ea90610b56565b60405180910390fd5b6103fd600161062c565b60006104096001610642565b9050604051806060016040528082815260200187878080601f016020809104026020016040519081016040528093929190818152602001838380828437600081840152601f19601f8201169050808301925050505050505081526020013373ffffffffffffffffffffffffffffffffffffffff168152506000808381526020019081526020016000206000820151816000015560208201518160010190805190602001906104b8929190610650565b5060408201518160020160006101000a81548173ffffffffffffffffffffffffffffffffffffffff021916908373ffffffffffffffffffffffffffffffffffffffff1602179055509050506002600080838152602001908152602001600020908060018154018082558091505060019003906000526020600020906003020160009091909190915060008201548160000155600182018160010190805461055e90610cb8565b6105699291906106d6565b506002820160009054906101000a900473ffffffffffffffffffffffffffffffffffffffff168160020160006101000a81548173ffffffffffffffffffffffffffffffffffffffff021916908373ffffffffffffffffffffffffffffffffffffffff16021790555050503373ffffffffffffffffffffffffffffffffffffffff16817fa27b062249622364fc8224e69e53571e482ada9be96d92200e83749a47813edb888860405161061c929190610b32565b60405180910390a3505050505050565b6001816000016000828254019250508190555050565b600081600001549050919050565b82805461065c90610cb8565b90600052602060002090601f01602090048101928261067e57600085556106c5565b82601f1061069757805160ff19168380011785556106c5565b828001600101855582156106c5579182015b828111156106c45782518255916020019190600101906106a9565b5b5090506106d29190610763565b5090565b8280546106e290610cb8565b90600052602060002090601f0160209004810192826107045760008555610752565b82601f106107155780548555610752565b8280016001018555821561075257600052602060002091601f016020900482015b82811115610751578254825591600101919060010190610736565b5b50905061075f9190610763565b5090565b5b8082111561077c576000816000905550600101610764565b5090565b60008083601f84011261079657610795610dc5565b5b8235905067ffffffffffffffff8111156107b3576107b2610dc0565b5b6020830191508360018202830111156107cf576107ce610dca565b5b9250929050565b6000813590506107e581610e13565b92915050565b6000806020838503121561080257610801610dd4565b5b600083013567ffffffffffffffff8111156108205761081f610dcf565b5b61082c85828601610780565b92509250509250929050565b60006020828403121561084e5761084d610dd4565b5b600061085c848285016107d6565b91505092915050565b60006108718383610a72565b905092915050565b61088281610c3a565b82525050565b61089181610c3a565b82525050565b60006108a282610bd9565b6108ac8185610bfc565b9350836020820285016108be85610bb4565b8060005b858110156108fa57848403895281516108db8582610865565b94506108e683610bef565b925060208a019950506001810190506108c2565b50829750879550505050505092915050565b60006109188385610c1e565b9350610925838584610c76565b61092e83610dd9565b840190509392505050565b60006109458385610c2f565b9350610952838584610c76565b82840190509392505050565b600061096982610be4565b6109738185610c0d565b9350610983818560208601610c85565b61098c81610dd9565b840191505092915050565b60006109a282610be4565b6109ac8185610c1e565b93506109bc818560208601610c85565b6109c581610dd9565b840191505092915050565b600081546109dd81610cb8565b6109e78186610c2f565b94506001821660008114610a025760018114610a1357610a46565b60ff19831686528186019350610a46565b610a1c85610bc4565b60005b83811015610a3e57815481890152600182019150602081019050610a1f565b838801955050505b50505092915050565b6000610a5c600d83610c1e565b9150610a6782610dea565b602082019050919050565b6000606083016000830151610a8a6000860182610ac2565b5060208301518482036020860152610aa2828261095e565b9150506040830151610ab76040860182610879565b508091505092915050565b610acb81610c6c565b82525050565b610ada81610c6c565b82525050565b6000610aed828486610939565b91508190509392505050565b6000610b0582846109d0565b915081905092915050565b60006020820190508181036000830152610b2a8184610897565b905092915050565b60006020820190508181036000830152610b4d81848661090c565b90509392505050565b60006020820190508181036000830152610b6f81610a4f565b9050919050565b6000606082019050610b8b6000830186610ad1565b8181036020830152610b9d8185610997565b9050610bac6040830184610888565b949350505050565b6000819050602082019050919050565b60008190508160005260206000209050919050565b600081519050919050565b600081519050919050565b6000602082019050919050565b600082825260208201905092915050565b600082825260208201905092915050565b600082825260208201905092915050565b600081905092915050565b6000610c4582610c4c565b9050919050565b600073ffffffffffffffffffffffffffffffffffffffff82169050919050565b6000819050919050565b82818337600083830152505050565b60005b83811015610ca3578082015181840152602081019050610c88565b83811115610cb2576000848401525b50505050565b60006002820490506001821680610cd057607f821691505b60208210811415610ce457610ce3610d62565b5b50919050565b6000610cf582610c6c565b91507fffffffffffffffffffffffffffffffffffffffffffffffffffffffffffffffff821415610d2857610d27610d33565b5b600182019050919050565b7f4e487b7100000000000000000000000000000000000000000000000000000000600052601160045260246000fd5b7f4e487b7100000000000000000000000000000000000000000000000000000000600052602260045260246000fd5b7f4e487b7100000000000000000000000000000000000000000000000000000000600052603260045260246000fd5b600080fd5b600080fd5b600080fd5b600080fd5b600080fd5b6000601f19601f8301169050919050565b7f496e76616c6964206e616d652e00000000000000000000000000000000000000600082015250565b610e1c81610c6c565b8114610e2757600080fd5b5056fea264697066735822122014a1d455bf39016e1aa972a9ce189310e44d6fd7f2e20f1be42751d2c60fad9364736f6c63430008060033",
  "linkReferences": {},
  "deployedLinkReferences": {}
}