{
  "_format": "hh-sol-artifact-1",
  "contractName": "WitnessUser",
  "sourceName": "contracts/WitnessUser.sol",
  "abi": [
    {
      "inputs": [],
      "name": "WitnessNotFound",
      "type": "error"
    },
    {
      "anonymous": false,
      "inputs": [
        {
          "indexed": true,
          "internalType": "uint256",
          "name": "witnessId",
          "type": "uint256"
        },
        {
          "indexed": true,
          "internalType": "string",
          "name": "fullname",
          "type": "string"
        },
        {
          "indexed": false,
          "internalType": "string",
          "name": "organization",
          "type": "string"
        },
        {
          "indexed": true,
          "internalType": "address",
          "name": "user",
          "type": "address"
        }
      ],
      "name": "NewWitness",
      "type": "event"
    },
    {
      "anonymous": false,
      "inputs": [
        {
          "indexed": true,
          "internalType": "address",
          "name": "previousOwner",
          "type": "address"
        },
        {
          "indexed": true,
          "internalType": "address",
          "name": "newOwner",
          "type": "address"
        }
      ],
      "name": "OwnershipTransferred",
      "type": "event"
    },
    {
      "anonymous": false,
      "inputs": [
        {
          "indexed": true,
          "internalType": "uint256",
          "name": "witnessId",
          "type": "uint256"
        },
        {
          "indexed": true,
          "internalType": "string",
          "name": "fullname",
          "type": "string"
        },
        {
          "indexed": true,
          "internalType": "string",
          "name": "organization",
          "type": "string"
        },
        {
          "indexed": false,
          "internalType": "address",
          "name": "user",
          "type": "address"
        }
      ],
      "name": "UpdateWitness",
      "type": "event"
    },
    {
      "inputs": [],
      "name": "getWitnesses",
      "outputs": [
        {
          "components": [
            {
              "internalType": "uint256",
              "name": "id",
              "type": "uint256"
            },
            {
              "internalType": "string",
              "name": "fullname",
              "type": "string"
            },
            {
              "internalType": "string",
              "name": "organization",
              "type": "string"
            },
            {
              "internalType": "address",
              "name": "user",
              "type": "address"
            }
          ],
          "internalType": "struct WitnessUser.Witness[]",
          "name": "",
          "type": "tuple[]"
        }
      ],
      "stateMutability": "view",
      "type": "function"
    },
    {
      "inputs": [],
      "name": "owner",
      "outputs": [
        {
          "internalType": "address",
          "name": "",
          "type": "address"
        }
      ],
      "stateMutability": "view",
      "type": "function"
    },
    {
      "inputs": [],
      "name": "renounceOwnership",
      "outputs": [],
      "stateMutability": "nonpayable",
      "type": "function"
    },
    {
      "inputs": [
        {
          "internalType": "string",
          "name": "_organization",
          "type": "string"
        },
        {
          "internalType": "string",
          "name": "_fullname",
          "type": "string"
        }
      ],
      "name": "setWitness",
      "outputs": [],
      "stateMutability": "nonpayable",
      "type": "function"
    },
    {
      "inputs": [
        {
          "internalType": "address",
          "name": "newOwner",
          "type": "address"
        }
      ],
      "name": "transferOwnership",
      "outputs": [],
      "stateMutability": "nonpayable",
      "type": "function"
    },
    {
      "inputs": [
        {
          "internalType": "uint256",
          "name": "_witnessId",
          "type": "uint256"
        },
        {
          "internalType": "string",
          "name": "_organization",
          "type": "string"
        },
        {
          "internalType": "string",
          "name": "_fullname",
          "type": "string"
        }
      ],
      "name": "updateWitness",
      "outputs": [],
      "stateMutability": "nonpayable",
      "type": "function"
    },
    {
      "inputs": [
        {
          "internalType": "uint256",
          "name": "",
          "type": "uint256"
        }
      ],
      "name": "witnessInfo",
      "outputs": [
        {
          "internalType": "uint256",
          "name": "id",
          "type": "uint256"
        },
        {
          "internalType": "string",
          "name": "fullname",
          "type": "string"
        },
        {
          "internalType": "string",
          "name": "organization",
          "type": "string"
        },
        {
          "internalType": "address",
          "name": "user",
          "type": "address"
        }
      ],
      "stateMutability": "view",
      "type": "function"
    }
  ],
  "bytecode": "0x608060405234801561001057600080fd5b5061002d61002261003260201b60201c565b61003a60201b60201c565b6100fe565b600033905090565b60008060009054906101000a900473ffffffffffffffffffffffffffffffffffffffff169050816000806101000a81548173ffffffffffffffffffffffffffffffffffffffff021916908373ffffffffffffffffffffffffffffffffffffffff1602179055508173ffffffffffffffffffffffffffffffffffffffff168173ffffffffffffffffffffffffffffffffffffffff167f8be0079c531659141344cd1fd0a4f28419497f9722a3daafe3b4186f6b6457e060405160405180910390a35050565b6117448061010d6000396000f3fe608060405234801561001057600080fd5b506004361061007d5760003560e01c806396d195bd1161005b57806396d195bd146100c6578063bc37803b146100e4578063d7cf779214610100578063f2fde38b146101335761007d565b806350bb1d9d14610082578063715018a61461009e5780638da5cb5b146100a8575b600080fd5b61009c60048036038101906100979190610f41565b61014f565b005b6100a661047f565b005b6100b0610493565b6040516100bd91906112f9565b60405180910390f35b6100ce6104bc565b6040516100db9190611314565b60405180910390f35b6100fe60048036038101906100f99190610fef565b61069f565b005b61011a60048036038101906101159190610fc2565b610a12565b60405161012a94939291906113ba565b60405180910390f35b61014d60048036038101906101489190610f14565b610b72565b005b60008282905014158015610167575060008484905014155b6101a6576040517f08c379a000000000000000000000000000000000000000000000000000000000815260040161019d9061139a565b60405180910390fd5b6101b06002610bf6565b60006101bc6002610c0c565b9050604051806080016040528082815260200184848080601f016020809104026020016040519081016040528093929190818152602001838380828437600081840152601f19601f82011690508083019250505050505050815260200186868080601f016020809104026020016040519081016040528093929190818152602001838380828437600081840152601f19601f8201169050808301925050505050505081526020013373ffffffffffffffffffffffffffffffffffffffff16815250600160008381526020019081526020016000206000820151816000015560208201518160010190805190602001906102b6929190610d64565b5060408201518160020190805190602001906102d3929190610d64565b5060608201518160030160006101000a81548173ffffffffffffffffffffffffffffffffffffffff021916908373ffffffffffffffffffffffffffffffffffffffff160217905550905050600360016000838152602001908152602001600020908060018154018082558091505060019003906000526020600020906004020160009091909190915060008201548160000155600182018160010190805461037a90611530565b610385929190610dea565b50600282018160020190805461039a90611530565b6103a5929190610dea565b506003820160009054906101000a900473ffffffffffffffffffffffffffffffffffffffff168160030160006101000a81548173ffffffffffffffffffffffffffffffffffffffff021916908373ffffffffffffffffffffffffffffffffffffffff16021790555050503373ffffffffffffffffffffffffffffffffffffffff1683836040516104369291906112e0565b6040518091039020827fb63934cd7f7ecf144d2c6ce519057c31fa8a4644ad3998b6b784df45fe3bdb2e8888604051610470929190611336565b60405180910390a45050505050565b610487610c1a565b6104916000610c98565b565b60008060009054906101000a900473ffffffffffffffffffffffffffffffffffffffff16905090565b60606003805480602002602001604051908101604052809291908181526020016000905b8282101561069657838290600052602060002090600402016040518060800160405290816000820154815260200160018201805461051d90611530565b80601f016020809104026020016040519081016040528092919081815260200182805461054990611530565b80156105965780601f1061056b57610100808354040283529160200191610596565b820191906000526020600020905b81548152906001019060200180831161057957829003601f168201915b505050505081526020016002820180546105af90611530565b80601f01602080910402602001604051908101604052809291908181526020018280546105db90611530565b80156106285780601f106105fd57610100808354040283529160200191610628565b820191906000526020600020905b81548152906001019060200180831161060b57829003601f168201915b505050505081526020016003820160009054906101000a900473ffffffffffffffffffffffffffffffffffffffff1673ffffffffffffffffffffffffffffffffffffffff1673ffffffffffffffffffffffffffffffffffffffff1681525050815260200190600101906104e0565b50505050905090565b6106a7610c1a565b84806001600083815260200190815260200160002060000154146106f7576040517f80240bec00000000000000000000000000000000000000000000000000000000815260040160405180910390fd5b60008383905014158061070e575060008585905014155b61074d576040517f08c379a00000000000000000000000000000000000000000000000000000000081526004016107449061139a565b60405180910390fd5b604051806080016040528087815260200184848080601f016020809104026020016040519081016040528093929190818152602001838380828437600081840152601f19601f82011690508083019250505050505050815260200186868080601f016020809104026020016040519081016040528093929190818152602001838380828437600081840152601f19601f8201169050808301925050505050505081526020013373ffffffffffffffffffffffffffffffffffffffff1681525060016000888152602001908152602001600020600082015181600001556020820151816001019080519060200190610845929190610d64565b506040820151816002019080519060200190610862929190610d64565b5060608201518160030160006101000a81548173ffffffffffffffffffffffffffffffffffffffff021916908373ffffffffffffffffffffffffffffffffffffffff1602179055509050506001600087815260200190815260200160002060036001886108cf919061147e565b815481106108e0576108df6115c0565b5b906000526020600020906004020160008201548160000155600182018160010190805461090c90611530565b610917929190610dea565b50600282018160020190805461092c90611530565b610937929190610dea565b506003820160009054906101000a900473ffffffffffffffffffffffffffffffffffffffff168160030160006101000a81548173ffffffffffffffffffffffffffffffffffffffff021916908373ffffffffffffffffffffffffffffffffffffffff16021790555090505084846040516109b29291906112e0565b604051809103902083836040516109ca9291906112e0565b6040518091039020877f20d4f8a794f9b32b7a9830a57ea6882f245c751df749840015b0dc7c8a98838233604051610a0291906112f9565b60405180910390a4505050505050565b6001602052806000526040600020600091509050806000015490806001018054610a3b90611530565b80601f0160208091040260200160405190810160405280929190818152602001828054610a6790611530565b8015610ab45780601f10610a8957610100808354040283529160200191610ab4565b820191906000526020600020905b815481529060010190602001808311610a9757829003601f168201915b505050505090806002018054610ac990611530565b80601f0160208091040260200160405190810160405280929190818152602001828054610af590611530565b8015610b425780601f10610b1757610100808354040283529160200191610b42565b820191906000526020600020905b815481529060010190602001808311610b2557829003601f168201915b5050505050908060030160009054906101000a900473ffffffffffffffffffffffffffffffffffffffff16905084565b610b7a610c1a565b600073ffffffffffffffffffffffffffffffffffffffff168173ffffffffffffffffffffffffffffffffffffffff161415610bea576040517f08c379a0000000000000000000000000000000000000000000000000000000008152600401610be19061135a565b60405180910390fd5b610bf381610c98565b50565b6001816000016000828254019250508190555050565b600081600001549050919050565b610c22610d5c565b73ffffffffffffffffffffffffffffffffffffffff16610c40610493565b73ffffffffffffffffffffffffffffffffffffffff1614610c96576040517f08c379a0000000000000000000000000000000000000000000000000000000008152600401610c8d9061137a565b60405180910390fd5b565b60008060009054906101000a900473ffffffffffffffffffffffffffffffffffffffff169050816000806101000a81548173ffffffffffffffffffffffffffffffffffffffff021916908373ffffffffffffffffffffffffffffffffffffffff1602179055508173ffffffffffffffffffffffffffffffffffffffff168173ffffffffffffffffffffffffffffffffffffffff167f8be0079c531659141344cd1fd0a4f28419497f9722a3daafe3b4186f6b6457e060405160405180910390a35050565b600033905090565b828054610d7090611530565b90600052602060002090601f016020900481019282610d925760008555610dd9565b82601f10610dab57805160ff1916838001178555610dd9565b82800160010185558215610dd9579182015b82811115610dd8578251825591602001919060010190610dbd565b5b509050610de69190610e77565b5090565b828054610df690611530565b90600052602060002090601f016020900481019282610e185760008555610e66565b82601f10610e295780548555610e66565b82800160010185558215610e6657600052602060002091601f016020900482015b82811115610e65578254825591600101919060010190610e4a565b5b509050610e739190610e77565b5090565b5b80821115610e90576000816000905550600101610e78565b5090565b600081359050610ea3816116e0565b92915050565b60008083601f840112610ebf57610ebe6115f4565b5b8235905067ffffffffffffffff811115610edc57610edb6115ef565b5b602083019150836001820283011115610ef857610ef76115f9565b5b9250929050565b600081359050610f0e816116f7565b92915050565b600060208284031215610f2a57610f29611603565b5b6000610f3884828501610e94565b91505092915050565b60008060008060408587031215610f5b57610f5a611603565b5b600085013567ffffffffffffffff811115610f7957610f786115fe565b5b610f8587828801610ea9565b9450945050602085013567ffffffffffffffff811115610fa857610fa76115fe565b5b610fb487828801610ea9565b925092505092959194509250565b600060208284031215610fd857610fd7611603565b5b6000610fe684828501610eff565b91505092915050565b60008060008060006060868803121561100b5761100a611603565b5b600061101988828901610eff565b955050602086013567ffffffffffffffff81111561103a576110396115fe565b5b61104688828901610ea9565b9450945050604086013567ffffffffffffffff811115611069576110686115fe565b5b61107588828901610ea9565b92509250509295509295909350565b60006110908383611258565b905092915050565b6110a1816114b2565b82525050565b6110b0816114b2565b82525050565b60006110c18261141d565b6110cb8185611440565b9350836020820285016110dd8561140d565b8060005b8581101561111957848403895281516110fa8582611084565b945061110583611433565b925060208a019950506001810190506110e1565b50829750879550505050505092915050565b60006111378385611462565b93506111448385846114ee565b61114d83611608565b840190509392505050565b60006111648385611473565b93506111718385846114ee565b82840190509392505050565b600061118882611428565b6111928185611451565b93506111a28185602086016114fd565b6111ab81611608565b840191505092915050565b60006111c182611428565b6111cb8185611462565b93506111db8185602086016114fd565b6111e481611608565b840191505092915050565b60006111fc602683611462565b915061120782611619565b604082019050919050565b600061121f602083611462565b915061122a82611668565b602082019050919050565b6000611242603183611462565b915061124d82611691565b604082019050919050565b600060808301600083015161127060008601826112c2565b5060208301518482036020860152611288828261117d565b915050604083015184820360408601526112a2828261117d565b91505060608301516112b76060860182611098565b508091505092915050565b6112cb816114e4565b82525050565b6112da816114e4565b82525050565b60006112ed828486611158565b91508190509392505050565b600060208201905061130e60008301846110a7565b92915050565b6000602082019050818103600083015261132e81846110b6565b905092915050565b6000602082019050818103600083015261135181848661112b565b90509392505050565b60006020820190508181036000830152611373816111ef565b9050919050565b6000602082019050818103600083015261139381611212565b9050919050565b600060208201905081810360008301526113b381611235565b9050919050565b60006080820190506113cf60008301876112d1565b81810360208301526113e181866111b6565b905081810360408301526113f581856111b6565b905061140460608301846110a7565b95945050505050565b6000819050602082019050919050565b600081519050919050565b600081519050919050565b6000602082019050919050565b600082825260208201905092915050565b600082825260208201905092915050565b600082825260208201905092915050565b600081905092915050565b6000611489826114e4565b9150611494836114e4565b9250828210156114a7576114a6611562565b5b828203905092915050565b60006114bd826114c4565b9050919050565b600073ffffffffffffffffffffffffffffffffffffffff82169050919050565b6000819050919050565b82818337600083830152505050565b60005b8381101561151b578082015181840152602081019050611500565b8381111561152a576000848401525b50505050565b6000600282049050600182168061154857607f821691505b6020821081141561155c5761155b611591565b5b50919050565b7f4e487b7100000000000000000000000000000000000000000000000000000000600052601160045260246000fd5b7f4e487b7100000000000000000000000000000000000000000000000000000000600052602260045260246000fd5b7f4e487b7100000000000000000000000000000000000000000000000000000000600052603260045260246000fd5b600080fd5b600080fd5b600080fd5b600080fd5b600080fd5b6000601f19601f8301169050919050565b7f4f776e61626c653a206e6577206f776e657220697320746865207a65726f206160008201527f6464726573730000000000000000000000000000000000000000000000000000602082015250565b7f4f776e61626c653a2063616c6c6572206973206e6f7420746865206f776e6572600082015250565b7f506c656173652070726f7669646520612076616c6964206f7267616e697a617460008201527f696f6e20616e642066756c6c6e616d652e000000000000000000000000000000602082015250565b6116e9816114b2565b81146116f457600080fd5b50565b611700816114e4565b811461170b57600080fd5b5056fea2646970667358221220bac9937b0c4c5ce46ce77a7d320a57ec14d88a89b1872442a6da13555e9d599564736f6c63430008060033",
  "linkReferences": {},
  "deployedLinkReferences": {}
}