{
  "_format": "hh-sol-artifact-1",
  "contractName": "Voting",
  "sourceName": "contracts/Voting.sol",
  "abi": [
    {
      "inputs": [],
      "name": "CandidateNotFound",
      "type": "error"
    },
    {
      "inputs": [],
      "name": "CandidateNotYetRegisterForThisVote",
      "type": "error"
    },
    {
      "inputs": [],
      "name": "CandidatePictureUriAlreadyExist",
      "type": "error"
    },
    {
      "inputs": [],
      "name": "VoteAlreadyClosed",
      "type": "error"
    },
    {
      "inputs": [],
      "name": "VoteTypeAlreadyExist",
      "type": "error"
    },
    {
      "inputs": [],
      "name": "VoterAddressAlreadyExist",
      "type": "error"
    },
    {
      "inputs": [],
      "name": "VoterHasAlreadyCastVote",
      "type": "error"
    },
    {
      "anonymous": false,
      "inputs": [
        {
          "indexed": true,
          "internalType": "uint256",
          "name": "ballotBoxId",
          "type": "uint256"
        },
        {
          "indexed": false,
          "internalType": "uint256",
          "name": "voteId",
          "type": "uint256"
        },
        {
          "indexed": true,
          "internalType": "uint256",
          "name": "candidateId",
          "type": "uint256"
        },
        {
          "indexed": true,
          "internalType": "address",
          "name": "voterAddress",
          "type": "address"
        },
        {
          "indexed": false,
          "internalType": "uint256",
          "name": "votingOfficeId",
          "type": "uint256"
        },
        {
          "indexed": false,
          "internalType": "uint256",
          "name": "voterVoteStatus",
          "type": "uint256"
        }
      ],
      "name": "CastedVote",
      "type": "event"
    },
    {
      "anonymous": false,
      "inputs": [
        {
          "indexed": true,
          "internalType": "uint256",
          "name": "candidateId",
          "type": "uint256"
        },
        {
          "indexed": true,
          "internalType": "uint256",
          "name": "orderNumber",
          "type": "uint256"
        },
        {
          "indexed": false,
          "internalType": "string",
          "name": "fullName",
          "type": "string"
        },
        {
          "indexed": false,
          "internalType": "string",
          "name": "pictureURI",
          "type": "string"
        },
        {
          "indexed": true,
          "internalType": "address",
          "name": "user",
          "type": "address"
        }
      ],
      "name": "NewCandidate",
      "type": "event"
    },
    {
      "anonymous": false,
      "inputs": [
        {
          "indexed": true,
          "internalType": "uint256",
          "name": "voteId",
          "type": "uint256"
        },
        {
          "indexed": false,
          "internalType": "uint256",
          "name": "voteTypeId",
          "type": "uint256"
        },
        {
          "indexed": false,
          "internalType": "uint256",
          "name": "timeDuration",
          "type": "uint256"
        },
        {
          "indexed": true,
          "internalType": "address",
          "name": "user",
          "type": "address"
        },
        {
          "indexed": false,
          "internalType": "uint256",
          "name": "status",
          "type": "uint256"
        }
      ],
      "name": "NewVote",
      "type": "event"
    },
    {
      "anonymous": false,
      "inputs": [
        {
          "indexed": true,
          "internalType": "uint256",
          "name": "voteTypeId",
          "type": "uint256"
        },
        {
          "indexed": true,
          "internalType": "string",
          "name": "designation",
          "type": "string"
        },
        {
          "indexed": true,
          "internalType": "address",
          "name": "user",
          "type": "address"
        }
      ],
      "name": "NewVoteType",
      "type": "event"
    },
    {
      "anonymous": false,
      "inputs": [
        {
          "indexed": true,
          "internalType": "uint256",
          "name": "voterId",
          "type": "uint256"
        },
        {
          "indexed": true,
          "internalType": "address",
          "name": "voter",
          "type": "address"
        }
      ],
      "name": "NewVoter",
      "type": "event"
    },
    {
      "anonymous": false,
      "inputs": [
        {
          "indexed": true,
          "internalType": "address",
          "name": "previousOwner",
          "type": "address"
        },
        {
          "indexed": true,
          "internalType": "address",
          "name": "newOwner",
          "type": "address"
        }
      ],
      "name": "OwnershipTransferred",
      "type": "event"
    },
    {
      "anonymous": false,
      "inputs": [
        {
          "indexed": false,
          "internalType": "uint256",
          "name": "voteId",
          "type": "uint256"
        },
        {
          "indexed": false,
          "internalType": "uint256[]",
          "name": "candidateIds",
          "type": "uint256[]"
        }
      ],
      "name": "RegisterCandidateForVote",
      "type": "event"
    },
    {
      "anonymous": false,
      "inputs": [
        {
          "indexed": true,
          "internalType": "uint256",
          "name": "voterId",
          "type": "uint256"
        },
        {
          "indexed": true,
          "internalType": "address",
          "name": "voter",
          "type": "address"
        }
      ],
      "name": "UpdateVoter",
      "type": "event"
    },
    {
      "anonymous": false,
      "inputs": [
        {
          "indexed": true,
          "internalType": "uint256",
          "name": "witnessId",
          "type": "uint256"
        },
        {
          "indexed": true,
          "internalType": "string",
          "name": "fullname",
          "type": "string"
        },
        {
          "indexed": true,
          "internalType": "string",
          "name": "organization",
          "type": "string"
        },
        {
          "indexed": false,
          "internalType": "address",
          "name": "user",
          "type": "address"
        }
      ],
      "name": "UpdateWitness",
      "type": "event"
    },
    {
      "inputs": [
        {
          "internalType": "uint256",
          "name": "_voteId",
          "type": "uint256"
        }
      ],
      "name": "activateVote",
      "outputs": [],
      "stateMutability": "nonpayable",
      "type": "function"
    },
    {
      "inputs": [
        {
          "internalType": "uint256",
          "name": "",
          "type": "uint256"
        }
      ],
      "name": "candidateInfo",
      "outputs": [
        {
          "internalType": "uint256",
          "name": "id",
          "type": "uint256"
        },
        {
          "internalType": "uint256",
          "name": "orderNumber",
          "type": "uint256"
        },
        {
          "internalType": "string",
          "name": "fullname",
          "type": "string"
        },
        {
          "internalType": "string",
          "name": "pictureURI",
          "type": "string"
        },
        {
          "internalType": "address",
          "name": "user",
          "type": "address"
        }
      ],
      "stateMutability": "view",
      "type": "function"
    },
    {
      "inputs": [
        {
          "internalType": "uint256",
          "name": "_voteId",
          "type": "uint256"
        },
        {
          "internalType": "uint256",
          "name": "_voteTypeId",
          "type": "uint256"
        },
        {
          "internalType": "uint256",
          "name": "_votingOfficeId",
          "type": "uint256"
        },
        {
          "internalType": "uint256",
          "name": "_candidateId",
          "type": "uint256"
        },
        {
          "internalType": "uint256",
          "name": "_voterId",
          "type": "uint256"
        },
        {
          "internalType": "uint256",
          "name": "_voterStatus",
          "type": "uint256"
        }
      ],
      "name": "castVote",
      "outputs": [],
      "stateMutability": "nonpayable",
      "type": "function"
    },
    {
      "inputs": [],
      "name": "getBallotBoxes",
      "outputs": [
        {
          "components": [
            {
              "internalType": "uint256",
              "name": "id",
              "type": "uint256"
            },
            {
              "internalType": "uint256",
              "name": "voteId",
              "type": "uint256"
            },
            {
              "internalType": "uint256",
              "name": "voteTypeId",
              "type": "uint256"
            },
            {
              "internalType": "uint256",
              "name": "votingOfficeId",
              "type": "uint256"
            },
            {
              "internalType": "uint256",
              "name": "candidateId",
              "type": "uint256"
            },
            {
              "internalType": "uint256",
              "name": "voterId",
              "type": "uint256"
            },
            {
              "internalType": "uint256",
              "name": "voterVoteStatus",
              "type": "uint256"
            }
          ],
          "internalType": "struct Voting.BallotBox[]",
          "name": "",
          "type": "tuple[]"
        }
      ],
      "stateMutability": "view",
      "type": "function"
    },
    {
      "inputs": [
        {
          "internalType": "uint256",
          "name": "_voteId",
          "type": "uint256"
        }
      ],
      "name": "getBlankPercentageVoteCast",
      "outputs": [
        {
          "internalType": "uint256",
          "name": "",
          "type": "uint256"
        }
      ],
      "stateMutability": "view",
      "type": "function"
    },
    {
      "inputs": [
        {
          "internalType": "uint256",
          "name": "_voteId",
          "type": "uint256"
        },
        {
          "internalType": "uint256",
          "name": "_candidateId",
          "type": "uint256"
        }
      ],
      "name": "getCandidatePercentageVoteCast",
      "outputs": [
        {
          "internalType": "uint256",
          "name": "",
          "type": "uint256"
        }
      ],
      "stateMutability": "view",
      "type": "function"
    },
    {
      "inputs": [
        {
          "internalType": "uint256",
          "name": "_voteId",
          "type": "uint256"
        },
        {
          "internalType": "uint256",
          "name": "_candidateId",
          "type": "uint256"
        }
      ],
      "name": "getCandidateVoteCast",
      "outputs": [
        {
          "internalType": "uint256",
          "name": "",
          "type": "uint256"
        }
      ],
      "stateMutability": "view",
      "type": "function"
    },
    {
      "inputs": [],
      "name": "getCandidates",
      "outputs": [
        {
          "components": [
            {
              "internalType": "uint256",
              "name": "id",
              "type": "uint256"
            },
            {
              "internalType": "uint256",
              "name": "orderNumber",
              "type": "uint256"
            },
            {
              "internalType": "string",
              "name": "fullname",
              "type": "string"
            },
            {
              "internalType": "string",
              "name": "pictureURI",
              "type": "string"
            },
            {
              "internalType": "address",
              "name": "user",
              "type": "address"
            }
          ],
          "internalType": "struct Voting.Candidate[]",
          "name": "",
          "type": "tuple[]"
        }
      ],
      "stateMutability": "view",
      "type": "function"
    },
    {
      "inputs": [
        {
          "internalType": "uint256",
          "name": "_voteId",
          "type": "uint256"
        }
      ],
      "name": "getTotalBlankVotingVoteCast",
      "outputs": [
        {
          "internalType": "uint256",
          "name": "",
          "type": "uint256"
        }
      ],
      "stateMutability": "view",
      "type": "function"
    },
    {
      "inputs": [
        {
          "internalType": "uint256",
          "name": "_voteId",
          "type": "uint256"
        }
      ],
      "name": "getTotalVotingVoteCast",
      "outputs": [
        {
          "internalType": "uint256",
          "name": "",
          "type": "uint256"
        }
      ],
      "stateMutability": "view",
      "type": "function"
    },
    {
      "inputs": [
        {
          "internalType": "uint256",
          "name": "_voteId",
          "type": "uint256"
        }
      ],
      "name": "getVoteResults",
      "outputs": [
        {
          "components": [
            {
              "internalType": "uint256",
              "name": "voteId",
              "type": "uint256"
            },
            {
              "internalType": "uint256",
              "name": "candidateId",
              "type": "uint256"
            },
            {
              "internalType": "uint256",
              "name": "candidateNumber",
              "type": "uint256"
            },
            {
              "internalType": "string",
              "name": "candidateFullName",
              "type": "string"
            },
            {
              "internalType": "uint256",
              "name": "votesCast",
              "type": "uint256"
            },
            {
              "internalType": "uint256",
              "name": "votesBlank",
              "type": "uint256"
            },
            {
              "internalType": "uint256",
              "name": "candidatePercentage",
              "type": "uint256"
            },
            {
              "internalType": "uint256",
              "name": "blankPercentage",
              "type": "uint256"
            }
          ],
          "internalType": "struct Voting.VoteResults[]",
          "name": "",
          "type": "tuple[]"
        }
      ],
      "stateMutability": "view",
      "type": "function"
    },
    {
      "inputs": [
        {
          "internalType": "uint256",
          "name": "_voteId",
          "type": "uint256"
        }
      ],
      "name": "getVoteStatus",
      "outputs": [
        {
          "internalType": "uint256",
          "name": "",
          "type": "uint256"
        }
      ],
      "stateMutability": "view",
      "type": "function"
    },
    {
      "inputs": [],
      "name": "getVoteTypes",
      "outputs": [
        {
          "components": [
            {
              "internalType": "uint256",
              "name": "id",
              "type": "uint256"
            },
            {
              "internalType": "string",
              "name": "designation",
              "type": "string"
            },
            {
              "internalType": "string",
              "name": "description",
              "type": "string"
            },
            {
              "internalType": "address",
              "name": "user",
              "type": "address"
            }
          ],
          "internalType": "struct Voting.VoteType[]",
          "name": "",
          "type": "tuple[]"
        }
      ],
      "stateMutability": "view",
      "type": "function"
    },
    {
      "inputs": [],
      "name": "getVoters",
      "outputs": [
        {
          "components": [
            {
              "internalType": "uint256",
              "name": "id",
              "type": "uint256"
            },
            {
              "internalType": "address",
              "name": "voter",
              "type": "address"
            }
          ],
          "internalType": "struct Voting.Voter[]",
          "name": "",
          "type": "tuple[]"
        }
      ],
      "stateMutability": "view",
      "type": "function"
    },
    {
      "inputs": [],
      "name": "getVotes",
      "outputs": [
        {
          "components": [
            {
              "internalType": "uint256",
              "name": "id",
              "type": "uint256"
            },
            {
              "internalType": "uint256",
              "name": "voteTypeId",
              "type": "uint256"
            },
            {
              "internalType": "uint256",
              "name": "timeDuration",
              "type": "uint256"
            },
            {
              "internalType": "uint256",
              "name": "initialVotingTimestamp",
              "type": "uint256"
            },
            {
              "internalType": "address",
              "name": "user",
              "type": "address"
            },
            {
              "internalType": "uint256",
              "name": "status",
              "type": "uint256"
            }
          ],
          "internalType": "struct Voting.Vote[]",
          "name": "",
          "type": "tuple[]"
        }
      ],
      "stateMutability": "view",
      "type": "function"
    },
    {
      "inputs": [
        {
          "internalType": "uint256",
          "name": "_voteId",
          "type": "uint256"
        }
      ],
      "name": "getVotingTimeElapse",
      "outputs": [
        {
          "internalType": "uint256",
          "name": "",
          "type": "uint256"
        },
        {
          "internalType": "string",
          "name": "",
          "type": "string"
        }
      ],
      "stateMutability": "view",
      "type": "function"
    },
    {
      "inputs": [
        {
          "internalType": "uint256",
          "name": "",
          "type": "uint256"
        }
      ],
      "name": "numberOfAllowedUpdatingVoterAddress",
      "outputs": [
        {
          "internalType": "uint256",
          "name": "",
          "type": "uint256"
        }
      ],
      "stateMutability": "view",
      "type": "function"
    },
    {
      "inputs": [],
      "name": "owner",
      "outputs": [
        {
          "internalType": "address",
          "name": "",
          "type": "address"
        }
      ],
      "stateMutability": "view",
      "type": "function"
    },
    {
      "inputs": [
        {
          "internalType": "uint256",
          "name": "_voteId",
          "type": "uint256"
        },
        {
          "internalType": "uint256[]",
          "name": "_arrCandidateIds",
          "type": "uint256[]"
        }
      ],
      "name": "registerCandidateForVote",
      "outputs": [],
      "stateMutability": "nonpayable",
      "type": "function"
    },
    {
      "inputs": [],
      "name": "renounceOwnership",
      "outputs": [],
      "stateMutability": "nonpayable",
      "type": "function"
    },
    {
      "inputs": [
        {
          "internalType": "uint256",
          "name": "_orderNumber",
          "type": "uint256"
        },
        {
          "internalType": "string",
          "name": "_fullName",
          "type": "string"
        },
        {
          "internalType": "string",
          "name": "_pictureURI",
          "type": "string"
        }
      ],
      "name": "setCandidate",
      "outputs": [],
      "stateMutability": "nonpayable",
      "type": "function"
    },
    {
      "inputs": [
        {
          "internalType": "uint256",
          "name": "_voteTypeId",
          "type": "uint256"
        },
        {
          "internalType": "uint256",
          "name": "_timeDuration",
          "type": "uint256"
        }
      ],
      "name": "setVote",
      "outputs": [],
      "stateMutability": "nonpayable",
      "type": "function"
    },
    {
      "inputs": [
        {
          "internalType": "string",
          "name": "_designation",
          "type": "string"
        },
        {
          "internalType": "string",
          "name": "_description",
          "type": "string"
        }
      ],
      "name": "setVoteType",
      "outputs": [],
      "stateMutability": "nonpayable",
      "type": "function"
    },
    {
      "inputs": [
        {
          "internalType": "address",
          "name": "_voterAddress",
          "type": "address"
        }
      ],
      "name": "setVoter",
      "outputs": [],
      "stateMutability": "nonpayable",
      "type": "function"
    },
    {
      "inputs": [
        {
          "internalType": "address",
          "name": "newOwner",
          "type": "address"
        }
      ],
      "name": "transferOwnership",
      "outputs": [],
      "stateMutability": "nonpayable",
      "type": "function"
    },
    {
      "inputs": [
        {
          "internalType": "address",
          "name": "_oldVoterAddress",
          "type": "address"
        },
        {
          "internalType": "address",
          "name": "_newVoterAddress",
          "type": "address"
        }
      ],
      "name": "updateVoter",
      "outputs": [],
      "stateMutability": "nonpayable",
      "type": "function"
    },
    {
      "inputs": [
        {
          "internalType": "uint256",
          "name": "",
          "type": "uint256"
        },
        {
          "internalType": "uint256",
          "name": "",
          "type": "uint256"
        }
      ],
      "name": "validsCandidateForVote",
      "outputs": [
        {
          "internalType": "uint256",
          "name": "",
          "type": "uint256"
        }
      ],
      "stateMutability": "view",
      "type": "function"
    },
    {
      "inputs": [
        {
          "internalType": "uint256",
          "name": "",
          "type": "uint256"
        }
      ],
      "name": "voteInfo",
      "outputs": [
        {
          "internalType": "uint256",
          "name": "id",
          "type": "uint256"
        },
        {
          "internalType": "uint256",
          "name": "voteTypeId",
          "type": "uint256"
        },
        {
          "internalType": "uint256",
          "name": "timeDuration",
          "type": "uint256"
        },
        {
          "internalType": "uint256",
          "name": "initialVotingTimestamp",
          "type": "uint256"
        },
        {
          "internalType": "address",
          "name": "user",
          "type": "address"
        },
        {
          "internalType": "uint256",
          "name": "status",
          "type": "uint256"
        }
      ],
      "stateMutability": "view",
      "type": "function"
    },
    {
      "inputs": [
        {
          "internalType": "uint256",
          "name": "",
          "type": "uint256"
        }
      ],
      "name": "voteTypeInfo",
      "outputs": [
        {
          "internalType": "uint256",
          "name": "id",
          "type": "uint256"
        },
        {
          "internalType": "string",
          "name": "designation",
          "type": "string"
        },
        {
          "internalType": "string",
          "name": "description",
          "type": "string"
        },
        {
          "internalType": "address",
          "name": "user",
          "type": "address"
        }
      ],
      "stateMutability": "view",
      "type": "function"
    }
  ],
  "bytecode": "0x60806040523480156200001157600080fd5b5062000032620000266200003860201b60201c565b6200004060201b60201c565b62000104565b600033905090565b60008060009054906101000a900473ffffffffffffffffffffffffffffffffffffffff169050816000806101000a81548173ffffffffffffffffffffffffffffffffffffffff021916908373ffffffffffffffffffffffffffffffffffffffff1602179055508173ffffffffffffffffffffffffffffffffffffffff168173ffffffffffffffffffffffffffffffffffffffff167f8be0079c531659141344cd1fd0a4f28419497f9722a3daafe3b4186f6b6457e060405160405180910390a35050565b614eb780620001146000396000f3fe608060405234801561001057600080fd5b50600436106101ce5760003560e01c806377d1843211610104578063a88922b3116100a2578063dbf660bb11610071578063dbf660bb1461059a578063f2fde38b146105b6578063f6148ce8146105d2578063faf571a8146105ee576101ce565b8063a88922b3146104fe578063ab8fbc1c1461052e578063c620d3e01461055e578063cdd722531461057c576101ce565b8063873d73ee116100de578063873d73ee146104635780638da5cb5b1461049357806391285ba5146104b1578063957e1f78146104e2576101ce565b806377d18432146103cb5780638494ff35146103fe57806385eab8bc14610433576101ce565b80634bc2a6571161017157806361b659ec1161014b57806361b659ec1461032d57806364dab7611461035d57806366f516ec1461038d578063715018a6146103c1576101ce565b80634bc2a657146102c5578063531be192146102e157806357796e1c14610311576101ce565b806306a49fce116101ad57806306a49fce1461024f5780630dc960151461026d578063380394791461028b5780634814e9b8146102a7576101ce565b80622cd6ef146101d35780630519bb831461020357806305546aea14610233575b600080fd5b6101ed60048036038101906101e89190613536565b61060a565b6040516101fa91906143e3565b60405180910390f35b61021d60048036038101906102189190613536565b610646565b60405161022a91906143e3565b60405180910390f35b61024d60048036038101906102489190613694565b610666565b005b610257610c06565b604051610264919061415e565b60405180910390f35b610275610df3565b60405161028291906141c4565b60405180910390f35b6102a560048036038101906102a091906135bf565b610eda565b005b6102af61132c565b6040516102bc91906141a2565b60405180910390f35b6102df60048036038101906102da9190613448565b61150f565b005b6102fb60048036038101906102f69190613654565b6117de565b60405161030891906143e3565b60405180910390f35b61032b60048036038101906103269190613654565b61180f565b005b61034760048036038101906103429190613536565b611aec565b60405161035491906143e3565b60405180910390f35b61037760048036038101906103729190613536565b611b04565b60405161038491906143e3565b60405180910390f35b6103a760048036038101906103a29190613536565b611b21565b6040516103b89594939291906144b1565b60405180910390f35b6103c9611c87565b005b6103e560048036038101906103e09190613536565b611c9b565b6040516103f5949392919061445e565b60405180910390f35b61041860048036038101906104139190613536565b611dfb565b60405161042a96959493929190614549565b60405180910390f35b61044d60048036038101906104489190613654565b611e57565b60405161045a91906143e3565b60405180910390f35b61047d60048036038101906104789190613536565b611ea5565b60405161048a91906143e3565b60405180910390f35b61049b611ee0565b6040516104a89190614121565b60405180910390f35b6104cb60048036038101906104c69190613536565b611f09565b6040516104d992919061442e565b60405180910390f35b6104fc60048036038101906104f791906134b5565b611fe8565b005b61051860048036038101906105139190613536565b612425565b6040516105259190614180565b60405180910390f35b61054860048036038101906105439190613654565b6126c4565b60405161055591906143e3565b60405180910390f35b6105666126f3565b604051610573919061413c565b60405180910390f35b6105846127a0565b60405161059191906141e6565b60405180910390f35b6105b460048036038101906105af9190613536565b61285f565b005b6105d060048036038101906105cb9190613448565b6129e5565b005b6105ec60048036038101906105e79190613475565b612a69565b005b61060860048036038101906106039190613563565b612d23565b005b600061061582611ea5565b6064600b600085815260200190815260200160002054610635919061485e565b61063f919061482d565b9050919050565b600060026000838152602001908152602001600020600501549050919050565b8583600060086000848152602001908152602001600020805490509050600080600090505b828110156106e6576008600086815260200190815260200160002081815481106106b8576106b7614ad2565b5b90600052602060002001548414156106d357600191506106e6565b80806106de906149cd565b91505061068b565b508061071e576040517f638f81e000000000000000000000000000000000000000000000000000000000815260040160405180910390fd5b60028081111561073157610730614a74565b5b600260008c8152602001908152602001600020600501541415610780576040517f949384d300000000000000000000000000000000000000000000000000000000815260040160405180910390fd5b6001600281111561079457610793614a74565b5b600260008c815260200190815260200160002060050154146107eb576040517f08c379a00000000000000000000000000000000000000000000000000000000081526004016107e290614363565b60405180910390fd5b85600460008881526020019081526020016000206000015414610843576040517f08c379a000000000000000000000000000000000000000000000000000000000815260040161083a90614283565b60405180910390fd5b60018514806108525750600285145b610891576040517f08c379a0000000000000000000000000000000000000000000000000000000008152600401610888906143c3565b60405180910390fd5b61089a8a612f45565b600160028111156108ae576108ad614a74565b5b600960008c8152602001908152602001600020600088815260200190815260200160002054148061091457506002808111156108ed576108ec614a74565b5b600960008c8152602001908152602001600020600088815260200190815260200160002054145b1561094b576040517f57e2cd0100000000000000000000000000000000000000000000000000000000815260040160405180910390fd5b6109556011612fd9565b60006109616011612fef565b90506001600281111561097757610976614a74565b5b8614156109ea576001600c60008d815260200190815260200160002060008a815260200190815260200160002060008282546109b391906147d7565b925050819055506001600a60008d815260200190815260200160002060008282546109de91906147d7565b92505081905550610a31565b6002808111156109fd576109fc614a74565b5b861415610a30576001600b60008d81526020019081526020016000206000828254610a2891906147d7565b925050819055505b5b6040518060e001604052808281526020018c81526020018b81526020018a81526020018981526020018881526020018781525060066000838152602001908152602001600020600082015181600001556020820151816001015560408201518160020155606082015181600301556080820151816004015560a0820151816005015560c0820151816006015590505085600960008d815260200190815260200160002060008981526020019081526020016000208190555060166006600083815260200190815260200160002090806001815401808255809150506001900390600052602060002090600702016000909190919091506000820154816000015560018201548160010155600282015481600201556003820154816003015560048201548160040155600582015481600501556006820154816006015550506004600088815260200190815260200160002060010160009054906101000a900473ffffffffffffffffffffffffffffffffffffffff1673ffffffffffffffffffffffffffffffffffffffff1688827f0ba54fe179d0dd661cc86152691459b4ba3df051836b237c61c6224ad38435738e8d8b604051610bf193929190614512565b60405180910390a45050505050505050505050565b60606015805480602002602001604051908101604052809291908181526020016000905b82821015610dea57838290600052602060002090600502016040518060a00160405290816000820154815260200160018201548152602001600282018054610c719061496a565b80601f0160208091040260200160405190810160405280929190818152602001828054610c9d9061496a565b8015610cea5780601f10610cbf57610100808354040283529160200191610cea565b820191906000526020600020905b815481529060010190602001808311610ccd57829003601f168201915b50505050508152602001600382018054610d039061496a565b80601f0160208091040260200160405190810160405280929190818152602001828054610d2f9061496a565b8015610d7c5780601f10610d5157610100808354040283529160200191610d7c565b820191906000526020600020905b815481529060010190602001808311610d5f57829003601f168201915b505050505081526020016004820160009054906101000a900473ffffffffffffffffffffffffffffffffffffffff1673ffffffffffffffffffffffffffffffffffffffff1673ffffffffffffffffffffffffffffffffffffffff168152505081526020019060010190610c2a565b50505050905090565b60606013805480602002602001604051908101604052809291908181526020016000905b82821015610ed157838290600052602060002090600602016040518060c0016040529081600082015481526020016001820154815260200160028201548152602001600382015481526020016004820160009054906101000a900473ffffffffffffffffffffffffffffffffffffffff1673ffffffffffffffffffffffffffffffffffffffff1673ffffffffffffffffffffffffffffffffffffffff16815260200160058201548152505081526020019060010190610e17565b50505050905090565b81818080601f016020809104026020016040519081016040528093929190818152602001838380828437600081840152601f19601f820116905080830192505050505050506000601580549050905060005b81811015610ff15782604051602001610f4591906140f3565b6040516020818303038152906040528051906020012060158281548110610f6f57610f6e614ad2565b5b9060005260206000209060050201600301604051602001610f90919061410a565b604051602081830303815290604052805190602001201415610fde576040517f9bcc950400000000000000000000000000000000000000000000000000000000815260040160405180910390fd5b8080610fe9906149cd565b915050610f2c565b506000868690501415801561100a575060008484905014155b611049576040517f08c379a000000000000000000000000000000000000000000000000000000000815260040161104090614383565b60405180910390fd5b6110536010612fd9565b600061105f6010612fef565b90506040518060a0016040528082815260200189815260200188888080601f016020809104026020016040519081016040528093929190818152602001838380828437600081840152601f19601f82011690508083019250505050505050815260200186868080601f016020809104026020016040519081016040528093929190818152602001838380828437600081840152601f19601f8201169050808301925050505050505081526020013373ffffffffffffffffffffffffffffffffffffffff168152506005600083815260200190815260200160002060008201518160000155602082015181600101556040820151816002019080519060200190611169929190613168565b506060820151816003019080519060200190611186929190613168565b5060808201518160040160006101000a81548173ffffffffffffffffffffffffffffffffffffffff021916908373ffffffffffffffffffffffffffffffffffffffff1602179055509050506015600560008381526020019081526020016000209080600181540180825580915050600190039060005260206000209060050201600090919091909150600082015481600001556001820154816001015560028201816002019080546112379061496a565b6112429291906131ee565b5060038201816003019080546112579061496a565b6112629291906131ee565b506004820160009054906101000a900473ffffffffffffffffffffffffffffffffffffffff168160040160006101000a81548173ffffffffffffffffffffffffffffffffffffffff021916908373ffffffffffffffffffffffffffffffffffffffff16021790555050503373ffffffffffffffffffffffffffffffffffffffff1688827f65b1ee16712d5459ea96a708ccbceb841a9d3d6009d75eb4259cf44049acae1f8a8a8a8a60405161131a9493929190614208565b60405180910390a45050505050505050565b60606012805480602002602001604051908101604052809291908181526020016000905b8282101561150657838290600052602060002090600402016040518060800160405290816000820154815260200160018201805461138d9061496a565b80601f01602080910402602001604051908101604052809291908181526020018280546113b99061496a565b80156114065780601f106113db57610100808354040283529160200191611406565b820191906000526020600020905b8154815290600101906020018083116113e957829003601f168201915b5050505050815260200160028201805461141f9061496a565b80601f016020809104026020016040519081016040528092919081815260200182805461144b9061496a565b80156114985780601f1061146d57610100808354040283529160200191611498565b820191906000526020600020905b81548152906001019060200180831161147b57829003601f168201915b505050505081526020016003820160009054906101000a900473ffffffffffffffffffffffffffffffffffffffff1673ffffffffffffffffffffffffffffffffffffffff1673ffffffffffffffffffffffffffffffffffffffff168152505081526020019060010190611350565b50505050905090565b80600060148054905090506000805b828110156115bb578373ffffffffffffffffffffffffffffffffffffffff166014828154811061155157611550614ad2565b5b906000526020600020906002020160010160009054906101000a900473ffffffffffffffffffffffffffffffffffffffff1673ffffffffffffffffffffffffffffffffffffffff1614156115a857600191506115bb565b80806115b3906149cd565b91505061151e565b5080156115f4576040517ff630824000000000000000000000000000000000000000000000000000000000815260040160405180910390fd5b6115fe600f612fd9565b600061160a600f612fef565b905060405180604001604052808281526020018673ffffffffffffffffffffffffffffffffffffffff16815250600460008381526020019081526020016000206000820151816000015560208201518160010160006101000a81548173ffffffffffffffffffffffffffffffffffffffff021916908373ffffffffffffffffffffffffffffffffffffffff1602179055509050506014600460008381526020019081526020016000209080600181540180825580915050600190039060005260206000209060020201600090919091909150600082015481600001556001820160009054906101000a900473ffffffffffffffffffffffffffffffffffffffff168160010160006101000a81548173ffffffffffffffffffffffffffffffffffffffff021916908373ffffffffffffffffffffffffffffffffffffffff160217905550505080600760008773ffffffffffffffffffffffffffffffffffffffff1673ffffffffffffffffffffffffffffffffffffffff168152602001908152602001600020819055508473ffffffffffffffffffffffffffffffffffffffff16817fcea92dd21eac6a85990666fd027f09c3aaf3b50d47852d08aad7723627d1003360405160405180910390a35050505050565b600860205281600052604060002081815481106117fa57600080fd5b90600052602060002001600091509150505481565b81600360008481526020019081526020016000206000015414611867576040517f08c379a000000000000000000000000000000000000000000000000000000000815260040161185e90614263565b60405180910390fd5b600081116118aa576040517f08c379a00000000000000000000000000000000000000000000000000000000081526004016118a190614303565b60405180910390fd5b6118b4600e612fd9565b60006118c0600e612fef565b90506040518060c00160405280828152602001848152602001838152602001600081526020013373ffffffffffffffffffffffffffffffffffffffff1681526020016000600281111561191657611915614a74565b5b815250600260008381526020019081526020016000206000820151816000015560208201518160010155604082015181600201556060820151816003015560808201518160040160006101000a81548173ffffffffffffffffffffffffffffffffffffffff021916908373ffffffffffffffffffffffffffffffffffffffff16021790555060a082015181600501559050506013600260008381526020019081526020016000209080600181540180825580915050600190039060005260206000209060060201600090919091909150600082015481600001556001820154816001015560028201548160020155600382015481600301556004820160009054906101000a900473ffffffffffffffffffffffffffffffffffffffff168160040160006101000a81548173ffffffffffffffffffffffffffffffffffffffff021916908373ffffffffffffffffffffffffffffffffffffffff1602179055506005820154816005015550503373ffffffffffffffffffffffffffffffffffffffff16817fc1c3f2485d639ef2220518b3c443a54dcbadb9a574dcbcb6074946cb40fd72db858560006002811115611ad057611acf614a74565b5b604051611adf93929190614512565b60405180910390a3505050565b60016020528060005260406000206000915090505481565b6000600b6000838152602001908152602001600020549050919050565b6005602052806000526040600020600091509050806000015490806001015490806002018054611b509061496a565b80601f0160208091040260200160405190810160405280929190818152602001828054611b7c9061496a565b8015611bc95780601f10611b9e57610100808354040283529160200191611bc9565b820191906000526020600020905b815481529060010190602001808311611bac57829003601f168201915b505050505090806003018054611bde9061496a565b80601f0160208091040260200160405190810160405280929190818152602001828054611c0a9061496a565b8015611c575780601f10611c2c57610100808354040283529160200191611c57565b820191906000526020600020905b815481529060010190602001808311611c3a57829003601f168201915b5050505050908060040160009054906101000a900473ffffffffffffffffffffffffffffffffffffffff16905085565b611c8f612ffd565b611c99600061307b565b565b6003602052806000526040600020600091509050806000015490806001018054611cc49061496a565b80601f0160208091040260200160405190810160405280929190818152602001828054611cf09061496a565b8015611d3d5780601f10611d1257610100808354040283529160200191611d3d565b820191906000526020600020905b815481529060010190602001808311611d2057829003601f168201915b505050505090806002018054611d529061496a565b80601f0160208091040260200160405190810160405280929190818152602001828054611d7e9061496a565b8015611dcb5780601f10611da057610100808354040283529160200191611dcb565b820191906000526020600020905b815481529060010190602001808311611dae57829003601f168201915b5050505050908060030160009054906101000a900473ffffffffffffffffffffffffffffffffffffffff16905084565b60026020528060005260406000206000915090508060000154908060010154908060020154908060030154908060040160009054906101000a900473ffffffffffffffffffffffffffffffffffffffff16908060050154905086565b6000611e6283611ea5565b6064600c6000868152602001908152602001600020600085815260200190815260200160002054611e93919061485e565b611e9d919061482d565b905092915050565b6000600b600083815260200190815260200160002054600a600084815260200190815260200160002054611ed991906147d7565b9050919050565b60008060009054906101000a900473ffffffffffffffffffffffffffffffffffffffff16905090565b600060606002600084815260200190815260200160002060020154611f43600260008681526020019081526020016000206003015461313f565b11611fa657611f67600260008581526020019081526020016000206003015461313f565b6040518060400160405280601881526020017f566f74696e67207374696c6c20676f696e67206f6e2e2e2e000000000000000081525091509150611fe3565b60006040518060400160405280601481526020017f566f74696e672074696d6520657870697265642e000000000000000000000000815250915091505b915091565b83838080601f016020809104026020016040519081016040528093929190818152602001838380828437600081840152601f19601f820116905080830192505050505050506000601280549050905060005b818110156120ff578260405160200161205391906140f3565b604051602081830303815290604052805190602001206012828154811061207d5761207c614ad2565b5b906000526020600020906004020160010160405160200161209e919061410a565b6040516020818303038152906040528051906020012014156120ec576040517ffbfa180100000000000000000000000000000000000000000000000000000000815260040160405180910390fd5b80806120f7906149cd565b91505061203a565b5060008686905014158015612118575060008484905014155b612157576040517f08c379a000000000000000000000000000000000000000000000000000000000815260040161214e90614243565b60405180910390fd5b612161600d612fd9565b600061216d600d612fef565b9050604051806080016040528082815260200188888080601f016020809104026020016040519081016040528093929190818152602001838380828437600081840152601f19601f82011690508083019250505050505050815260200186868080601f016020809104026020016040519081016040528093929190818152602001838380828437600081840152601f19601f8201169050808301925050505050505081526020013373ffffffffffffffffffffffffffffffffffffffff1681525060036000838152602001908152602001600020600082015181600001556020820151816001019080519060200190612267929190613168565b506040820151816002019080519060200190612284929190613168565b5060608201518160030160006101000a81548173ffffffffffffffffffffffffffffffffffffffff021916908373ffffffffffffffffffffffffffffffffffffffff160217905550905050601260036000838152602001908152602001600020908060018154018082558091505060019003906000526020600020906004020160009091909190915060008201548160000155600182018160010190805461232b9061496a565b6123369291906131ee565b50600282018160020190805461234b9061496a565b6123569291906131ee565b506003820160009054906101000a900473ffffffffffffffffffffffffffffffffffffffff168160030160006101000a81548173ffffffffffffffffffffffffffffffffffffffff021916908373ffffffffffffffffffffffffffffffffffffffff16021790555050503373ffffffffffffffffffffffffffffffffffffffff1687876040516123e79291906140da565b6040518091039020827fd8ee76a5e348e43e21cb4606e67f62e1cee452209c4ebcabe3004b674ccd232a60405160405180910390a450505050505050565b606060006008600084815260200190815260200160002080548060200260200160405190810160405280929190818152602001828054801561248657602002820191906000526020600020905b815481526020019060010190808311612472575b5050505050905060006008600085815260200190815260200160002080549050905060008167ffffffffffffffff8111156124c4576124c3614b01565b5b6040519080825280602002602001820160405280156124fd57816020015b6124ea61327b565b8152602001906001900390816124e25790505b50905060005b828110156126b85760008482815181106125205761251f614ad2565b5b60200260200101519050600061253688836126c4565b9050600061254389611b04565b905060006125518a85611e57565b9050600061255e8b61060a565b90506040518061010001604052808c8152602001868152602001600560008c8a8151811061258f5761258e614ad2565b5b60200260200101518152602001908152602001600020600101548152602001600560008c8a815181106125c5576125c4614ad2565b5b6020026020010151815260200190815260200160002060020180546125e99061496a565b80601f01602080910402602001604051908101604052809291908181526020018280546126159061496a565b80156126625780601f1061263757610100808354040283529160200191612662565b820191906000526020600020905b81548152906001019060200180831161264557829003601f168201915b505050505081526020018581526020018481526020018381526020018281525087878151811061269557612694614ad2565b5b6020026020010181905250505050505080806126b0906149cd565b915050612503565b50809350505050919050565b6000600c6000848152602001908152602001600020600083815260200190815260200160002054905092915050565b60606126fd612ffd565b6016805480602002602001604051908101604052809291908181526020016000905b8282101561279757838290600052602060002090600702016040518060e00160405290816000820154815260200160018201548152602001600282015481526020016003820154815260200160048201548152602001600582015481526020016006820154815250508152602001906001019061271f565b50505050905090565b60606014805480602002602001604051908101604052809291908181526020016000905b828210156128565783829060005260206000209060020201604051806040016040529081600082015481526020016001820160009054906101000a900473ffffffffffffffffffffffffffffffffffffffff1673ffffffffffffffffffffffffffffffffffffffff1673ffffffffffffffffffffffffffffffffffffffff1681525050815260200190600101906127c4565b50505050905090565b8060028081111561287357612872614a74565b5b600260008381526020019081526020016000206005015414156128c2576040517f949384d300000000000000000000000000000000000000000000000000000000815260040160405180910390fd5b600160028111156128d6576128d5614a74565b5b6002600084815260200190815260200160002060050154141561292e576040517f08c379a0000000000000000000000000000000000000000000000000000000008152600401612925906142c3565b60405180910390fd5b6001600281111561294257612941614a74565b5b601360018461295191906148b8565b8154811061296257612961614ad2565b5b906000526020600020906006020160050181905560026000848152602001908152602001600020600501819055504260136001846129a091906148b8565b815481106129b1576129b0614ad2565b5b9060005260206000209060060201600301819055504260026000848152602001908152602001600020600301819055505050565b6129ed612ffd565b600073ffffffffffffffffffffffffffffffffffffffff168173ffffffffffffffffffffffffffffffffffffffff161415612a5d576040517f08c379a0000000000000000000000000000000000000000000000000000000008152600401612a54906142e3565b60405180910390fd5b612a668161307b565b50565b80600060148054905090506000805b82811015612b15578373ffffffffffffffffffffffffffffffffffffffff1660148281548110612aab57612aaa614ad2565b5b906000526020600020906002020160010160009054906101000a900473ffffffffffffffffffffffffffffffffffffffff1673ffffffffffffffffffffffffffffffffffffffff161415612b025760019150612b15565b8080612b0d906149cd565b915050612a78565b508015612b4e576040517ff630824000000000000000000000000000000000000000000000000000000000815260040160405180910390fd5b6000600760008773ffffffffffffffffffffffffffffffffffffffff1673ffffffffffffffffffffffffffffffffffffffff16815260200190815260200160002054905060006001600083815260200190815260200160002054905060008110158015612bbc575060028111155b612bfb576040517f08c379a0000000000000000000000000000000000000000000000000000000008152600401612bf290614323565b60405180910390fd5b856014600184612c0b91906148b8565b81548110612c1c57612c1b614ad2565b5b906000526020600020906002020160010160006101000a81548173ffffffffffffffffffffffffffffffffffffffff021916908373ffffffffffffffffffffffffffffffffffffffff16021790555081600760008873ffffffffffffffffffffffffffffffffffffffff1673ffffffffffffffffffffffffffffffffffffffff16815260200190815260200160002081905550600181612cbc91906147d7565b90508060016000848152602001908152602001600020819055508573ffffffffffffffffffffffffffffffffffffffff16827fd298ea02d554568c7f9acfd0221d68cb6c2a74a0b36431bd19b3be9f0151124c60405160405180910390a350505050505050565b81600280811115612d3757612d36614a74565b5b60026000838152602001908152602001600020600501541415612d86576040517f949384d300000000000000000000000000000000000000000000000000000000815260040160405180910390fd5b60016002811115612d9a57612d99614a74565b5b60026000858152602001908152602001600020600501541415612df2576040517f08c379a0000000000000000000000000000000000000000000000000000000008152600401612de9906142a3565b60405180910390fd5b6000825111612e36576040517f08c379a0000000000000000000000000000000000000000000000000000000008152600401612e2d906143a3565b60405180910390fd5b60008251905060005b81811015612edd5760056000858381518110612e5e57612e5d614ad2565b5b6020026020010151815260200190815260200160002060000154848281518110612e8b57612e8a614ad2565b5b602002602001015114612eca576040517f6fc1420700000000000000000000000000000000000000000000000000000000815260040160405180910390fd5b8080612ed5906149cd565b915050612e3f565b5082600860008681526020019081526020016000209080519060200190612f059291906132c0565b507f6fab6e2a58a25aa36b5b13e656c745ab644a24062de00428a63ffb6d9b8dab2b8484604051612f379291906143fe565b60405180910390a150505050565b6002600082815260200190815260200160002060020154612f7b600260008481526020019081526020016000206003015461313f565b10612fd657600280811115612f9357612f92614a74565b5b60138281548110612fa757612fa6614ad2565b5b906000526020600020906006020160050181905560026000838152602001908152602001600020600501819055505b50565b6001816000016000828254019250508190555050565b600081600001549050919050565b613005613160565b73ffffffffffffffffffffffffffffffffffffffff16613023611ee0565b73ffffffffffffffffffffffffffffffffffffffff1614613079576040517f08c379a000000000000000000000000000000000000000000000000000000000815260040161307090614343565b60405180910390fd5b565b60008060009054906101000a900473ffffffffffffffffffffffffffffffffffffffff169050816000806101000a81548173ffffffffffffffffffffffffffffffffffffffff021916908373ffffffffffffffffffffffffffffffffffffffff1602179055508173ffffffffffffffffffffffffffffffffffffffff168173ffffffffffffffffffffffffffffffffffffffff167f8be0079c531659141344cd1fd0a4f28419497f9722a3daafe3b4186f6b6457e060405160405180910390a35050565b6000603c824261314f91906148b8565b613159919061482d565b9050919050565b600033905090565b8280546131749061496a565b90600052602060002090601f01602090048101928261319657600085556131dd565b82601f106131af57805160ff19168380011785556131dd565b828001600101855582156131dd579182015b828111156131dc5782518255916020019190600101906131c1565b5b5090506131ea919061330d565b5090565b8280546131fa9061496a565b90600052602060002090601f01602090048101928261321c576000855561326a565b82601f1061322d578054855561326a565b8280016001018555821561326a57600052602060002091601f016020900482015b8281111561326957825482559160010191906001019061324e565b5b509050613277919061330d565b5090565b60405180610100016040528060008152602001600081526020016000815260200160608152602001600081526020016000815260200160008152602001600081525090565b8280548282559060005260206000209081019282156132fc579160200282015b828111156132fb5782518255916020019190600101906132e0565b5b509050613309919061330d565b5090565b5b8082111561332657600081600090555060010161330e565b5090565b600061333d613338846145cf565b6145aa565b905080838252602082019050828560208602820111156133605761335f614b3a565b5b60005b8581101561339057816133768882613433565b845260208401935060208301925050600181019050613363565b5050509392505050565b6000813590506133a981614e53565b92915050565b600082601f8301126133c4576133c3614b35565b5b81356133d484826020860161332a565b91505092915050565b60008083601f8401126133f3576133f2614b35565b5b8235905067ffffffffffffffff8111156134105761340f614b30565b5b60208301915083600182028301111561342c5761342b614b3a565b5b9250929050565b60008135905061344281614e6a565b92915050565b60006020828403121561345e5761345d614b44565b5b600061346c8482850161339a565b91505092915050565b6000806040838503121561348c5761348b614b44565b5b600061349a8582860161339a565b92505060206134ab8582860161339a565b9150509250929050565b600080600080604085870312156134cf576134ce614b44565b5b600085013567ffffffffffffffff8111156134ed576134ec614b3f565b5b6134f9878288016133dd565b9450945050602085013567ffffffffffffffff81111561351c5761351b614b3f565b5b613528878288016133dd565b925092505092959194509250565b60006020828403121561354c5761354b614b44565b5b600061355a84828501613433565b91505092915050565b6000806040838503121561357a57613579614b44565b5b600061358885828601613433565b925050602083013567ffffffffffffffff8111156135a9576135a8614b3f565b5b6135b5858286016133af565b9150509250929050565b6000806000806000606086880312156135db576135da614b44565b5b60006135e988828901613433565b955050602086013567ffffffffffffffff81111561360a57613609614b3f565b5b613616888289016133dd565b9450945050604086013567ffffffffffffffff81111561363957613638614b3f565b5b613645888289016133dd565b92509250509295509295909350565b6000806040838503121561366b5761366a614b44565b5b600061367985828601613433565b925050602061368a85828601613433565b9150509250929050565b60008060008060008060c087890312156136b1576136b0614b44565b5b60006136bf89828a01613433565b96505060206136d089828a01613433565b95505060406136e189828a01613433565b94505060606136f289828a01613433565b935050608061370389828a01613433565b92505060a061371489828a01613433565b9150509295509295509295565b600061372d8383613ded565b60e08301905092915050565b60006137458383613e7b565b905092915050565b60006137598383613ef8565b905092915050565b600061376d8383613fa8565b905092915050565b60006137818383614012565b60c08301905092915050565b6000613799838361408d565b60408301905092915050565b60006137b183836140bc565b60208301905092915050565b6137c6816148ec565b82525050565b6137d5816148ec565b82525050565b60006137e682614680565b6137f08185614733565b93506137fb836145fb565b8060005b8381101561382c5781516138138882613721565b975061381e836146d8565b9250506001810190506137ff565b5085935050505092915050565b60006138448261468b565b61384e8185614744565b9350836020820285016138608561460b565b8060005b8581101561389c578484038952815161387d8582613739565b9450613888836146e5565b925060208a01995050600181019050613864565b50829750879550505050505092915050565b60006138b982614696565b6138c38185614755565b9350836020820285016138d58561461b565b8060005b8581101561391157848403895281516138f2858261374d565b94506138fd836146f2565b925060208a019950506001810190506138d9565b50829750879550505050505092915050565b600061392e826146a1565b6139388185614766565b93508360208202850161394a8561462b565b8060005b8581101561398657848403895281516139678582613761565b9450613972836146ff565b925060208a0199505060018101905061394e565b50829750879550505050505092915050565b60006139a3826146ac565b6139ad8185614777565b93506139b88361463b565b8060005b838110156139e95781516139d08882613775565b97506139db8361470c565b9250506001810190506139bc565b5085935050505092915050565b6000613a01826146b7565b613a0b8185614788565b9350613a168361464b565b8060005b83811015613a47578151613a2e888261378d565b9750613a3983614719565b925050600181019050613a1a565b5085935050505092915050565b6000613a5f826146c2565b613a698185614799565b9350613a748361465b565b8060005b83811015613aa5578151613a8c88826137a5565b9750613a9783614726565b925050600181019050613a78565b5085935050505092915050565b6000613abe83856147bb565b9350613acb838584614928565b613ad483614b49565b840190509392505050565b6000613aeb83856147cc565b9350613af8838584614928565b82840190509392505050565b6000613b0f826146cd565b613b1981856147aa565b9350613b29818560208601614937565b613b3281614b49565b840191505092915050565b6000613b48826146cd565b613b5281856147bb565b9350613b62818560208601614937565b613b6b81614b49565b840191505092915050565b6000613b81826146cd565b613b8b81856147cc565b9350613b9b818560208601614937565b80840191505092915050565b60008154613bb48161496a565b613bbe81866147cc565b94506001821660008114613bd95760018114613bea57613c1d565b60ff19831686528186019350613c1d565b613bf38561466b565b60005b83811015613c1557815481890152600182019150602081019050613bf6565b838801955050505b50505092915050565b6000613c336031836147bb565b9150613c3e82614b5a565b604082019050919050565b6000613c566015836147bb565b9150613c6182614ba9565b602082019050919050565b6000613c796017836147bb565b9150613c8482614bd2565b602082019050919050565b6000613c9c6025836147bb565b9150613ca782614bfb565b604082019050919050565b6000613cbf6024836147bb565b9150613cca82614c4a565b604082019050919050565b6000613ce26026836147bb565b9150613ced82614c99565b604082019050919050565b6000613d056017836147bb565b9150613d1082614ce8565b602082019050919050565b6000613d28601b836147bb565b9150613d3382614d11565b602082019050919050565b6000613d4b6020836147bb565b9150613d5682614d3a565b602082019050919050565b6000613d6e601e836147bb565b9150613d7982614d63565b602082019050919050565b6000613d916021836147bb565b9150613d9c82614d8c565b604082019050919050565b6000613db46013836147bb565b9150613dbf82614ddb565b602082019050919050565b6000613dd76031836147bb565b9150613de282614e04565b604082019050919050565b60e082016000820151613e0360008501826140bc565b506020820151613e1660208501826140bc565b506040820151613e2960408501826140bc565b506060820151613e3c60608501826140bc565b506080820151613e4f60808501826140bc565b5060a0820151613e6260a08501826140bc565b5060c0820151613e7560c08501826140bc565b50505050565b600060a083016000830151613e9360008601826140bc565b506020830151613ea660208601826140bc565b5060408301518482036040860152613ebe8282613b04565b91505060608301518482036060860152613ed88282613b04565b9150506080830151613eed60808601826137bd565b508091505092915050565b600061010083016000830151613f1160008601826140bc565b506020830151613f2460208601826140bc565b506040830151613f3760408601826140bc565b5060608301518482036060860152613f4f8282613b04565b9150506080830151613f6460808601826140bc565b5060a0830151613f7760a08601826140bc565b5060c0830151613f8a60c08601826140bc565b5060e0830151613f9d60e08601826140bc565b508091505092915050565b6000608083016000830151613fc060008601826140bc565b5060208301518482036020860152613fd88282613b04565b91505060408301518482036040860152613ff28282613b04565b915050606083015161400760608601826137bd565b508091505092915050565b60c08201600082015161402860008501826140bc565b50602082015161403b60208501826140bc565b50604082015161404e60408501826140bc565b50606082015161406160608501826140bc565b50608082015161407460808501826137bd565b5060a082015161408760a08501826140bc565b50505050565b6040820160008201516140a360008501826140bc565b5060208201516140b660208501826137bd565b50505050565b6140c58161491e565b82525050565b6140d48161491e565b82525050565b60006140e7828486613adf565b91508190509392505050565b60006140ff8284613b76565b915081905092915050565b60006141168284613ba7565b915081905092915050565b600060208201905061413660008301846137cc565b92915050565b6000602082019050818103600083015261415681846137db565b905092915050565b600060208201905081810360008301526141788184613839565b905092915050565b6000602082019050818103600083015261419a81846138ae565b905092915050565b600060208201905081810360008301526141bc8184613923565b905092915050565b600060208201905081810360008301526141de8184613998565b905092915050565b6000602082019050818103600083015261420081846139f6565b905092915050565b60006040820190508181036000830152614223818688613ab2565b90508181036020830152614238818486613ab2565b905095945050505050565b6000602082019050818103600083015261425c81613c26565b9050919050565b6000602082019050818103600083015261427c81613c49565b9050919050565b6000602082019050818103600083015261429c81613c6c565b9050919050565b600060208201905081810360008301526142bc81613c8f565b9050919050565b600060208201905081810360008301526142dc81613cb2565b9050919050565b600060208201905081810360008301526142fc81613cd5565b9050919050565b6000602082019050818103600083015261431c81613cf8565b9050919050565b6000602082019050818103600083015261433c81613d1b565b9050919050565b6000602082019050818103600083015261435c81613d3e565b9050919050565b6000602082019050818103600083015261437c81613d61565b9050919050565b6000602082019050818103600083015261439c81613d84565b9050919050565b600060208201905081810360008301526143bc81613da7565b9050919050565b600060208201905081810360008301526143dc81613dca565b9050919050565b60006020820190506143f860008301846140cb565b92915050565b600060408201905061441360008301856140cb565b81810360208301526144258184613a54565b90509392505050565b600060408201905061444360008301856140cb565b81810360208301526144558184613b3d565b90509392505050565b600060808201905061447360008301876140cb565b81810360208301526144858186613b3d565b905081810360408301526144998185613b3d565b90506144a860608301846137cc565b95945050505050565b600060a0820190506144c660008301886140cb565b6144d360208301876140cb565b81810360408301526144e58186613b3d565b905081810360608301526144f98185613b3d565b905061450860808301846137cc565b9695505050505050565b600060608201905061452760008301866140cb565b61453460208301856140cb565b61454160408301846140cb565b949350505050565b600060c08201905061455e60008301896140cb565b61456b60208301886140cb565b61457860408301876140cb565b61458560608301866140cb565b61459260808301856137cc565b61459f60a08301846140cb565b979650505050505050565b60006145b46145c5565b90506145c0828261499c565b919050565b6000604051905090565b600067ffffffffffffffff8211156145ea576145e9614b01565b5b602082029050602081019050919050565b6000819050602082019050919050565b6000819050602082019050919050565b6000819050602082019050919050565b6000819050602082019050919050565b6000819050602082019050919050565b6000819050602082019050919050565b6000819050602082019050919050565b60008190508160005260206000209050919050565b600081519050919050565b600081519050919050565b600081519050919050565b600081519050919050565b600081519050919050565b600081519050919050565b600081519050919050565b600081519050919050565b6000602082019050919050565b6000602082019050919050565b6000602082019050919050565b6000602082019050919050565b6000602082019050919050565b6000602082019050919050565b6000602082019050919050565b600082825260208201905092915050565b600082825260208201905092915050565b600082825260208201905092915050565b600082825260208201905092915050565b600082825260208201905092915050565b600082825260208201905092915050565b600082825260208201905092915050565b600082825260208201905092915050565b600082825260208201905092915050565b600081905092915050565b60006147e28261491e565b91506147ed8361491e565b9250827fffffffffffffffffffffffffffffffffffffffffffffffffffffffffffffffff0382111561482257614821614a16565b5b828201905092915050565b60006148388261491e565b91506148438361491e565b92508261485357614852614a45565b5b828204905092915050565b60006148698261491e565b91506148748361491e565b9250817fffffffffffffffffffffffffffffffffffffffffffffffffffffffffffffffff04831182151516156148ad576148ac614a16565b5b828202905092915050565b60006148c38261491e565b91506148ce8361491e565b9250828210156148e1576148e0614a16565b5b828203905092915050565b60006148f7826148fe565b9050919050565b600073ffffffffffffffffffffffffffffffffffffffff82169050919050565b6000819050919050565b82818337600083830152505050565b60005b8381101561495557808201518184015260208101905061493a565b83811115614964576000848401525b50505050565b6000600282049050600182168061498257607f821691505b6020821081141561499657614995614aa3565b5b50919050565b6149a582614b49565b810181811067ffffffffffffffff821117156149c4576149c3614b01565b5b80604052505050565b60006149d88261491e565b91507fffffffffffffffffffffffffffffffffffffffffffffffffffffffffffffffff821415614a0b57614a0a614a16565b5b600182019050919050565b7f4e487b7100000000000000000000000000000000000000000000000000000000600052601160045260246000fd5b7f4e487b7100000000000000000000000000000000000000000000000000000000600052601260045260246000fd5b7f4e487b7100000000000000000000000000000000000000000000000000000000600052602160045260246000fd5b7f4e487b7100000000000000000000000000000000000000000000000000000000600052602260045260246000fd5b7f4e487b7100000000000000000000000000000000000000000000000000000000600052603260045260246000fd5b7f4e487b7100000000000000000000000000000000000000000000000000000000600052604160045260246000fd5b600080fd5b600080fd5b600080fd5b600080fd5b600080fd5b6000601f19601f8301169050919050565b7f506c656173652070726f766964652076616c69642064657369676e6174696f6e60008201527f20616e64206465736372697074696f6e2e000000000000000000000000000000602082015250565b7f496e76616c696420766f746520747970652049442e0000000000000000000000600082015250565b7f54686520766f746572206973206e6f7420666f756e642e000000000000000000600082015250565b7f4e6f7420617661696c61626c65206f6e636520766f746520697320616374697660008201527f617465642e000000000000000000000000000000000000000000000000000000602082015250565b7f566f746520616c726561647920616374697661746564206f72206e6f7420766160008201527f6c69642e00000000000000000000000000000000000000000000000000000000602082015250565b7f4f776e61626c653a206e6577206f776e657220697320746865207a65726f206160008201527f6464726573730000000000000000000000000000000000000000000000000000602082015250565b7f496e76616c696420766f74696e6720706572696f64652e000000000000000000600082015250565b7f55706461746520726573747269637420746f20332074696d65732e0000000000600082015250565b7f4f776e61626c653a2063616c6c6572206973206e6f7420746865206f776e6572600082015250565b7f54686520766f7465206973206e6f7420796574206163746976617465642e0000600082015250565b7f496e76616c69642066756c6c206e616d65206f7220706963747572652055524960008201527f2e00000000000000000000000000000000000000000000000000000000000000602082015250565b7f496e76616c69642063616e646964617465732e00000000000000000000000000600082015250565b7f496e76616c696420766f746572207374617475733a205573652031203d20766f60008201527f746564206f722032203d20626c616e6b2e000000000000000000000000000000602082015250565b614e5c816148ec565b8114614e6757600080fd5b50565b614e738161491e565b8114614e7e57600080fd5b5056fea2646970667358221220cc400257b5bdb8dc2f53a6dbf17e49a31ab50695ea75ad99c170525eff83ad1b64736f6c63430008060033",
  "linkReferences": {},
  "deployedLinkReferences": {}
}