{
  "_format": "hh-sol-artifact-1",
  "contractName": "Voting",
  "sourceName": "contracts/Voting.sol",
  "abi": [
    {
      "inputs": [],
      "name": "CandidateNotFound",
      "type": "error"
    },
    {
      "inputs": [],
      "name": "CandidateNotYetRegisterForThisVote",
      "type": "error"
    },
    {
      "inputs": [],
      "name": "CandidatePictureUriAlreadyExist",
      "type": "error"
    },
    {
      "inputs": [],
      "name": "VoteAlreadyClosed",
      "type": "error"
    },
    {
      "inputs": [],
      "name": "VoteTypeAlreadyExist",
      "type": "error"
    },
    {
      "inputs": [],
      "name": "VoterAddressAlreadyExist",
      "type": "error"
    },
    {
      "inputs": [],
      "name": "VoterHasAlreadyCastVote",
      "type": "error"
    },
    {
      "anonymous": false,
      "inputs": [
        {
          "indexed": true,
          "internalType": "uint256",
          "name": "ballotBoxId",
          "type": "uint256"
        },
        {
          "indexed": false,
          "internalType": "uint256",
          "name": "voteId",
          "type": "uint256"
        },
        {
          "indexed": true,
          "internalType": "uint256",
          "name": "candidateId",
          "type": "uint256"
        },
        {
          "indexed": true,
          "internalType": "address",
          "name": "voterAddress",
          "type": "address"
        },
        {
          "indexed": false,
          "internalType": "uint256",
          "name": "votingOfficeId",
          "type": "uint256"
        },
        {
          "indexed": false,
          "internalType": "uint256",
          "name": "voterVoteStatus",
          "type": "uint256"
        }
      ],
      "name": "CastedVote",
      "type": "event"
    },
    {
      "anonymous": false,
      "inputs": [
        {
          "indexed": true,
          "internalType": "uint256",
          "name": "candidateId",
          "type": "uint256"
        },
        {
          "indexed": true,
          "internalType": "uint256",
          "name": "orderNumber",
          "type": "uint256"
        },
        {
          "indexed": false,
          "internalType": "string",
          "name": "fullName",
          "type": "string"
        },
        {
          "indexed": false,
          "internalType": "string",
          "name": "pictureURI",
          "type": "string"
        },
        {
          "indexed": true,
          "internalType": "address",
          "name": "user",
          "type": "address"
        }
      ],
      "name": "NewCandidate",
      "type": "event"
    },
    {
      "anonymous": false,
      "inputs": [
        {
          "indexed": true,
          "internalType": "uint256",
          "name": "voteId",
          "type": "uint256"
        },
        {
          "indexed": false,
          "internalType": "uint256",
          "name": "voteTypeId",
          "type": "uint256"
        },
        {
          "indexed": false,
          "internalType": "uint256",
          "name": "timeDuration",
          "type": "uint256"
        },
        {
          "indexed": true,
          "internalType": "address",
          "name": "user",
          "type": "address"
        },
        {
          "indexed": false,
          "internalType": "uint256",
          "name": "status",
          "type": "uint256"
        }
      ],
      "name": "NewVote",
      "type": "event"
    },
    {
      "anonymous": false,
      "inputs": [
        {
          "indexed": true,
          "internalType": "uint256",
          "name": "voteTypeId",
          "type": "uint256"
        },
        {
          "indexed": true,
          "internalType": "string",
          "name": "designation",
          "type": "string"
        },
        {
          "indexed": true,
          "internalType": "address",
          "name": "user",
          "type": "address"
        }
      ],
      "name": "NewVoteType",
      "type": "event"
    },
    {
      "anonymous": false,
      "inputs": [
        {
          "indexed": true,
          "internalType": "uint256",
          "name": "voterId",
          "type": "uint256"
        },
        {
          "indexed": true,
          "internalType": "address",
          "name": "voter",
          "type": "address"
        }
      ],
      "name": "NewVoter",
      "type": "event"
    },
    {
      "anonymous": false,
      "inputs": [
        {
          "indexed": true,
          "internalType": "address",
          "name": "previousOwner",
          "type": "address"
        },
        {
          "indexed": true,
          "internalType": "address",
          "name": "newOwner",
          "type": "address"
        }
      ],
      "name": "OwnershipTransferred",
      "type": "event"
    },
    {
      "anonymous": false,
      "inputs": [
        {
          "indexed": false,
          "internalType": "uint256",
          "name": "voteId",
          "type": "uint256"
        },
        {
          "indexed": false,
          "internalType": "uint256[]",
          "name": "candidateIds",
          "type": "uint256[]"
        }
      ],
      "name": "RegisterCandidateForVote",
      "type": "event"
    },
    {
      "anonymous": false,
      "inputs": [
        {
          "indexed": true,
          "internalType": "uint256",
          "name": "voterId",
          "type": "uint256"
        },
        {
          "indexed": true,
          "internalType": "address",
          "name": "voter",
          "type": "address"
        }
      ],
      "name": "UpdateVoter",
      "type": "event"
    },
    {
      "anonymous": false,
      "inputs": [
        {
          "indexed": true,
          "internalType": "uint256",
          "name": "witnessId",
          "type": "uint256"
        },
        {
          "indexed": true,
          "internalType": "string",
          "name": "fullname",
          "type": "string"
        },
        {
          "indexed": true,
          "internalType": "string",
          "name": "organization",
          "type": "string"
        },
        {
          "indexed": false,
          "internalType": "address",
          "name": "user",
          "type": "address"
        }
      ],
      "name": "UpdateWitness",
      "type": "event"
    },
    {
      "inputs": [
        {
          "internalType": "uint256",
          "name": "_voteId",
          "type": "uint256"
        }
      ],
      "name": "activateVote",
      "outputs": [],
      "stateMutability": "nonpayable",
      "type": "function"
    },
    {
      "inputs": [
        {
          "internalType": "uint256",
          "name": "",
          "type": "uint256"
        }
      ],
      "name": "candidateInfo",
      "outputs": [
        {
          "internalType": "uint256",
          "name": "id",
          "type": "uint256"
        },
        {
          "internalType": "uint256",
          "name": "orderNumber",
          "type": "uint256"
        },
        {
          "internalType": "string",
          "name": "fullname",
          "type": "string"
        },
        {
          "internalType": "string",
          "name": "pictureURI",
          "type": "string"
        },
        {
          "internalType": "address",
          "name": "user",
          "type": "address"
        }
      ],
      "stateMutability": "view",
      "type": "function"
    },
    {
      "inputs": [
        {
          "internalType": "uint256",
          "name": "_voteId",
          "type": "uint256"
        },
        {
          "internalType": "uint256",
          "name": "_voteTypeId",
          "type": "uint256"
        },
        {
          "internalType": "uint256",
          "name": "_votingOfficeId",
          "type": "uint256"
        },
        {
          "internalType": "uint256",
          "name": "_candidateId",
          "type": "uint256"
        },
        {
          "internalType": "uint256",
          "name": "_voterId",
          "type": "uint256"
        },
        {
          "internalType": "uint256",
          "name": "_voterStatus",
          "type": "uint256"
        }
      ],
      "name": "castVote",
      "outputs": [],
      "stateMutability": "nonpayable",
      "type": "function"
    },
    {
      "inputs": [
        {
          "internalType": "uint256",
          "name": "numerator",
          "type": "uint256"
        },
        {
          "internalType": "uint256",
          "name": "denominator",
          "type": "uint256"
        }
      ],
      "name": "divide",
      "outputs": [
        {
          "internalType": "string",
          "name": "result",
          "type": "string"
        }
      ],
      "stateMutability": "pure",
      "type": "function"
    },
    {
      "inputs": [],
      "name": "getBallotBoxes",
      "outputs": [
        {
          "components": [
            {
              "internalType": "uint256",
              "name": "id",
              "type": "uint256"
            },
            {
              "internalType": "uint256",
              "name": "voteId",
              "type": "uint256"
            },
            {
              "internalType": "uint256",
              "name": "voteTypeId",
              "type": "uint256"
            },
            {
              "internalType": "uint256",
              "name": "votingOfficeId",
              "type": "uint256"
            },
            {
              "internalType": "uint256",
              "name": "candidateId",
              "type": "uint256"
            },
            {
              "internalType": "uint256",
              "name": "voterId",
              "type": "uint256"
            },
            {
              "internalType": "uint256",
              "name": "voterVoteStatus",
              "type": "uint256"
            }
          ],
          "internalType": "struct Voting.BallotBox[]",
          "name": "",
          "type": "tuple[]"
        }
      ],
      "stateMutability": "view",
      "type": "function"
    },
    {
      "inputs": [
        {
          "internalType": "uint256",
          "name": "_voteId",
          "type": "uint256"
        }
      ],
      "name": "getBlankPercentageVoteCast",
      "outputs": [
        {
          "internalType": "string",
          "name": "",
          "type": "string"
        }
      ],
      "stateMutability": "view",
      "type": "function"
    },
    {
      "inputs": [
        {
          "internalType": "uint256",
          "name": "_voteId",
          "type": "uint256"
        },
        {
          "internalType": "uint256",
          "name": "_candidateId",
          "type": "uint256"
        }
      ],
      "name": "getCandidatePercentageVoteCast",
      "outputs": [
        {
          "internalType": "string",
          "name": "",
          "type": "string"
        }
      ],
      "stateMutability": "view",
      "type": "function"
    },
    {
      "inputs": [
        {
          "internalType": "uint256",
          "name": "_voteId",
          "type": "uint256"
        },
        {
          "internalType": "uint256",
          "name": "_candidateId",
          "type": "uint256"
        }
      ],
      "name": "getCandidateVoteCast",
      "outputs": [
        {
          "internalType": "uint256",
          "name": "",
          "type": "uint256"
        }
      ],
      "stateMutability": "view",
      "type": "function"
    },
    {
      "inputs": [],
      "name": "getCandidates",
      "outputs": [
        {
          "components": [
            {
              "internalType": "uint256",
              "name": "id",
              "type": "uint256"
            },
            {
              "internalType": "uint256",
              "name": "orderNumber",
              "type": "uint256"
            },
            {
              "internalType": "string",
              "name": "fullname",
              "type": "string"
            },
            {
              "internalType": "string",
              "name": "pictureURI",
              "type": "string"
            },
            {
              "internalType": "address",
              "name": "user",
              "type": "address"
            }
          ],
          "internalType": "struct Voting.Candidate[]",
          "name": "",
          "type": "tuple[]"
        }
      ],
      "stateMutability": "view",
      "type": "function"
    },
    {
      "inputs": [
        {
          "internalType": "uint256",
          "name": "voteId",
          "type": "uint256"
        }
      ],
      "name": "getRegisterCandidateForVote",
      "outputs": [
        {
          "internalType": "uint256[]",
          "name": "",
          "type": "uint256[]"
        }
      ],
      "stateMutability": "view",
      "type": "function"
    },
    {
      "inputs": [
        {
          "internalType": "uint256",
          "name": "_voteId",
          "type": "uint256"
        }
      ],
      "name": "getTotalBlankVotingVoteCast",
      "outputs": [
        {
          "internalType": "uint256",
          "name": "",
          "type": "uint256"
        }
      ],
      "stateMutability": "view",
      "type": "function"
    },
    {
      "inputs": [
        {
          "internalType": "uint256",
          "name": "_voteId",
          "type": "uint256"
        }
      ],
      "name": "getTotalVotingVoteCast",
      "outputs": [
        {
          "internalType": "uint256",
          "name": "",
          "type": "uint256"
        }
      ],
      "stateMutability": "view",
      "type": "function"
    },
    {
      "inputs": [
        {
          "internalType": "uint256",
          "name": "_voteId",
          "type": "uint256"
        }
      ],
      "name": "getVoteResults",
      "outputs": [
        {
          "components": [
            {
              "internalType": "uint256",
              "name": "voteId",
              "type": "uint256"
            },
            {
              "internalType": "uint256",
              "name": "candidateId",
              "type": "uint256"
            },
            {
              "internalType": "uint256",
              "name": "candidateNumber",
              "type": "uint256"
            },
            {
              "internalType": "string",
              "name": "candidateFullName",
              "type": "string"
            },
            {
              "internalType": "uint256",
              "name": "votesCast",
              "type": "uint256"
            },
            {
              "internalType": "uint256",
              "name": "votesBlank",
              "type": "uint256"
            },
            {
              "internalType": "string",
              "name": "candidatePercentage",
              "type": "string"
            },
            {
              "internalType": "string",
              "name": "blankPercentage",
              "type": "string"
            }
          ],
          "internalType": "struct Voting.VoteResults[]",
          "name": "",
          "type": "tuple[]"
        }
      ],
      "stateMutability": "view",
      "type": "function"
    },
    {
      "inputs": [
        {
          "internalType": "uint256",
          "name": "_voteId",
          "type": "uint256"
        }
      ],
      "name": "getVoteStatus",
      "outputs": [
        {
          "internalType": "uint256",
          "name": "",
          "type": "uint256"
        }
      ],
      "stateMutability": "view",
      "type": "function"
    },
    {
      "inputs": [],
      "name": "getVoteTypes",
      "outputs": [
        {
          "components": [
            {
              "internalType": "uint256",
              "name": "id",
              "type": "uint256"
            },
            {
              "internalType": "string",
              "name": "designation",
              "type": "string"
            },
            {
              "internalType": "string",
              "name": "description",
              "type": "string"
            },
            {
              "internalType": "address",
              "name": "user",
              "type": "address"
            }
          ],
          "internalType": "struct Voting.VoteType[]",
          "name": "",
          "type": "tuple[]"
        }
      ],
      "stateMutability": "view",
      "type": "function"
    },
    {
      "inputs": [],
      "name": "getVoters",
      "outputs": [
        {
          "components": [
            {
              "internalType": "uint256",
              "name": "id",
              "type": "uint256"
            },
            {
              "internalType": "address",
              "name": "voter",
              "type": "address"
            }
          ],
          "internalType": "struct Voting.Voter[]",
          "name": "",
          "type": "tuple[]"
        }
      ],
      "stateMutability": "view",
      "type": "function"
    },
    {
      "inputs": [],
      "name": "getVotes",
      "outputs": [
        {
          "components": [
            {
              "internalType": "uint256",
              "name": "id",
              "type": "uint256"
            },
            {
              "internalType": "uint256",
              "name": "voteTypeId",
              "type": "uint256"
            },
            {
              "internalType": "uint256",
              "name": "timeDuration",
              "type": "uint256"
            },
            {
              "internalType": "uint256",
              "name": "initialVotingTimestamp",
              "type": "uint256"
            },
            {
              "internalType": "address",
              "name": "user",
              "type": "address"
            },
            {
              "internalType": "uint256",
              "name": "status",
              "type": "uint256"
            }
          ],
          "internalType": "struct Voting.Vote[]",
          "name": "",
          "type": "tuple[]"
        }
      ],
      "stateMutability": "view",
      "type": "function"
    },
    {
      "inputs": [
        {
          "internalType": "uint256",
          "name": "_voteId",
          "type": "uint256"
        }
      ],
      "name": "getVotingTimeElapse",
      "outputs": [
        {
          "internalType": "uint256",
          "name": "",
          "type": "uint256"
        },
        {
          "internalType": "string",
          "name": "",
          "type": "string"
        }
      ],
      "stateMutability": "view",
      "type": "function"
    },
    {
      "inputs": [
        {
          "internalType": "uint256",
          "name": "",
          "type": "uint256"
        }
      ],
      "name": "numberOfAllowedUpdatingVoterAddress",
      "outputs": [
        {
          "internalType": "uint256",
          "name": "",
          "type": "uint256"
        }
      ],
      "stateMutability": "view",
      "type": "function"
    },
    {
      "inputs": [],
      "name": "owner",
      "outputs": [
        {
          "internalType": "address",
          "name": "",
          "type": "address"
        }
      ],
      "stateMutability": "view",
      "type": "function"
    },
    {
      "inputs": [
        {
          "internalType": "uint256",
          "name": "_voteId",
          "type": "uint256"
        },
        {
          "internalType": "uint256[]",
          "name": "_arrCandidateIds",
          "type": "uint256[]"
        }
      ],
      "name": "registerCandidateForVote",
      "outputs": [],
      "stateMutability": "nonpayable",
      "type": "function"
    },
    {
      "inputs": [],
      "name": "renounceOwnership",
      "outputs": [],
      "stateMutability": "nonpayable",
      "type": "function"
    },
    {
      "inputs": [
        {
          "internalType": "uint256",
          "name": "_orderNumber",
          "type": "uint256"
        },
        {
          "internalType": "string",
          "name": "_fullName",
          "type": "string"
        },
        {
          "internalType": "string",
          "name": "_pictureURI",
          "type": "string"
        }
      ],
      "name": "setCandidate",
      "outputs": [],
      "stateMutability": "nonpayable",
      "type": "function"
    },
    {
      "inputs": [
        {
          "internalType": "uint256",
          "name": "_voteTypeId",
          "type": "uint256"
        },
        {
          "internalType": "uint256",
          "name": "_timeDuration",
          "type": "uint256"
        }
      ],
      "name": "setVote",
      "outputs": [],
      "stateMutability": "nonpayable",
      "type": "function"
    },
    {
      "inputs": [
        {
          "internalType": "string",
          "name": "_designation",
          "type": "string"
        },
        {
          "internalType": "string",
          "name": "_description",
          "type": "string"
        }
      ],
      "name": "setVoteType",
      "outputs": [],
      "stateMutability": "nonpayable",
      "type": "function"
    },
    {
      "inputs": [
        {
          "internalType": "address",
          "name": "_voterAddress",
          "type": "address"
        }
      ],
      "name": "setVoter",
      "outputs": [],
      "stateMutability": "nonpayable",
      "type": "function"
    },
    {
      "inputs": [
        {
          "internalType": "address",
          "name": "newOwner",
          "type": "address"
        }
      ],
      "name": "transferOwnership",
      "outputs": [],
      "stateMutability": "nonpayable",
      "type": "function"
    },
    {
      "inputs": [
        {
          "internalType": "address",
          "name": "_oldVoterAddress",
          "type": "address"
        },
        {
          "internalType": "address",
          "name": "_newVoterAddress",
          "type": "address"
        }
      ],
      "name": "updateVoter",
      "outputs": [],
      "stateMutability": "nonpayable",
      "type": "function"
    },
    {
      "inputs": [
        {
          "internalType": "uint256",
          "name": "",
          "type": "uint256"
        },
        {
          "internalType": "uint256",
          "name": "",
          "type": "uint256"
        }
      ],
      "name": "validsCandidateForVote",
      "outputs": [
        {
          "internalType": "uint256",
          "name": "",
          "type": "uint256"
        }
      ],
      "stateMutability": "view",
      "type": "function"
    },
    {
      "inputs": [
        {
          "internalType": "uint256",
          "name": "",
          "type": "uint256"
        }
      ],
      "name": "voteInfo",
      "outputs": [
        {
          "internalType": "uint256",
          "name": "id",
          "type": "uint256"
        },
        {
          "internalType": "uint256",
          "name": "voteTypeId",
          "type": "uint256"
        },
        {
          "internalType": "uint256",
          "name": "timeDuration",
          "type": "uint256"
        },
        {
          "internalType": "uint256",
          "name": "initialVotingTimestamp",
          "type": "uint256"
        },
        {
          "internalType": "address",
          "name": "user",
          "type": "address"
        },
        {
          "internalType": "uint256",
          "name": "status",
          "type": "uint256"
        }
      ],
      "stateMutability": "view",
      "type": "function"
    },
    {
      "inputs": [
        {
          "internalType": "uint256",
          "name": "",
          "type": "uint256"
        }
      ],
      "name": "voteTypeInfo",
      "outputs": [
        {
          "internalType": "uint256",
          "name": "id",
          "type": "uint256"
        },
        {
          "internalType": "string",
          "name": "designation",
          "type": "string"
        },
        {
          "internalType": "string",
          "name": "description",
          "type": "string"
        },
        {
          "internalType": "address",
          "name": "user",
          "type": "address"
        }
      ],
      "stateMutability": "view",
      "type": "function"
    }
  ],
  "bytecode": "0x60806040523480156200001157600080fd5b5062000032620000266200003860201b60201c565b6200004060201b60201c565b62000104565b600033905090565b60008060009054906101000a900473ffffffffffffffffffffffffffffffffffffffff169050816000806101000a81548173ffffffffffffffffffffffffffffffffffffffff021916908373ffffffffffffffffffffffffffffffffffffffff1602179055508173ffffffffffffffffffffffffffffffffffffffff168173ffffffffffffffffffffffffffffffffffffffff167f8be0079c531659141344cd1fd0a4f28419497f9722a3daafe3b4186f6b6457e060405160405180910390a35050565b61545f80620001146000396000f3fe608060405234801561001057600080fd5b50600436106101e45760003560e01c80638494ff351161010f578063c620d3e0116100a2578063f2fde38b11610071578063f2fde38b146105fc578063f6148ce814610618578063f88e9fbf14610634578063faf571a814610664576101e4565b8063c620d3e014610574578063cdd7225314610592578063dbf660bb146105b0578063e1345160146105cc576101e4565b806391285ba5116100de57806391285ba5146104c7578063957e1f78146104f8578063a88922b314610514578063ab8fbc1c14610544576101e4565b80638494ff351461041457806385eab8bc14610449578063873d73ee146104795780638da5cb5b146104a9576101e4565b80634bc2a6571161018757806364dab7611161015657806364dab7611461037357806366f516ec146103a3578063715018a6146103d757806377d18432146103e1576101e4565b80634bc2a657146102db578063531be192146102f757806357796e1c1461032757806361b659ec14610343576101e4565b806306a49fce116101c357806306a49fce146102655780630dc960151461028357806338039479146102a15780634814e9b8146102bd576101e4565b80622cd6ef146101e95780630519bb831461021957806305546aea14610249575b600080fd5b61020360048036038101906101fe9190613975565b610680565b6040516102109190614759565b60405180910390f35b610233600480360381019061022e9190613975565b6106ba565b604051610240919061491b565b60405180910390f35b610263600480360381019061025e9190613ad3565b6106da565b005b61026d610c7a565b60405161027a9190614652565b60405180910390f35b61028b610e67565b60405161029891906146b8565b60405180910390f35b6102bb60048036038101906102b691906139fe565b610f4e565b005b6102c56113a0565b6040516102d29190614696565b60405180910390f35b6102f560048036038101906102f09190613887565b611583565b005b610311600480360381019061030c9190613a93565b611852565b60405161031e919061491b565b60405180910390f35b610341600480360381019061033c9190613a93565b611883565b005b61035d60048036038101906103589190613975565b611b60565b60405161036a919061491b565b60405180910390f35b61038d60048036038101906103889190613975565b611b78565b60405161039a919061491b565b60405180910390f35b6103bd60048036038101906103b89190613975565b611b95565b6040516103ce9594939291906149e9565b60405180910390f35b6103df611cfb565b005b6103fb60048036038101906103f69190613975565b611d0f565b60405161040b9493929190614996565b60405180910390f35b61042e60048036038101906104299190613975565b611e6f565b60405161044096959493929190614a81565b60405180910390f35b610463600480360381019061045e9190613a93565b611ecb565b6040516104709190614759565b60405180910390f35b610493600480360381019061048e9190613975565b611f17565b6040516104a0919061491b565b60405180910390f35b6104b1611f52565b6040516104be9190614615565b60405180910390f35b6104e160048036038101906104dc9190613975565b611f7b565b6040516104ef929190614966565b60405180910390f35b610512600480360381019061050d91906138f4565b61205a565b005b61052e60048036038101906105299190613975565b612497565b60405161053b9190614674565b60405180910390f35b61055e60048036038101906105599190613a93565b612736565b60405161056b919061491b565b60405180910390f35b61057c612765565b6040516105899190614630565b60405180910390f35b61059a612812565b6040516105a791906146da565b60405180910390f35b6105ca60048036038101906105c59190613975565b6128d1565b005b6105e660048036038101906105e19190613975565b612a57565b6040516105f391906146fc565b60405180910390f35b61061660048036038101906106119190613887565b612ac2565b005b610632600480360381019061062d91906138b4565b612b46565b005b61064e60048036038101906106499190613a93565b612e00565b60405161065b9190614759565b60405180910390f35b61067e600480360381019061067991906139a2565b612ebe565b005b60606106b36064600b6000858152602001908152602001600020546106a59190614dac565b6106ae84611f17565b612e00565b9050919050565b600060026000838152602001908152602001600020600501549050919050565b8583600060086000848152602001908152602001600020805490509050600080600090505b8281101561075a5760086000868152602001908152602001600020818154811061072c5761072b615051565b5b9060005260206000200154841415610747576001915061075a565b808061075290614f1b565b9150506106ff565b5080610792576040517f638f81e000000000000000000000000000000000000000000000000000000000815260040160405180910390fd5b6002808111156107a5576107a4614ff3565b5b600260008c81526020019081526020016000206005015414156107f4576040517f949384d300000000000000000000000000000000000000000000000000000000815260040160405180910390fd5b6001600281111561080857610807614ff3565b5b600260008c8152602001908152602001600020600501541461085f576040517f08c379a00000000000000000000000000000000000000000000000000000000081526004016108569061489b565b60405180910390fd5b856004600088815260200190815260200160002060000154146108b7576040517f08c379a00000000000000000000000000000000000000000000000000000000081526004016108ae906147bb565b60405180910390fd5b60018514806108c65750600285145b610905576040517f08c379a00000000000000000000000000000000000000000000000000000000081526004016108fc906148fb565b60405180910390fd5b61090e8a6130e0565b6001600281111561092257610921614ff3565b5b600960008c81526020019081526020016000206000888152602001908152602001600020541480610988575060028081111561096157610960614ff3565b5b600960008c8152602001908152602001600020600088815260200190815260200160002054145b156109bf576040517f57e2cd0100000000000000000000000000000000000000000000000000000000815260040160405180910390fd5b6109c96011613174565b60006109d5601161318a565b9050600160028111156109eb576109ea614ff3565b5b861415610a5e576001600c60008d815260200190815260200160002060008a81526020019081526020016000206000828254610a279190614d25565b925050819055506001600a60008d81526020019081526020016000206000828254610a529190614d25565b92505081905550610aa5565b600280811115610a7157610a70614ff3565b5b861415610aa4576001600b60008d81526020019081526020016000206000828254610a9c9190614d25565b925050819055505b5b6040518060e001604052808281526020018c81526020018b81526020018a81526020018981526020018881526020018781525060066000838152602001908152602001600020600082015181600001556020820151816001015560408201518160020155606082015181600301556080820151816004015560a0820151816005015560c0820151816006015590505085600960008d815260200190815260200160002060008981526020019081526020016000208190555060166006600083815260200190815260200160002090806001815401808255809150506001900390600052602060002090600702016000909190919091506000820154816000015560018201548160010155600282015481600201556003820154816003015560048201548160040155600582015481600501556006820154816006015550506004600088815260200190815260200160002060010160009054906101000a900473ffffffffffffffffffffffffffffffffffffffff1673ffffffffffffffffffffffffffffffffffffffff1688827f0ba54fe179d0dd661cc86152691459b4ba3df051836b237c61c6224ad38435738e8d8b604051610c6593929190614a4a565b60405180910390a45050505050505050505050565b60606015805480602002602001604051908101604052809291908181526020016000905b82821015610e5e57838290600052602060002090600502016040518060a00160405290816000820154815260200160018201548152602001600282018054610ce590614eb8565b80601f0160208091040260200160405190810160405280929190818152602001828054610d1190614eb8565b8015610d5e5780601f10610d3357610100808354040283529160200191610d5e565b820191906000526020600020905b815481529060010190602001808311610d4157829003601f168201915b50505050508152602001600382018054610d7790614eb8565b80601f0160208091040260200160405190810160405280929190818152602001828054610da390614eb8565b8015610df05780601f10610dc557610100808354040283529160200191610df0565b820191906000526020600020905b815481529060010190602001808311610dd357829003601f168201915b505050505081526020016004820160009054906101000a900473ffffffffffffffffffffffffffffffffffffffff1673ffffffffffffffffffffffffffffffffffffffff1673ffffffffffffffffffffffffffffffffffffffff168152505081526020019060010190610c9e565b50505050905090565b60606013805480602002602001604051908101604052809291908181526020016000905b82821015610f4557838290600052602060002090600602016040518060c0016040529081600082015481526020016001820154815260200160028201548152602001600382015481526020016004820160009054906101000a900473ffffffffffffffffffffffffffffffffffffffff1673ffffffffffffffffffffffffffffffffffffffff1673ffffffffffffffffffffffffffffffffffffffff16815260200160058201548152505081526020019060010190610e8b565b50505050905090565b81818080601f016020809104026020016040519081016040528093929190818152602001838380828437600081840152601f19601f820116905080830192505050505050506000601580549050905060005b818110156110655782604051602001610fb99190614594565b6040516020818303038152906040528051906020012060158281548110610fe357610fe2615051565b5b906000526020600020906005020160030160405160200161100491906145fe565b604051602081830303815290604052805190602001201415611052576040517f9bcc950400000000000000000000000000000000000000000000000000000000815260040160405180910390fd5b808061105d90614f1b565b915050610fa0565b506000868690501415801561107e575060008484905014155b6110bd576040517f08c379a00000000000000000000000000000000000000000000000000000000081526004016110b4906148bb565b60405180910390fd5b6110c76010613174565b60006110d3601061318a565b90506040518060a0016040528082815260200189815260200188888080601f016020809104026020016040519081016040528093929190818152602001838380828437600081840152601f19601f82011690508083019250505050505050815260200186868080601f016020809104026020016040519081016040528093929190818152602001838380828437600081840152601f19601f8201169050808301925050505050505081526020013373ffffffffffffffffffffffffffffffffffffffff1681525060056000838152602001908152602001600020600082015181600001556020820151816001015560408201518160020190805190602001906111dd9291906135a7565b5060608201518160030190805190602001906111fa9291906135a7565b5060808201518160040160006101000a81548173ffffffffffffffffffffffffffffffffffffffff021916908373ffffffffffffffffffffffffffffffffffffffff1602179055509050506015600560008381526020019081526020016000209080600181540180825580915050600190039060005260206000209060050201600090919091909150600082015481600001556001820154816001015560028201816002019080546112ab90614eb8565b6112b692919061362d565b5060038201816003019080546112cb90614eb8565b6112d692919061362d565b506004820160009054906101000a900473ffffffffffffffffffffffffffffffffffffffff168160040160006101000a81548173ffffffffffffffffffffffffffffffffffffffff021916908373ffffffffffffffffffffffffffffffffffffffff16021790555050503373ffffffffffffffffffffffffffffffffffffffff1688827f65b1ee16712d5459ea96a708ccbceb841a9d3d6009d75eb4259cf44049acae1f8a8a8a8a60405161138e949392919061471e565b60405180910390a45050505050505050565b60606012805480602002602001604051908101604052809291908181526020016000905b8282101561157a57838290600052602060002090600402016040518060800160405290816000820154815260200160018201805461140190614eb8565b80601f016020809104026020016040519081016040528092919081815260200182805461142d90614eb8565b801561147a5780601f1061144f5761010080835404028352916020019161147a565b820191906000526020600020905b81548152906001019060200180831161145d57829003601f168201915b5050505050815260200160028201805461149390614eb8565b80601f01602080910402602001604051908101604052809291908181526020018280546114bf90614eb8565b801561150c5780601f106114e15761010080835404028352916020019161150c565b820191906000526020600020905b8154815290600101906020018083116114ef57829003601f168201915b505050505081526020016003820160009054906101000a900473ffffffffffffffffffffffffffffffffffffffff1673ffffffffffffffffffffffffffffffffffffffff1673ffffffffffffffffffffffffffffffffffffffff1681525050815260200190600101906113c4565b50505050905090565b80600060148054905090506000805b8281101561162f578373ffffffffffffffffffffffffffffffffffffffff16601482815481106115c5576115c4615051565b5b906000526020600020906002020160010160009054906101000a900473ffffffffffffffffffffffffffffffffffffffff1673ffffffffffffffffffffffffffffffffffffffff16141561161c576001915061162f565b808061162790614f1b565b915050611592565b508015611668576040517ff630824000000000000000000000000000000000000000000000000000000000815260040160405180910390fd5b611672600f613174565b600061167e600f61318a565b905060405180604001604052808281526020018673ffffffffffffffffffffffffffffffffffffffff16815250600460008381526020019081526020016000206000820151816000015560208201518160010160006101000a81548173ffffffffffffffffffffffffffffffffffffffff021916908373ffffffffffffffffffffffffffffffffffffffff1602179055509050506014600460008381526020019081526020016000209080600181540180825580915050600190039060005260206000209060020201600090919091909150600082015481600001556001820160009054906101000a900473ffffffffffffffffffffffffffffffffffffffff168160010160006101000a81548173ffffffffffffffffffffffffffffffffffffffff021916908373ffffffffffffffffffffffffffffffffffffffff160217905550505080600760008773ffffffffffffffffffffffffffffffffffffffff1673ffffffffffffffffffffffffffffffffffffffff168152602001908152602001600020819055508473ffffffffffffffffffffffffffffffffffffffff16817fcea92dd21eac6a85990666fd027f09c3aaf3b50d47852d08aad7723627d1003360405160405180910390a35050505050565b6008602052816000526040600020818154811061186e57600080fd5b90600052602060002001600091509150505481565b816003600084815260200190815260200160002060000154146118db576040517f08c379a00000000000000000000000000000000000000000000000000000000081526004016118d29061479b565b60405180910390fd5b6000811161191e576040517f08c379a00000000000000000000000000000000000000000000000000000000081526004016119159061483b565b60405180910390fd5b611928600e613174565b6000611934600e61318a565b90506040518060c00160405280828152602001848152602001838152602001600081526020013373ffffffffffffffffffffffffffffffffffffffff1681526020016000600281111561198a57611989614ff3565b5b815250600260008381526020019081526020016000206000820151816000015560208201518160010155604082015181600201556060820151816003015560808201518160040160006101000a81548173ffffffffffffffffffffffffffffffffffffffff021916908373ffffffffffffffffffffffffffffffffffffffff16021790555060a082015181600501559050506013600260008381526020019081526020016000209080600181540180825580915050600190039060005260206000209060060201600090919091909150600082015481600001556001820154816001015560028201548160020155600382015481600301556004820160009054906101000a900473ffffffffffffffffffffffffffffffffffffffff168160040160006101000a81548173ffffffffffffffffffffffffffffffffffffffff021916908373ffffffffffffffffffffffffffffffffffffffff1602179055506005820154816005015550503373ffffffffffffffffffffffffffffffffffffffff16817fc1c3f2485d639ef2220518b3c443a54dcbadb9a574dcbcb6074946cb40fd72db858560006002811115611b4457611b43614ff3565b5b604051611b5393929190614a4a565b60405180910390a3505050565b60016020528060005260406000206000915090505481565b6000600b6000838152602001908152602001600020549050919050565b6005602052806000526040600020600091509050806000015490806001015490806002018054611bc490614eb8565b80601f0160208091040260200160405190810160405280929190818152602001828054611bf090614eb8565b8015611c3d5780601f10611c1257610100808354040283529160200191611c3d565b820191906000526020600020905b815481529060010190602001808311611c2057829003601f168201915b505050505090806003018054611c5290614eb8565b80601f0160208091040260200160405190810160405280929190818152602001828054611c7e90614eb8565b8015611ccb5780601f10611ca057610100808354040283529160200191611ccb565b820191906000526020600020905b815481529060010190602001808311611cae57829003601f168201915b5050505050908060040160009054906101000a900473ffffffffffffffffffffffffffffffffffffffff16905085565b611d03613198565b611d0d6000613216565b565b6003602052806000526040600020600091509050806000015490806001018054611d3890614eb8565b80601f0160208091040260200160405190810160405280929190818152602001828054611d6490614eb8565b8015611db15780601f10611d8657610100808354040283529160200191611db1565b820191906000526020600020905b815481529060010190602001808311611d9457829003601f168201915b505050505090806002018054611dc690614eb8565b80601f0160208091040260200160405190810160405280929190818152602001828054611df290614eb8565b8015611e3f5780601f10611e1457610100808354040283529160200191611e3f565b820191906000526020600020905b815481529060010190602001808311611e2257829003601f168201915b5050505050908060030160009054906101000a900473ffffffffffffffffffffffffffffffffffffffff16905084565b60026020528060005260406000206000915090508060000154908060010154908060020154908060030154908060040160009054906101000a900473ffffffffffffffffffffffffffffffffffffffff16908060050154905086565b6060611f0f6064600c6000868152602001908152602001600020600085815260200190815260200160002054611f019190614dac565b611f0a85611f17565b612e00565b905092915050565b6000600b600083815260200190815260200160002054600a600084815260200190815260200160002054611f4b9190614d25565b9050919050565b60008060009054906101000a900473ffffffffffffffffffffffffffffffffffffffff16905090565b600060606002600084815260200190815260200160002060020154611fb560026000868152602001908152602001600020600301546132da565b1161201857611fd960026000858152602001908152602001600020600301546132da565b6040518060400160405280601881526020017f566f74696e67207374696c6c20676f696e67206f6e2e2e2e000000000000000081525091509150612055565b60006040518060400160405280601481526020017f566f74696e672074696d6520657870697265642e000000000000000000000000815250915091505b915091565b83838080601f016020809104026020016040519081016040528093929190818152602001838380828437600081840152601f19601f820116905080830192505050505050506000601280549050905060005b8181101561217157826040516020016120c59190614594565b60405160208183030381529060405280519060200120601282815481106120ef576120ee615051565b5b906000526020600020906004020160010160405160200161211091906145fe565b60405160208183030381529060405280519060200120141561215e576040517ffbfa180100000000000000000000000000000000000000000000000000000000815260040160405180910390fd5b808061216990614f1b565b9150506120ac565b506000868690501415801561218a575060008484905014155b6121c9576040517f08c379a00000000000000000000000000000000000000000000000000000000081526004016121c09061477b565b60405180910390fd5b6121d3600d613174565b60006121df600d61318a565b9050604051806080016040528082815260200188888080601f016020809104026020016040519081016040528093929190818152602001838380828437600081840152601f19601f82011690508083019250505050505050815260200186868080601f016020809104026020016040519081016040528093929190818152602001838380828437600081840152601f19601f8201169050808301925050505050505081526020013373ffffffffffffffffffffffffffffffffffffffff16815250600360008381526020019081526020016000206000820151816000015560208201518160010190805190602001906122d99291906135a7565b5060408201518160020190805190602001906122f69291906135a7565b5060608201518160030160006101000a81548173ffffffffffffffffffffffffffffffffffffffff021916908373ffffffffffffffffffffffffffffffffffffffff160217905550905050601260036000838152602001908152602001600020908060018154018082558091505060019003906000526020600020906004020160009091909190915060008201548160000155600182018160010190805461239d90614eb8565b6123a892919061362d565b5060028201816002019080546123bd90614eb8565b6123c892919061362d565b506003820160009054906101000a900473ffffffffffffffffffffffffffffffffffffffff168160030160006101000a81548173ffffffffffffffffffffffffffffffffffffffff021916908373ffffffffffffffffffffffffffffffffffffffff16021790555050503373ffffffffffffffffffffffffffffffffffffffff16878760405161245992919061457b565b6040518091039020827fd8ee76a5e348e43e21cb4606e67f62e1cee452209c4ebcabe3004b674ccd232a60405160405180910390a450505050505050565b60606000600860008481526020019081526020016000208054806020026020016040519081016040528092919081815260200182805480156124f857602002820191906000526020600020905b8154815260200190600101908083116124e4575b5050505050905060006008600085815260200190815260200160002080549050905060008167ffffffffffffffff81111561253657612535615080565b5b60405190808252806020026020018201604052801561256f57816020015b61255c6136ba565b8152602001906001900390816125545790505b50905060005b8281101561272a57600084828151811061259257612591615051565b5b6020026020010151905060006125a88883612736565b905060006125b589611b78565b905060006125c38a85611ecb565b905060006125d08b610680565b90506040518061010001604052808c8152602001868152602001600560008c8a8151811061260157612600615051565b5b60200260200101518152602001908152602001600020600101548152602001600560008c8a8151811061263757612636615051565b5b60200260200101518152602001908152602001600020600201805461265b90614eb8565b80601f016020809104026020016040519081016040528092919081815260200182805461268790614eb8565b80156126d45780601f106126a9576101008083540402835291602001916126d4565b820191906000526020600020905b8154815290600101906020018083116126b757829003601f168201915b505050505081526020018581526020018481526020018381526020018281525087878151811061270757612706615051565b5b60200260200101819052505050505050808061272290614f1b565b915050612575565b50809350505050919050565b6000600c6000848152602001908152602001600020600083815260200190815260200160002054905092915050565b606061276f613198565b6016805480602002602001604051908101604052809291908181526020016000905b8282101561280957838290600052602060002090600702016040518060e001604052908160008201548152602001600182015481526020016002820154815260200160038201548152602001600482015481526020016005820154815260200160068201548152505081526020019060010190612791565b50505050905090565b60606014805480602002602001604051908101604052809291908181526020016000905b828210156128c85783829060005260206000209060020201604051806040016040529081600082015481526020016001820160009054906101000a900473ffffffffffffffffffffffffffffffffffffffff1673ffffffffffffffffffffffffffffffffffffffff1673ffffffffffffffffffffffffffffffffffffffff168152505081526020019060010190612836565b50505050905090565b806002808111156128e5576128e4614ff3565b5b60026000838152602001908152602001600020600501541415612934576040517f949384d300000000000000000000000000000000000000000000000000000000815260040160405180910390fd5b6001600281111561294857612947614ff3565b5b600260008481526020019081526020016000206005015414156129a0576040517f08c379a0000000000000000000000000000000000000000000000000000000008152600401612997906147fb565b60405180910390fd5b600160028111156129b4576129b3614ff3565b5b60136001846129c39190614e06565b815481106129d4576129d3615051565b5b90600052602060002090600602016005018190556002600084815260200190815260200160002060050181905550426013600184612a129190614e06565b81548110612a2357612a22615051565b5b9060005260206000209060060201600301819055504260026000848152602001908152602001600020600301819055505050565b606060086000838152602001908152602001600020805480602002602001604051908101604052809291908181526020018280548015612ab657602002820191906000526020600020905b815481526020019060010190808311612aa2575b50505050509050919050565b612aca613198565b600073ffffffffffffffffffffffffffffffffffffffff168173ffffffffffffffffffffffffffffffffffffffff161415612b3a576040517f08c379a0000000000000000000000000000000000000000000000000000000008152600401612b319061481b565b60405180910390fd5b612b4381613216565b50565b80600060148054905090506000805b82811015612bf2578373ffffffffffffffffffffffffffffffffffffffff1660148281548110612b8857612b87615051565b5b906000526020600020906002020160010160009054906101000a900473ffffffffffffffffffffffffffffffffffffffff1673ffffffffffffffffffffffffffffffffffffffff161415612bdf5760019150612bf2565b8080612bea90614f1b565b915050612b55565b508015612c2b576040517ff630824000000000000000000000000000000000000000000000000000000000815260040160405180910390fd5b6000600760008773ffffffffffffffffffffffffffffffffffffffff1673ffffffffffffffffffffffffffffffffffffffff16815260200190815260200160002054905060006001600083815260200190815260200160002054905060008110158015612c99575060028111155b612cd8576040517f08c379a0000000000000000000000000000000000000000000000000000000008152600401612ccf9061485b565b60405180910390fd5b856014600184612ce89190614e06565b81548110612cf957612cf8615051565b5b906000526020600020906002020160010160006101000a81548173ffffffffffffffffffffffffffffffffffffffff021916908373ffffffffffffffffffffffffffffffffffffffff16021790555081600760008873ffffffffffffffffffffffffffffffffffffffff1673ffffffffffffffffffffffffffffffffffffffff16815260200190815260200160002081905550600181612d999190614d25565b90508060016000848152602001908152602001600020819055508573ffffffffffffffffffffffffffffffffffffffff16827fd298ea02d554568c7f9acfd0221d68cb6c2a74a0b36431bd19b3be9f0151124c60405160405180910390a350505050505050565b606060006064905060008385612e169190614d7b565b9050600084858488612e289190614dac565b612e329190614f64565b6002612e3e9190614dac565b10159050600083868589612e529190614dac565b612e5c9190614d7b565b612e669190614f64565b90508115612e7e57600181612e7b9190614d25565b90505b612e87836132fb565b612e926002836133d3565b604051602001612ea39291906145cf565b60405160208183030381529060405294505050505092915050565b81600280811115612ed257612ed1614ff3565b5b60026000838152602001908152602001600020600501541415612f21576040517f949384d300000000000000000000000000000000000000000000000000000000815260040160405180910390fd5b60016002811115612f3557612f34614ff3565b5b60026000858152602001908152602001600020600501541415612f8d576040517f08c379a0000000000000000000000000000000000000000000000000000000008152600401612f84906147db565b60405180910390fd5b6000825111612fd1576040517f08c379a0000000000000000000000000000000000000000000000000000000008152600401612fc8906148db565b60405180910390fd5b60008251905060005b818110156130785760056000858381518110612ff957612ff8615051565b5b602002602001015181526020019081526020016000206000015484828151811061302657613025615051565b5b602002602001015114613065576040517f6fc1420700000000000000000000000000000000000000000000000000000000815260040160405180910390fd5b808061307090614f1b565b915050612fda565b50826008600086815260200190815260200160002090805190602001906130a09291906136ff565b507f6fab6e2a58a25aa36b5b13e656c745ab644a24062de00428a63ffb6d9b8dab2b84846040516130d2929190614936565b60405180910390a150505050565b600260008281526020019081526020016000206002015461311660026000848152602001908152602001600020600301546132da565b106131715760028081111561312e5761312d614ff3565b5b6013828154811061314257613141615051565b5b906000526020600020906006020160050181905560026000838152602001908152602001600020600501819055505b50565b6001816000016000828254019250508190555050565b600081600001549050919050565b6131a061344c565b73ffffffffffffffffffffffffffffffffffffffff166131be611f52565b73ffffffffffffffffffffffffffffffffffffffff1614613214576040517f08c379a000000000000000000000000000000000000000000000000000000000815260040161320b9061487b565b60405180910390fd5b565b60008060009054906101000a900473ffffffffffffffffffffffffffffffffffffffff169050816000806101000a81548173ffffffffffffffffffffffffffffffffffffffff021916908373ffffffffffffffffffffffffffffffffffffffff1602179055508173ffffffffffffffffffffffffffffffffffffffff168173ffffffffffffffffffffffffffffffffffffffff167f8be0079c531659141344cd1fd0a4f28419497f9722a3daafe3b4186f6b6457e060405160405180910390a35050565b6000603c82426132ea9190614e06565b6132f49190614d7b565b9050919050565b60606000600161330a84613454565b01905060008167ffffffffffffffff81111561332957613328615080565b5b6040519080825280601f01601f19166020018201604052801561335b5781602001600182028036833780820191505090505b509050600082602001820190505b6001156133c8578080600190039150507f3031323334353637383961626364656600000000000000000000000000000000600a86061a8153600a85816133b2576133b1614fc4565b5b04945060008514156133c3576133c8565b613369565b819350505050919050565b60608060005b84811015613441576000600a856133f09190614f64565b90506133fb816132fb565b8360405160200161340d9291906145ab565b6040516020818303038152906040529250600a8561342b9190614d7b565b945050808061343990614f1b565b9150506133d9565b508091505092915050565b600033905090565b600080600090507a184f03e93ff9f4daa797ed6e38ed64bf6a1f01000000000000000083106134b2577a184f03e93ff9f4daa797ed6e38ed64bf6a1f01000000000000000083816134a8576134a7614fc4565b5b0492506040810190505b6d04ee2d6d415b85acef810000000083106134ef576d04ee2d6d415b85acef810000000083816134e5576134e4614fc4565b5b0492506020810190505b662386f26fc10000831061351e57662386f26fc10000838161351457613513614fc4565b5b0492506010810190505b6305f5e1008310613547576305f5e100838161353d5761353c614fc4565b5b0492506008810190505b612710831061356c57612710838161356257613561614fc4565b5b0492506004810190505b6064831061358f576064838161358557613584614fc4565b5b0492506002810190505b600a831061359e576001810190505b80915050919050565b8280546135b390614eb8565b90600052602060002090601f0160209004810192826135d5576000855561361c565b82601f106135ee57805160ff191683800117855561361c565b8280016001018555821561361c579182015b8281111561361b578251825591602001919060010190613600565b5b509050613629919061374c565b5090565b82805461363990614eb8565b90600052602060002090601f01602090048101928261365b57600085556136a9565b82601f1061366c57805485556136a9565b828001600101855582156136a957600052602060002091601f016020900482015b828111156136a857825482559160010191906001019061368d565b5b5090506136b6919061374c565b5090565b60405180610100016040528060008152602001600081526020016000815260200160608152602001600081526020016000815260200160608152602001606081525090565b82805482825590600052602060002090810192821561373b579160200282015b8281111561373a57825182559160200191906001019061371f565b5b509050613748919061374c565b5090565b5b8082111561376557600081600090555060010161374d565b5090565b600061377c61377784614b07565b614ae2565b9050808382526020820190508285602086028201111561379f5761379e6150b9565b5b60005b858110156137cf57816137b58882613872565b8452602084019350602083019250506001810190506137a2565b5050509392505050565b6000813590506137e8816153fb565b92915050565b600082601f830112613803576138026150b4565b5b8135613813848260208601613769565b91505092915050565b60008083601f840112613832576138316150b4565b5b8235905067ffffffffffffffff81111561384f5761384e6150af565b5b60208301915083600182028301111561386b5761386a6150b9565b5b9250929050565b60008135905061388181615412565b92915050565b60006020828403121561389d5761389c6150c3565b5b60006138ab848285016137d9565b91505092915050565b600080604083850312156138cb576138ca6150c3565b5b60006138d9858286016137d9565b92505060206138ea858286016137d9565b9150509250929050565b6000806000806040858703121561390e5761390d6150c3565b5b600085013567ffffffffffffffff81111561392c5761392b6150be565b5b6139388782880161381c565b9450945050602085013567ffffffffffffffff81111561395b5761395a6150be565b5b6139678782880161381c565b925092505092959194509250565b60006020828403121561398b5761398a6150c3565b5b600061399984828501613872565b91505092915050565b600080604083850312156139b9576139b86150c3565b5b60006139c785828601613872565b925050602083013567ffffffffffffffff8111156139e8576139e76150be565b5b6139f4858286016137ee565b9150509250929050565b600080600080600060608688031215613a1a57613a196150c3565b5b6000613a2888828901613872565b955050602086013567ffffffffffffffff811115613a4957613a486150be565b5b613a558882890161381c565b9450945050604086013567ffffffffffffffff811115613a7857613a776150be565b5b613a848882890161381c565b92509250509295509295909350565b60008060408385031215613aaa57613aa96150c3565b5b6000613ab885828601613872565b9250506020613ac985828601613872565b9150509250929050565b60008060008060008060c08789031215613af057613aef6150c3565b5b6000613afe89828a01613872565b9650506020613b0f89828a01613872565b9550506040613b2089828a01613872565b9450506060613b3189828a01613872565b9350506080613b4289828a01613872565b92505060a0613b5389828a01613872565b9150509295509295509295565b6000613b6c8383614280565b60e08301905092915050565b6000613b84838361430e565b905092915050565b6000613b98838361438b565b905092915050565b6000613bac8383614449565b905092915050565b6000613bc083836144b3565b60c08301905092915050565b6000613bd8838361452e565b60408301905092915050565b6000613bf0838361455d565b60208301905092915050565b613c0581614e3a565b82525050565b613c1481614e3a565b82525050565b6000613c2582614bb8565b613c2f8185614c76565b9350613c3a83614b33565b8060005b83811015613c6b578151613c528882613b60565b9750613c5d83614c1b565b925050600181019050613c3e565b5085935050505092915050565b6000613c8382614bc3565b613c8d8185614c87565b935083602082028501613c9f85614b43565b8060005b85811015613cdb5784840389528151613cbc8582613b78565b9450613cc783614c28565b925060208a01995050600181019050613ca3565b50829750879550505050505092915050565b6000613cf882614bce565b613d028185614c98565b935083602082028501613d1485614b53565b8060005b85811015613d505784840389528151613d318582613b8c565b9450613d3c83614c35565b925060208a01995050600181019050613d18565b50829750879550505050505092915050565b6000613d6d82614bd9565b613d778185614ca9565b935083602082028501613d8985614b63565b8060005b85811015613dc55784840389528151613da68582613ba0565b9450613db183614c42565b925060208a01995050600181019050613d8d565b50829750879550505050505092915050565b6000613de282614be4565b613dec8185614cba565b9350613df783614b73565b8060005b83811015613e28578151613e0f8882613bb4565b9750613e1a83614c4f565b925050600181019050613dfb565b5085935050505092915050565b6000613e4082614bef565b613e4a8185614ccb565b9350613e5583614b83565b8060005b83811015613e86578151613e6d8882613bcc565b9750613e7883614c5c565b925050600181019050613e59565b5085935050505092915050565b6000613e9e82614bfa565b613ea88185614cdc565b9350613eb383614b93565b8060005b83811015613ee4578151613ecb8882613be4565b9750613ed683614c69565b925050600181019050613eb7565b5085935050505092915050565b6000613efc82614c05565b613f068185614ced565b9350613f16818560208601614e85565b80840191505092915050565b6000613f2e8385614d09565b9350613f3b838584614e76565b613f44836150c8565b840190509392505050565b6000613f5b8385614d1a565b9350613f68838584614e76565b82840190509392505050565b6000613f7f82614c10565b613f898185614cf8565b9350613f99818560208601614e85565b613fa2816150c8565b840191505092915050565b6000613fb882614c10565b613fc28185614d09565b9350613fd2818560208601614e85565b613fdb816150c8565b840191505092915050565b6000613ff182614c10565b613ffb8185614d1a565b935061400b818560208601614e85565b80840191505092915050565b6000815461402481614eb8565b61402e8186614d1a565b94506001821660008114614049576001811461405a5761408d565b60ff1983168652818601935061408d565b61406385614ba3565b60005b8381101561408557815481890152600182019150602081019050614066565b838801955050505b50505092915050565b60006140a3603183614d09565b91506140ae826150d9565b604082019050919050565b60006140c6601583614d09565b91506140d182615128565b602082019050919050565b60006140e9601783614d09565b91506140f482615151565b602082019050919050565b600061410c602583614d09565b91506141178261517a565b604082019050919050565b600061412f602483614d09565b915061413a826151c9565b604082019050919050565b6000614152602683614d09565b915061415d82615218565b604082019050919050565b6000614175601783614d09565b915061418082615267565b602082019050919050565b6000614198601b83614d09565b91506141a382615290565b602082019050919050565b60006141bb600183614d1a565b91506141c6826152b9565b600182019050919050565b60006141de602083614d09565b91506141e9826152e2565b602082019050919050565b6000614201601e83614d09565b915061420c8261530b565b602082019050919050565b6000614224602183614d09565b915061422f82615334565b604082019050919050565b6000614247601383614d09565b915061425282615383565b602082019050919050565b600061426a603183614d09565b9150614275826153ac565b604082019050919050565b60e082016000820151614296600085018261455d565b5060208201516142a9602085018261455d565b5060408201516142bc604085018261455d565b5060608201516142cf606085018261455d565b5060808201516142e2608085018261455d565b5060a08201516142f560a085018261455d565b5060c082015161430860c085018261455d565b50505050565b600060a083016000830151614326600086018261455d565b506020830151614339602086018261455d565b50604083015184820360408601526143518282613f74565b9150506060830151848203606086015261436b8282613f74565b91505060808301516143806080860182613bfc565b508091505092915050565b6000610100830160008301516143a4600086018261455d565b5060208301516143b7602086018261455d565b5060408301516143ca604086018261455d565b50606083015184820360608601526143e28282613f74565b91505060808301516143f7608086018261455d565b5060a083015161440a60a086018261455d565b5060c083015184820360c08601526144228282613f74565b91505060e083015184820360e086015261443c8282613f74565b9150508091505092915050565b6000608083016000830151614461600086018261455d565b50602083015184820360208601526144798282613f74565b915050604083015184820360408601526144938282613f74565b91505060608301516144a86060860182613bfc565b508091505092915050565b60c0820160008201516144c9600085018261455d565b5060208201516144dc602085018261455d565b5060408201516144ef604085018261455d565b506060820151614502606085018261455d565b5060808201516145156080850182613bfc565b5060a082015161452860a085018261455d565b50505050565b604082016000820151614544600085018261455d565b5060208201516145576020850182613bfc565b50505050565b61456681614e6c565b82525050565b61457581614e6c565b82525050565b6000614588828486613f4f565b91508190509392505050565b60006145a08284613fe6565b915081905092915050565b60006145b78285613fe6565b91506145c38284613ef1565b91508190509392505050565b60006145db8285613fe6565b91506145e6826141ae565b91506145f28284613fe6565b91508190509392505050565b600061460a8284614017565b915081905092915050565b600060208201905061462a6000830184613c0b565b92915050565b6000602082019050818103600083015261464a8184613c1a565b905092915050565b6000602082019050818103600083015261466c8184613c78565b905092915050565b6000602082019050818103600083015261468e8184613ced565b905092915050565b600060208201905081810360008301526146b08184613d62565b905092915050565b600060208201905081810360008301526146d28184613dd7565b905092915050565b600060208201905081810360008301526146f48184613e35565b905092915050565b600060208201905081810360008301526147168184613e93565b905092915050565b60006040820190508181036000830152614739818688613f22565b9050818103602083015261474e818486613f22565b905095945050505050565b600060208201905081810360008301526147738184613fad565b905092915050565b6000602082019050818103600083015261479481614096565b9050919050565b600060208201905081810360008301526147b4816140b9565b9050919050565b600060208201905081810360008301526147d4816140dc565b9050919050565b600060208201905081810360008301526147f4816140ff565b9050919050565b6000602082019050818103600083015261481481614122565b9050919050565b6000602082019050818103600083015261483481614145565b9050919050565b6000602082019050818103600083015261485481614168565b9050919050565b600060208201905081810360008301526148748161418b565b9050919050565b60006020820190508181036000830152614894816141d1565b9050919050565b600060208201905081810360008301526148b4816141f4565b9050919050565b600060208201905081810360008301526148d481614217565b9050919050565b600060208201905081810360008301526148f48161423a565b9050919050565b600060208201905081810360008301526149148161425d565b9050919050565b6000602082019050614930600083018461456c565b92915050565b600060408201905061494b600083018561456c565b818103602083015261495d8184613e93565b90509392505050565b600060408201905061497b600083018561456c565b818103602083015261498d8184613fad565b90509392505050565b60006080820190506149ab600083018761456c565b81810360208301526149bd8186613fad565b905081810360408301526149d18185613fad565b90506149e06060830184613c0b565b95945050505050565b600060a0820190506149fe600083018861456c565b614a0b602083018761456c565b8181036040830152614a1d8186613fad565b90508181036060830152614a318185613fad565b9050614a406080830184613c0b565b9695505050505050565b6000606082019050614a5f600083018661456c565b614a6c602083018561456c565b614a79604083018461456c565b949350505050565b600060c082019050614a96600083018961456c565b614aa3602083018861456c565b614ab0604083018761456c565b614abd606083018661456c565b614aca6080830185613c0b565b614ad760a083018461456c565b979650505050505050565b6000614aec614afd565b9050614af88282614eea565b919050565b6000604051905090565b600067ffffffffffffffff821115614b2257614b21615080565b5b602082029050602081019050919050565b6000819050602082019050919050565b6000819050602082019050919050565b6000819050602082019050919050565b6000819050602082019050919050565b6000819050602082019050919050565b6000819050602082019050919050565b6000819050602082019050919050565b60008190508160005260206000209050919050565b600081519050919050565b600081519050919050565b600081519050919050565b600081519050919050565b600081519050919050565b600081519050919050565b600081519050919050565b600081519050919050565b600081519050919050565b6000602082019050919050565b6000602082019050919050565b6000602082019050919050565b6000602082019050919050565b6000602082019050919050565b6000602082019050919050565b6000602082019050919050565b600082825260208201905092915050565b600082825260208201905092915050565b600082825260208201905092915050565b600082825260208201905092915050565b600082825260208201905092915050565b600082825260208201905092915050565b600082825260208201905092915050565b600081905092915050565b600082825260208201905092915050565b600082825260208201905092915050565b600081905092915050565b6000614d3082614e6c565b9150614d3b83614e6c565b9250827fffffffffffffffffffffffffffffffffffffffffffffffffffffffffffffffff03821115614d7057614d6f614f95565b5b828201905092915050565b6000614d8682614e6c565b9150614d9183614e6c565b925082614da157614da0614fc4565b5b828204905092915050565b6000614db782614e6c565b9150614dc283614e6c565b9250817fffffffffffffffffffffffffffffffffffffffffffffffffffffffffffffffff0483118215151615614dfb57614dfa614f95565b5b828202905092915050565b6000614e1182614e6c565b9150614e1c83614e6c565b925082821015614e2f57614e2e614f95565b5b828203905092915050565b6000614e4582614e4c565b9050919050565b600073ffffffffffffffffffffffffffffffffffffffff82169050919050565b6000819050919050565b82818337600083830152505050565b60005b83811015614ea3578082015181840152602081019050614e88565b83811115614eb2576000848401525b50505050565b60006002820490506001821680614ed057607f821691505b60208210811415614ee457614ee3615022565b5b50919050565b614ef3826150c8565b810181811067ffffffffffffffff82111715614f1257614f11615080565b5b80604052505050565b6000614f2682614e6c565b91507fffffffffffffffffffffffffffffffffffffffffffffffffffffffffffffffff821415614f5957614f58614f95565b5b600182019050919050565b6000614f6f82614e6c565b9150614f7a83614e6c565b925082614f8a57614f89614fc4565b5b828206905092915050565b7f4e487b7100000000000000000000000000000000000000000000000000000000600052601160045260246000fd5b7f4e487b7100000000000000000000000000000000000000000000000000000000600052601260045260246000fd5b7f4e487b7100000000000000000000000000000000000000000000000000000000600052602160045260246000fd5b7f4e487b7100000000000000000000000000000000000000000000000000000000600052602260045260246000fd5b7f4e487b7100000000000000000000000000000000000000000000000000000000600052603260045260246000fd5b7f4e487b7100000000000000000000000000000000000000000000000000000000600052604160045260246000fd5b600080fd5b600080fd5b600080fd5b600080fd5b600080fd5b6000601f19601f8301169050919050565b7f506c656173652070726f766964652076616c69642064657369676e6174696f6e60008201527f20616e64206465736372697074696f6e2e000000000000000000000000000000602082015250565b7f496e76616c696420766f746520747970652049442e0000000000000000000000600082015250565b7f54686520766f746572206973206e6f7420666f756e642e000000000000000000600082015250565b7f4e6f7420617661696c61626c65206f6e636520766f746520697320616374697660008201527f617465642e000000000000000000000000000000000000000000000000000000602082015250565b7f566f746520616c726561647920616374697661746564206f72206e6f7420766160008201527f6c69642e00000000000000000000000000000000000000000000000000000000602082015250565b7f4f776e61626c653a206e6577206f776e657220697320746865207a65726f206160008201527f6464726573730000000000000000000000000000000000000000000000000000602082015250565b7f496e76616c696420766f74696e6720706572696f64652e000000000000000000600082015250565b7f55706461746520726573747269637420746f20332074696d65732e0000000000600082015250565b7f2e00000000000000000000000000000000000000000000000000000000000000600082015250565b7f4f776e61626c653a2063616c6c6572206973206e6f7420746865206f776e6572600082015250565b7f54686520766f7465206973206e6f7420796574206163746976617465642e0000600082015250565b7f496e76616c69642066756c6c206e616d65206f7220706963747572652055524960008201527f2e00000000000000000000000000000000000000000000000000000000000000602082015250565b7f496e76616c69642063616e646964617465732e00000000000000000000000000600082015250565b7f496e76616c696420766f746572207374617475733a205573652031203d20766f60008201527f746564206f722032203d20626c616e6b2e000000000000000000000000000000602082015250565b61540481614e3a565b811461540f57600080fd5b50565b61541b81614e6c565b811461542657600080fd5b5056fea264697066735822122058250af1adac4573d1cfea8e23361b52e98a1b899c4038d4e276b35c846695dc64736f6c63430008060033",
  "linkReferences": {},
  "deployedLinkReferences": {}
}