{
  "_format": "hh-sol-artifact-1",
  "contractName": "Voting",
  "sourceName": "contracts/Voting.sol",
  "abi": [
    {
      "inputs": [],
      "name": "CandidateNotFound",
      "type": "error"
    },
    {
      "inputs": [],
      "name": "CandidateNotYetRegisterForThisVote",
      "type": "error"
    },
    {
      "inputs": [],
      "name": "CandidatePictureUriAlreadyExist",
      "type": "error"
    },
    {
      "inputs": [],
      "name": "VoteAlreadyClosed",
      "type": "error"
    },
    {
      "inputs": [],
      "name": "VoteTypeAlreadyExist",
      "type": "error"
    },
    {
      "inputs": [],
      "name": "VoterAddressAlreadyExist",
      "type": "error"
    },
    {
      "inputs": [],
      "name": "VoterHasAlreadyCastVote",
      "type": "error"
    },
    {
      "anonymous": false,
      "inputs": [
        {
          "indexed": true,
          "internalType": "uint256",
          "name": "ballotBoxId",
          "type": "uint256"
        },
        {
          "indexed": false,
          "internalType": "uint256",
          "name": "voteId",
          "type": "uint256"
        },
        {
          "indexed": true,
          "internalType": "uint256",
          "name": "candidateId",
          "type": "uint256"
        },
        {
          "indexed": true,
          "internalType": "address",
          "name": "voterAddress",
          "type": "address"
        },
        {
          "indexed": false,
          "internalType": "uint256",
          "name": "votingOfficeId",
          "type": "uint256"
        },
        {
          "indexed": false,
          "internalType": "uint256",
          "name": "voterVoteStatus",
          "type": "uint256"
        }
      ],
      "name": "CastedVote",
      "type": "event"
    },
    {
      "anonymous": false,
      "inputs": [
        {
          "indexed": true,
          "internalType": "uint256",
          "name": "candidateId",
          "type": "uint256"
        },
        {
          "indexed": true,
          "internalType": "uint256",
          "name": "orderNumber",
          "type": "uint256"
        },
        {
          "indexed": false,
          "internalType": "string",
          "name": "fullName",
          "type": "string"
        },
        {
          "indexed": false,
          "internalType": "string",
          "name": "pictureURI",
          "type": "string"
        },
        {
          "indexed": true,
          "internalType": "address",
          "name": "user",
          "type": "address"
        }
      ],
      "name": "NewCandidate",
      "type": "event"
    },
    {
      "anonymous": false,
      "inputs": [
        {
          "indexed": true,
          "internalType": "uint256",
          "name": "voteId",
          "type": "uint256"
        },
        {
          "indexed": false,
          "internalType": "uint256",
          "name": "voteTypeId",
          "type": "uint256"
        },
        {
          "indexed": false,
          "internalType": "uint256",
          "name": "timeDuration",
          "type": "uint256"
        },
        {
          "indexed": true,
          "internalType": "address",
          "name": "user",
          "type": "address"
        },
        {
          "indexed": false,
          "internalType": "uint256",
          "name": "status",
          "type": "uint256"
        }
      ],
      "name": "NewVote",
      "type": "event"
    },
    {
      "anonymous": false,
      "inputs": [
        {
          "indexed": true,
          "internalType": "uint256",
          "name": "voteTypeId",
          "type": "uint256"
        },
        {
          "indexed": true,
          "internalType": "string",
          "name": "designation",
          "type": "string"
        },
        {
          "indexed": true,
          "internalType": "address",
          "name": "user",
          "type": "address"
        }
      ],
      "name": "NewVoteType",
      "type": "event"
    },
    {
      "anonymous": false,
      "inputs": [
        {
          "indexed": true,
          "internalType": "uint256",
          "name": "voterId",
          "type": "uint256"
        },
        {
          "indexed": true,
          "internalType": "address",
          "name": "voter",
          "type": "address"
        }
      ],
      "name": "NewVoter",
      "type": "event"
    },
    {
      "anonymous": false,
      "inputs": [
        {
          "indexed": true,
          "internalType": "address",
          "name": "previousOwner",
          "type": "address"
        },
        {
          "indexed": true,
          "internalType": "address",
          "name": "newOwner",
          "type": "address"
        }
      ],
      "name": "OwnershipTransferred",
      "type": "event"
    },
    {
      "anonymous": false,
      "inputs": [
        {
          "indexed": false,
          "internalType": "uint256",
          "name": "voteId",
          "type": "uint256"
        },
        {
          "indexed": false,
          "internalType": "uint256[]",
          "name": "candidateIds",
          "type": "uint256[]"
        }
      ],
      "name": "RegisterCandidateForVote",
      "type": "event"
    },
    {
      "anonymous": false,
      "inputs": [
        {
          "indexed": true,
          "internalType": "uint256",
          "name": "voterId",
          "type": "uint256"
        },
        {
          "indexed": true,
          "internalType": "address",
          "name": "voter",
          "type": "address"
        }
      ],
      "name": "UpdateVoter",
      "type": "event"
    },
    {
      "anonymous": false,
      "inputs": [
        {
          "indexed": true,
          "internalType": "uint256",
          "name": "witnessId",
          "type": "uint256"
        },
        {
          "indexed": true,
          "internalType": "string",
          "name": "fullname",
          "type": "string"
        },
        {
          "indexed": true,
          "internalType": "string",
          "name": "organization",
          "type": "string"
        },
        {
          "indexed": false,
          "internalType": "address",
          "name": "user",
          "type": "address"
        }
      ],
      "name": "UpdateWitness",
      "type": "event"
    },
    {
      "inputs": [
        {
          "internalType": "uint256",
          "name": "_voteId",
          "type": "uint256"
        }
      ],
      "name": "activateVote",
      "outputs": [],
      "stateMutability": "nonpayable",
      "type": "function"
    },
    {
      "inputs": [
        {
          "internalType": "uint256",
          "name": "",
          "type": "uint256"
        }
      ],
      "name": "candidateInfo",
      "outputs": [
        {
          "internalType": "uint256",
          "name": "id",
          "type": "uint256"
        },
        {
          "internalType": "uint256",
          "name": "orderNumber",
          "type": "uint256"
        },
        {
          "internalType": "string",
          "name": "fullname",
          "type": "string"
        },
        {
          "internalType": "string",
          "name": "pictureURI",
          "type": "string"
        },
        {
          "internalType": "address",
          "name": "user",
          "type": "address"
        }
      ],
      "stateMutability": "view",
      "type": "function"
    },
    {
      "inputs": [
        {
          "internalType": "uint256",
          "name": "_voteId",
          "type": "uint256"
        },
        {
          "internalType": "uint256",
          "name": "_voteTypeId",
          "type": "uint256"
        },
        {
          "internalType": "uint256",
          "name": "_votingOfficeId",
          "type": "uint256"
        },
        {
          "internalType": "uint256",
          "name": "_candidateId",
          "type": "uint256"
        },
        {
          "internalType": "uint256",
          "name": "_voterId",
          "type": "uint256"
        },
        {
          "internalType": "uint256",
          "name": "_voterStatus",
          "type": "uint256"
        }
      ],
      "name": "castVote",
      "outputs": [],
      "stateMutability": "nonpayable",
      "type": "function"
    },
    {
      "inputs": [],
      "name": "getBallotBoxes",
      "outputs": [
        {
          "components": [
            {
              "internalType": "uint256",
              "name": "id",
              "type": "uint256"
            },
            {
              "internalType": "uint256",
              "name": "voteId",
              "type": "uint256"
            },
            {
              "internalType": "uint256",
              "name": "voteTypeId",
              "type": "uint256"
            },
            {
              "internalType": "uint256",
              "name": "votingOfficeId",
              "type": "uint256"
            },
            {
              "internalType": "uint256",
              "name": "candidateId",
              "type": "uint256"
            },
            {
              "internalType": "uint256",
              "name": "voterId",
              "type": "uint256"
            },
            {
              "internalType": "uint256",
              "name": "voterVoteStatus",
              "type": "uint256"
            }
          ],
          "internalType": "struct Voting.BallotBox[]",
          "name": "",
          "type": "tuple[]"
        }
      ],
      "stateMutability": "view",
      "type": "function"
    },
    {
      "inputs": [
        {
          "internalType": "uint256",
          "name": "_voteId",
          "type": "uint256"
        }
      ],
      "name": "getBlankPercentageVoteCast",
      "outputs": [
        {
          "internalType": "uint256",
          "name": "",
          "type": "uint256"
        }
      ],
      "stateMutability": "view",
      "type": "function"
    },
    {
      "inputs": [
        {
          "internalType": "uint256",
          "name": "_voteId",
          "type": "uint256"
        },
        {
          "internalType": "uint256",
          "name": "_candidateId",
          "type": "uint256"
        }
      ],
      "name": "getCandidatePercentageVoteCast",
      "outputs": [
        {
          "internalType": "uint256",
          "name": "",
          "type": "uint256"
        }
      ],
      "stateMutability": "view",
      "type": "function"
    },
    {
      "inputs": [
        {
          "internalType": "uint256",
          "name": "_voteId",
          "type": "uint256"
        },
        {
          "internalType": "uint256",
          "name": "_candidateId",
          "type": "uint256"
        }
      ],
      "name": "getCandidateVoteCast",
      "outputs": [
        {
          "internalType": "uint256",
          "name": "",
          "type": "uint256"
        }
      ],
      "stateMutability": "view",
      "type": "function"
    },
    {
      "inputs": [],
      "name": "getCandidates",
      "outputs": [
        {
          "components": [
            {
              "internalType": "uint256",
              "name": "id",
              "type": "uint256"
            },
            {
              "internalType": "uint256",
              "name": "orderNumber",
              "type": "uint256"
            },
            {
              "internalType": "string",
              "name": "fullname",
              "type": "string"
            },
            {
              "internalType": "string",
              "name": "pictureURI",
              "type": "string"
            },
            {
              "internalType": "address",
              "name": "user",
              "type": "address"
            }
          ],
          "internalType": "struct Voting.Candidate[]",
          "name": "",
          "type": "tuple[]"
        }
      ],
      "stateMutability": "view",
      "type": "function"
    },
    {
      "inputs": [
        {
          "internalType": "uint256",
          "name": "voteId",
          "type": "uint256"
        }
      ],
      "name": "getRegisterCandidateForVote",
      "outputs": [
        {
          "internalType": "uint256[]",
          "name": "",
          "type": "uint256[]"
        }
      ],
      "stateMutability": "view",
      "type": "function"
    },
    {
      "inputs": [
        {
          "internalType": "uint256",
          "name": "_voteId",
          "type": "uint256"
        }
      ],
      "name": "getTotalBlankVotingVoteCast",
      "outputs": [
        {
          "internalType": "uint256",
          "name": "",
          "type": "uint256"
        }
      ],
      "stateMutability": "view",
      "type": "function"
    },
    {
      "inputs": [
        {
          "internalType": "uint256",
          "name": "_voteId",
          "type": "uint256"
        }
      ],
      "name": "getTotalVotingVoteCast",
      "outputs": [
        {
          "internalType": "uint256",
          "name": "",
          "type": "uint256"
        }
      ],
      "stateMutability": "view",
      "type": "function"
    },
    {
      "inputs": [
        {
          "internalType": "uint256",
          "name": "_voteId",
          "type": "uint256"
        }
      ],
      "name": "getVoteResults",
      "outputs": [
        {
          "components": [
            {
              "internalType": "uint256",
              "name": "voteId",
              "type": "uint256"
            },
            {
              "internalType": "uint256",
              "name": "candidateId",
              "type": "uint256"
            },
            {
              "internalType": "uint256",
              "name": "candidateNumber",
              "type": "uint256"
            },
            {
              "internalType": "string",
              "name": "candidateFullName",
              "type": "string"
            },
            {
              "internalType": "uint256",
              "name": "votesCast",
              "type": "uint256"
            },
            {
              "internalType": "uint256",
              "name": "votesBlank",
              "type": "uint256"
            },
            {
              "internalType": "uint256",
              "name": "candidatePercentage",
              "type": "uint256"
            },
            {
              "internalType": "uint256",
              "name": "blankPercentage",
              "type": "uint256"
            }
          ],
          "internalType": "struct Voting.VoteResults[]",
          "name": "",
          "type": "tuple[]"
        }
      ],
      "stateMutability": "view",
      "type": "function"
    },
    {
      "inputs": [
        {
          "internalType": "uint256",
          "name": "_voteId",
          "type": "uint256"
        }
      ],
      "name": "getVoteStatus",
      "outputs": [
        {
          "internalType": "uint256",
          "name": "",
          "type": "uint256"
        }
      ],
      "stateMutability": "view",
      "type": "function"
    },
    {
      "inputs": [],
      "name": "getVoteTypes",
      "outputs": [
        {
          "components": [
            {
              "internalType": "uint256",
              "name": "id",
              "type": "uint256"
            },
            {
              "internalType": "string",
              "name": "designation",
              "type": "string"
            },
            {
              "internalType": "string",
              "name": "description",
              "type": "string"
            },
            {
              "internalType": "address",
              "name": "user",
              "type": "address"
            }
          ],
          "internalType": "struct Voting.VoteType[]",
          "name": "",
          "type": "tuple[]"
        }
      ],
      "stateMutability": "view",
      "type": "function"
    },
    {
      "inputs": [],
      "name": "getVoters",
      "outputs": [
        {
          "components": [
            {
              "internalType": "uint256",
              "name": "id",
              "type": "uint256"
            },
            {
              "internalType": "address",
              "name": "voter",
              "type": "address"
            }
          ],
          "internalType": "struct Voting.Voter[]",
          "name": "",
          "type": "tuple[]"
        }
      ],
      "stateMutability": "view",
      "type": "function"
    },
    {
      "inputs": [],
      "name": "getVotes",
      "outputs": [
        {
          "components": [
            {
              "internalType": "uint256",
              "name": "id",
              "type": "uint256"
            },
            {
              "internalType": "uint256",
              "name": "voteTypeId",
              "type": "uint256"
            },
            {
              "internalType": "uint256",
              "name": "timeDuration",
              "type": "uint256"
            },
            {
              "internalType": "uint256",
              "name": "initialVotingTimestamp",
              "type": "uint256"
            },
            {
              "internalType": "address",
              "name": "user",
              "type": "address"
            },
            {
              "internalType": "uint256",
              "name": "status",
              "type": "uint256"
            }
          ],
          "internalType": "struct Voting.Vote[]",
          "name": "",
          "type": "tuple[]"
        }
      ],
      "stateMutability": "view",
      "type": "function"
    },
    {
      "inputs": [
        {
          "internalType": "uint256",
          "name": "_voteId",
          "type": "uint256"
        }
      ],
      "name": "getVotingTimeElapse",
      "outputs": [
        {
          "internalType": "uint256",
          "name": "",
          "type": "uint256"
        },
        {
          "internalType": "string",
          "name": "",
          "type": "string"
        }
      ],
      "stateMutability": "view",
      "type": "function"
    },
    {
      "inputs": [
        {
          "internalType": "uint256",
          "name": "",
          "type": "uint256"
        }
      ],
      "name": "numberOfAllowedUpdatingVoterAddress",
      "outputs": [
        {
          "internalType": "uint256",
          "name": "",
          "type": "uint256"
        }
      ],
      "stateMutability": "view",
      "type": "function"
    },
    {
      "inputs": [],
      "name": "owner",
      "outputs": [
        {
          "internalType": "address",
          "name": "",
          "type": "address"
        }
      ],
      "stateMutability": "view",
      "type": "function"
    },
    {
      "inputs": [
        {
          "internalType": "uint256",
          "name": "_voteId",
          "type": "uint256"
        },
        {
          "internalType": "uint256[]",
          "name": "_arrCandidateIds",
          "type": "uint256[]"
        }
      ],
      "name": "registerCandidateForVote",
      "outputs": [],
      "stateMutability": "nonpayable",
      "type": "function"
    },
    {
      "inputs": [],
      "name": "renounceOwnership",
      "outputs": [],
      "stateMutability": "nonpayable",
      "type": "function"
    },
    {
      "inputs": [
        {
          "internalType": "uint256",
          "name": "_orderNumber",
          "type": "uint256"
        },
        {
          "internalType": "string",
          "name": "_fullName",
          "type": "string"
        },
        {
          "internalType": "string",
          "name": "_pictureURI",
          "type": "string"
        }
      ],
      "name": "setCandidate",
      "outputs": [],
      "stateMutability": "nonpayable",
      "type": "function"
    },
    {
      "inputs": [
        {
          "internalType": "uint256",
          "name": "_voteTypeId",
          "type": "uint256"
        },
        {
          "internalType": "uint256",
          "name": "_timeDuration",
          "type": "uint256"
        }
      ],
      "name": "setVote",
      "outputs": [],
      "stateMutability": "nonpayable",
      "type": "function"
    },
    {
      "inputs": [
        {
          "internalType": "string",
          "name": "_designation",
          "type": "string"
        },
        {
          "internalType": "string",
          "name": "_description",
          "type": "string"
        }
      ],
      "name": "setVoteType",
      "outputs": [],
      "stateMutability": "nonpayable",
      "type": "function"
    },
    {
      "inputs": [
        {
          "internalType": "address",
          "name": "_voterAddress",
          "type": "address"
        }
      ],
      "name": "setVoter",
      "outputs": [],
      "stateMutability": "nonpayable",
      "type": "function"
    },
    {
      "inputs": [
        {
          "internalType": "address",
          "name": "newOwner",
          "type": "address"
        }
      ],
      "name": "transferOwnership",
      "outputs": [],
      "stateMutability": "nonpayable",
      "type": "function"
    },
    {
      "inputs": [
        {
          "internalType": "address",
          "name": "_oldVoterAddress",
          "type": "address"
        },
        {
          "internalType": "address",
          "name": "_newVoterAddress",
          "type": "address"
        }
      ],
      "name": "updateVoter",
      "outputs": [],
      "stateMutability": "nonpayable",
      "type": "function"
    },
    {
      "inputs": [
        {
          "internalType": "uint256",
          "name": "",
          "type": "uint256"
        },
        {
          "internalType": "uint256",
          "name": "",
          "type": "uint256"
        }
      ],
      "name": "validsCandidateForVote",
      "outputs": [
        {
          "internalType": "uint256",
          "name": "",
          "type": "uint256"
        }
      ],
      "stateMutability": "view",
      "type": "function"
    },
    {
      "inputs": [
        {
          "internalType": "uint256",
          "name": "",
          "type": "uint256"
        }
      ],
      "name": "voteInfo",
      "outputs": [
        {
          "internalType": "uint256",
          "name": "id",
          "type": "uint256"
        },
        {
          "internalType": "uint256",
          "name": "voteTypeId",
          "type": "uint256"
        },
        {
          "internalType": "uint256",
          "name": "timeDuration",
          "type": "uint256"
        },
        {
          "internalType": "uint256",
          "name": "initialVotingTimestamp",
          "type": "uint256"
        },
        {
          "internalType": "address",
          "name": "user",
          "type": "address"
        },
        {
          "internalType": "uint256",
          "name": "status",
          "type": "uint256"
        }
      ],
      "stateMutability": "view",
      "type": "function"
    },
    {
      "inputs": [
        {
          "internalType": "uint256",
          "name": "",
          "type": "uint256"
        }
      ],
      "name": "voteTypeInfo",
      "outputs": [
        {
          "internalType": "uint256",
          "name": "id",
          "type": "uint256"
        },
        {
          "internalType": "string",
          "name": "designation",
          "type": "string"
        },
        {
          "internalType": "string",
          "name": "description",
          "type": "string"
        },
        {
          "internalType": "address",
          "name": "user",
          "type": "address"
        }
      ],
      "stateMutability": "view",
      "type": "function"
    }
  ],
  "bytecode": "0x60806040523480156200001157600080fd5b5062000032620000266200003860201b60201c565b6200004060201b60201c565b62000104565b600033905090565b60008060009054906101000a900473ffffffffffffffffffffffffffffffffffffffff169050816000806101000a81548173ffffffffffffffffffffffffffffffffffffffff021916908373ffffffffffffffffffffffffffffffffffffffff1602179055508173ffffffffffffffffffffffffffffffffffffffff168173ffffffffffffffffffffffffffffffffffffffff167f8be0079c531659141344cd1fd0a4f28419497f9722a3daafe3b4186f6b6457e060405160405180910390a35050565b614f7f80620001146000396000f3fe608060405234801561001057600080fd5b50600436106101d95760003560e01c80638494ff3511610104578063ab8fbc1c116100a2578063e134516011610071578063e1345160146105c1578063f2fde38b146105f1578063f6148ce81461060d578063faf571a814610629576101d9565b8063ab8fbc1c14610539578063c620d3e014610569578063cdd7225314610587578063dbf660bb146105a5576101d9565b80638da5cb5b116100de5780638da5cb5b1461049e57806391285ba5146104bc578063957e1f78146104ed578063a88922b314610509576101d9565b80638494ff351461040957806385eab8bc1461043e578063873d73ee1461046e576101d9565b80634bc2a6571161017c57806364dab7611161014b57806364dab7611461036857806366f516ec14610398578063715018a6146103cc57806377d18432146103d6576101d9565b80634bc2a657146102d0578063531be192146102ec57806357796e1c1461031c57806361b659ec14610338576101d9565b806306a49fce116101b857806306a49fce1461025a5780630dc960151461027857806338039479146102965780634814e9b8146102b2576101d9565b80622cd6ef146101de5780630519bb831461020e57806305546aea1461023e575b600080fd5b6101f860048036038101906101f391906135dc565b610645565b60405161020591906144ab565b60405180910390f35b610228600480360381019061022391906135dc565b610681565b60405161023591906144ab565b60405180910390f35b6102586004803603810190610253919061373a565b6106a1565b005b610262610c41565b60405161026f9190614204565b60405180910390f35b610280610e2e565b60405161028d919061426a565b60405180910390f35b6102b060048036038101906102ab9190613665565b610f15565b005b6102ba611367565b6040516102c79190614248565b60405180910390f35b6102ea60048036038101906102e591906134ee565b61154a565b005b610306600480360381019061030191906136fa565b611819565b60405161031391906144ab565b60405180910390f35b610336600480360381019061033191906136fa565b61184a565b005b610352600480360381019061034d91906135dc565b611b27565b60405161035f91906144ab565b60405180910390f35b610382600480360381019061037d91906135dc565b611b3f565b60405161038f91906144ab565b60405180910390f35b6103b260048036038101906103ad91906135dc565b611b5c565b6040516103c3959493929190614579565b60405180910390f35b6103d4611cc2565b005b6103f060048036038101906103eb91906135dc565b611cd6565b6040516104009493929190614526565b60405180910390f35b610423600480360381019061041e91906135dc565b611e36565b60405161043596959493929190614611565b60405180910390f35b610458600480360381019061045391906136fa565b611e92565b60405161046591906144ab565b60405180910390f35b610488600480360381019061048391906135dc565b611ee0565b60405161049591906144ab565b60405180910390f35b6104a6611f1b565b6040516104b391906141c7565b60405180910390f35b6104d660048036038101906104d191906135dc565b611f44565b6040516104e49291906144f6565b60405180910390f35b6105076004803603810190610502919061355b565b612023565b005b610523600480360381019061051e91906135dc565b612460565b6040516105309190614226565b60405180910390f35b610553600480360381019061054e91906136fa565b6126ff565b60405161056091906144ab565b60405180910390f35b61057161272e565b60405161057e91906141e2565b60405180910390f35b61058f6127db565b60405161059c919061428c565b60405180910390f35b6105bf60048036038101906105ba91906135dc565b61289a565b005b6105db60048036038101906105d691906135dc565b612a20565b6040516105e891906142ae565b60405180910390f35b61060b600480360381019061060691906134ee565b612a8b565b005b6106276004803603810190610622919061351b565b612b0f565b005b610643600480360381019061063e9190613609565b612dc9565b005b600061065082611ee0565b6064600b6000858152602001908152602001600020546106709190614926565b61067a91906148f5565b9050919050565b600060026000838152602001908152602001600020600501549050919050565b8583600060086000848152602001908152602001600020805490509050600080600090505b82811015610721576008600086815260200190815260200160002081815481106106f3576106f2614b9a565b5b906000526020600020015484141561070e5760019150610721565b808061071990614a95565b9150506106c6565b5080610759576040517f638f81e000000000000000000000000000000000000000000000000000000000815260040160405180910390fd5b60028081111561076c5761076b614b3c565b5b600260008c81526020019081526020016000206005015414156107bb576040517f949384d300000000000000000000000000000000000000000000000000000000815260040160405180910390fd5b600160028111156107cf576107ce614b3c565b5b600260008c81526020019081526020016000206005015414610826576040517f08c379a000000000000000000000000000000000000000000000000000000000815260040161081d9061442b565b60405180910390fd5b8560046000888152602001908152602001600020600001541461087e576040517f08c379a00000000000000000000000000000000000000000000000000000000081526004016108759061434b565b60405180910390fd5b600185148061088d5750600285145b6108cc576040517f08c379a00000000000000000000000000000000000000000000000000000000081526004016108c39061448b565b60405180910390fd5b6108d58a612feb565b600160028111156108e9576108e8614b3c565b5b600960008c8152602001908152602001600020600088815260200190815260200160002054148061094f575060028081111561092857610927614b3c565b5b600960008c8152602001908152602001600020600088815260200190815260200160002054145b15610986576040517f57e2cd0100000000000000000000000000000000000000000000000000000000815260040160405180910390fd5b610990601161307f565b600061099c6011613095565b9050600160028111156109b2576109b1614b3c565b5b861415610a25576001600c60008d815260200190815260200160002060008a815260200190815260200160002060008282546109ee919061489f565b925050819055506001600a60008d81526020019081526020016000206000828254610a19919061489f565b92505081905550610a6c565b600280811115610a3857610a37614b3c565b5b861415610a6b576001600b60008d81526020019081526020016000206000828254610a63919061489f565b925050819055505b5b6040518060e001604052808281526020018c81526020018b81526020018a81526020018981526020018881526020018781525060066000838152602001908152602001600020600082015181600001556020820151816001015560408201518160020155606082015181600301556080820151816004015560a0820151816005015560c0820151816006015590505085600960008d815260200190815260200160002060008981526020019081526020016000208190555060166006600083815260200190815260200160002090806001815401808255809150506001900390600052602060002090600702016000909190919091506000820154816000015560018201548160010155600282015481600201556003820154816003015560048201548160040155600582015481600501556006820154816006015550506004600088815260200190815260200160002060010160009054906101000a900473ffffffffffffffffffffffffffffffffffffffff1673ffffffffffffffffffffffffffffffffffffffff1688827f0ba54fe179d0dd661cc86152691459b4ba3df051836b237c61c6224ad38435738e8d8b604051610c2c939291906145da565b60405180910390a45050505050505050505050565b60606015805480602002602001604051908101604052809291908181526020016000905b82821015610e2557838290600052602060002090600502016040518060a00160405290816000820154815260200160018201548152602001600282018054610cac90614a32565b80601f0160208091040260200160405190810160405280929190818152602001828054610cd890614a32565b8015610d255780601f10610cfa57610100808354040283529160200191610d25565b820191906000526020600020905b815481529060010190602001808311610d0857829003601f168201915b50505050508152602001600382018054610d3e90614a32565b80601f0160208091040260200160405190810160405280929190818152602001828054610d6a90614a32565b8015610db75780601f10610d8c57610100808354040283529160200191610db7565b820191906000526020600020905b815481529060010190602001808311610d9a57829003601f168201915b505050505081526020016004820160009054906101000a900473ffffffffffffffffffffffffffffffffffffffff1673ffffffffffffffffffffffffffffffffffffffff1673ffffffffffffffffffffffffffffffffffffffff168152505081526020019060010190610c65565b50505050905090565b60606013805480602002602001604051908101604052809291908181526020016000905b82821015610f0c57838290600052602060002090600602016040518060c0016040529081600082015481526020016001820154815260200160028201548152602001600382015481526020016004820160009054906101000a900473ffffffffffffffffffffffffffffffffffffffff1673ffffffffffffffffffffffffffffffffffffffff1673ffffffffffffffffffffffffffffffffffffffff16815260200160058201548152505081526020019060010190610e52565b50505050905090565b81818080601f016020809104026020016040519081016040528093929190818152602001838380828437600081840152601f19601f820116905080830192505050505050506000601580549050905060005b8181101561102c5782604051602001610f809190614199565b6040516020818303038152906040528051906020012060158281548110610faa57610fa9614b9a565b5b9060005260206000209060050201600301604051602001610fcb91906141b0565b604051602081830303815290604052805190602001201415611019576040517f9bcc950400000000000000000000000000000000000000000000000000000000815260040160405180910390fd5b808061102490614a95565b915050610f67565b5060008686905014158015611045575060008484905014155b611084576040517f08c379a000000000000000000000000000000000000000000000000000000000815260040161107b9061444b565b60405180910390fd5b61108e601061307f565b600061109a6010613095565b90506040518060a0016040528082815260200189815260200188888080601f016020809104026020016040519081016040528093929190818152602001838380828437600081840152601f19601f82011690508083019250505050505050815260200186868080601f016020809104026020016040519081016040528093929190818152602001838380828437600081840152601f19601f8201169050808301925050505050505081526020013373ffffffffffffffffffffffffffffffffffffffff1681525060056000838152602001908152602001600020600082015181600001556020820151816001015560408201518160020190805190602001906111a492919061320e565b5060608201518160030190805190602001906111c192919061320e565b5060808201518160040160006101000a81548173ffffffffffffffffffffffffffffffffffffffff021916908373ffffffffffffffffffffffffffffffffffffffff16021790555090505060156005600083815260200190815260200160002090806001815401808255809150506001900390600052602060002090600502016000909190919091506000820154816000015560018201548160010155600282018160020190805461127290614a32565b61127d929190613294565b50600382018160030190805461129290614a32565b61129d929190613294565b506004820160009054906101000a900473ffffffffffffffffffffffffffffffffffffffff168160040160006101000a81548173ffffffffffffffffffffffffffffffffffffffff021916908373ffffffffffffffffffffffffffffffffffffffff16021790555050503373ffffffffffffffffffffffffffffffffffffffff1688827f65b1ee16712d5459ea96a708ccbceb841a9d3d6009d75eb4259cf44049acae1f8a8a8a8a60405161135594939291906142d0565b60405180910390a45050505050505050565b60606012805480602002602001604051908101604052809291908181526020016000905b828210156115415783829060005260206000209060040201604051806080016040529081600082015481526020016001820180546113c890614a32565b80601f01602080910402602001604051908101604052809291908181526020018280546113f490614a32565b80156114415780601f1061141657610100808354040283529160200191611441565b820191906000526020600020905b81548152906001019060200180831161142457829003601f168201915b5050505050815260200160028201805461145a90614a32565b80601f016020809104026020016040519081016040528092919081815260200182805461148690614a32565b80156114d35780601f106114a8576101008083540402835291602001916114d3565b820191906000526020600020905b8154815290600101906020018083116114b657829003601f168201915b505050505081526020016003820160009054906101000a900473ffffffffffffffffffffffffffffffffffffffff1673ffffffffffffffffffffffffffffffffffffffff1673ffffffffffffffffffffffffffffffffffffffff16815250508152602001906001019061138b565b50505050905090565b80600060148054905090506000805b828110156115f6578373ffffffffffffffffffffffffffffffffffffffff166014828154811061158c5761158b614b9a565b5b906000526020600020906002020160010160009054906101000a900473ffffffffffffffffffffffffffffffffffffffff1673ffffffffffffffffffffffffffffffffffffffff1614156115e357600191506115f6565b80806115ee90614a95565b915050611559565b50801561162f576040517ff630824000000000000000000000000000000000000000000000000000000000815260040160405180910390fd5b611639600f61307f565b6000611645600f613095565b905060405180604001604052808281526020018673ffffffffffffffffffffffffffffffffffffffff16815250600460008381526020019081526020016000206000820151816000015560208201518160010160006101000a81548173ffffffffffffffffffffffffffffffffffffffff021916908373ffffffffffffffffffffffffffffffffffffffff1602179055509050506014600460008381526020019081526020016000209080600181540180825580915050600190039060005260206000209060020201600090919091909150600082015481600001556001820160009054906101000a900473ffffffffffffffffffffffffffffffffffffffff168160010160006101000a81548173ffffffffffffffffffffffffffffffffffffffff021916908373ffffffffffffffffffffffffffffffffffffffff160217905550505080600760008773ffffffffffffffffffffffffffffffffffffffff1673ffffffffffffffffffffffffffffffffffffffff168152602001908152602001600020819055508473ffffffffffffffffffffffffffffffffffffffff16817fcea92dd21eac6a85990666fd027f09c3aaf3b50d47852d08aad7723627d1003360405160405180910390a35050505050565b6008602052816000526040600020818154811061183557600080fd5b90600052602060002001600091509150505481565b816003600084815260200190815260200160002060000154146118a2576040517f08c379a00000000000000000000000000000000000000000000000000000000081526004016118999061432b565b60405180910390fd5b600081116118e5576040517f08c379a00000000000000000000000000000000000000000000000000000000081526004016118dc906143cb565b60405180910390fd5b6118ef600e61307f565b60006118fb600e613095565b90506040518060c00160405280828152602001848152602001838152602001600081526020013373ffffffffffffffffffffffffffffffffffffffff1681526020016000600281111561195157611950614b3c565b5b815250600260008381526020019081526020016000206000820151816000015560208201518160010155604082015181600201556060820151816003015560808201518160040160006101000a81548173ffffffffffffffffffffffffffffffffffffffff021916908373ffffffffffffffffffffffffffffffffffffffff16021790555060a082015181600501559050506013600260008381526020019081526020016000209080600181540180825580915050600190039060005260206000209060060201600090919091909150600082015481600001556001820154816001015560028201548160020155600382015481600301556004820160009054906101000a900473ffffffffffffffffffffffffffffffffffffffff168160040160006101000a81548173ffffffffffffffffffffffffffffffffffffffff021916908373ffffffffffffffffffffffffffffffffffffffff1602179055506005820154816005015550503373ffffffffffffffffffffffffffffffffffffffff16817fc1c3f2485d639ef2220518b3c443a54dcbadb9a574dcbcb6074946cb40fd72db858560006002811115611b0b57611b0a614b3c565b5b604051611b1a939291906145da565b60405180910390a3505050565b60016020528060005260406000206000915090505481565b6000600b6000838152602001908152602001600020549050919050565b6005602052806000526040600020600091509050806000015490806001015490806002018054611b8b90614a32565b80601f0160208091040260200160405190810160405280929190818152602001828054611bb790614a32565b8015611c045780601f10611bd957610100808354040283529160200191611c04565b820191906000526020600020905b815481529060010190602001808311611be757829003601f168201915b505050505090806003018054611c1990614a32565b80601f0160208091040260200160405190810160405280929190818152602001828054611c4590614a32565b8015611c925780601f10611c6757610100808354040283529160200191611c92565b820191906000526020600020905b815481529060010190602001808311611c7557829003601f168201915b5050505050908060040160009054906101000a900473ffffffffffffffffffffffffffffffffffffffff16905085565b611cca6130a3565b611cd46000613121565b565b6003602052806000526040600020600091509050806000015490806001018054611cff90614a32565b80601f0160208091040260200160405190810160405280929190818152602001828054611d2b90614a32565b8015611d785780601f10611d4d57610100808354040283529160200191611d78565b820191906000526020600020905b815481529060010190602001808311611d5b57829003601f168201915b505050505090806002018054611d8d90614a32565b80601f0160208091040260200160405190810160405280929190818152602001828054611db990614a32565b8015611e065780601f10611ddb57610100808354040283529160200191611e06565b820191906000526020600020905b815481529060010190602001808311611de957829003601f168201915b5050505050908060030160009054906101000a900473ffffffffffffffffffffffffffffffffffffffff16905084565b60026020528060005260406000206000915090508060000154908060010154908060020154908060030154908060040160009054906101000a900473ffffffffffffffffffffffffffffffffffffffff16908060050154905086565b6000611e9d83611ee0565b6064600c6000868152602001908152602001600020600085815260200190815260200160002054611ece9190614926565b611ed891906148f5565b905092915050565b6000600b600083815260200190815260200160002054600a600084815260200190815260200160002054611f14919061489f565b9050919050565b60008060009054906101000a900473ffffffffffffffffffffffffffffffffffffffff16905090565b600060606002600084815260200190815260200160002060020154611f7e60026000868152602001908152602001600020600301546131e5565b11611fe157611fa260026000858152602001908152602001600020600301546131e5565b6040518060400160405280601881526020017f566f74696e67207374696c6c20676f696e67206f6e2e2e2e00000000000000008152509150915061201e565b60006040518060400160405280601481526020017f566f74696e672074696d6520657870697265642e000000000000000000000000815250915091505b915091565b83838080601f016020809104026020016040519081016040528093929190818152602001838380828437600081840152601f19601f820116905080830192505050505050506000601280549050905060005b8181101561213a578260405160200161208e9190614199565b60405160208183030381529060405280519060200120601282815481106120b8576120b7614b9a565b5b90600052602060002090600402016001016040516020016120d991906141b0565b604051602081830303815290604052805190602001201415612127576040517ffbfa180100000000000000000000000000000000000000000000000000000000815260040160405180910390fd5b808061213290614a95565b915050612075565b5060008686905014158015612153575060008484905014155b612192576040517f08c379a00000000000000000000000000000000000000000000000000000000081526004016121899061430b565b60405180910390fd5b61219c600d61307f565b60006121a8600d613095565b9050604051806080016040528082815260200188888080601f016020809104026020016040519081016040528093929190818152602001838380828437600081840152601f19601f82011690508083019250505050505050815260200186868080601f016020809104026020016040519081016040528093929190818152602001838380828437600081840152601f19601f8201169050808301925050505050505081526020013373ffffffffffffffffffffffffffffffffffffffff16815250600360008381526020019081526020016000206000820151816000015560208201518160010190805190602001906122a292919061320e565b5060408201518160020190805190602001906122bf92919061320e565b5060608201518160030160006101000a81548173ffffffffffffffffffffffffffffffffffffffff021916908373ffffffffffffffffffffffffffffffffffffffff160217905550905050601260036000838152602001908152602001600020908060018154018082558091505060019003906000526020600020906004020160009091909190915060008201548160000155600182018160010190805461236690614a32565b612371929190613294565b50600282018160020190805461238690614a32565b612391929190613294565b506003820160009054906101000a900473ffffffffffffffffffffffffffffffffffffffff168160030160006101000a81548173ffffffffffffffffffffffffffffffffffffffff021916908373ffffffffffffffffffffffffffffffffffffffff16021790555050503373ffffffffffffffffffffffffffffffffffffffff168787604051612422929190614180565b6040518091039020827fd8ee76a5e348e43e21cb4606e67f62e1cee452209c4ebcabe3004b674ccd232a60405160405180910390a450505050505050565b60606000600860008481526020019081526020016000208054806020026020016040519081016040528092919081815260200182805480156124c157602002820191906000526020600020905b8154815260200190600101908083116124ad575b5050505050905060006008600085815260200190815260200160002080549050905060008167ffffffffffffffff8111156124ff576124fe614bc9565b5b60405190808252806020026020018201604052801561253857816020015b612525613321565b81526020019060019003908161251d5790505b50905060005b828110156126f357600084828151811061255b5761255a614b9a565b5b60200260200101519050600061257188836126ff565b9050600061257e89611b3f565b9050600061258c8a85611e92565b905060006125998b610645565b90506040518061010001604052808c8152602001868152602001600560008c8a815181106125ca576125c9614b9a565b5b60200260200101518152602001908152602001600020600101548152602001600560008c8a81518110612600576125ff614b9a565b5b60200260200101518152602001908152602001600020600201805461262490614a32565b80601f016020809104026020016040519081016040528092919081815260200182805461265090614a32565b801561269d5780601f106126725761010080835404028352916020019161269d565b820191906000526020600020905b81548152906001019060200180831161268057829003601f168201915b50505050508152602001858152602001848152602001838152602001828152508787815181106126d0576126cf614b9a565b5b6020026020010181905250505050505080806126eb90614a95565b91505061253e565b50809350505050919050565b6000600c6000848152602001908152602001600020600083815260200190815260200160002054905092915050565b60606127386130a3565b6016805480602002602001604051908101604052809291908181526020016000905b828210156127d257838290600052602060002090600702016040518060e00160405290816000820154815260200160018201548152602001600282015481526020016003820154815260200160048201548152602001600582015481526020016006820154815250508152602001906001019061275a565b50505050905090565b60606014805480602002602001604051908101604052809291908181526020016000905b828210156128915783829060005260206000209060020201604051806040016040529081600082015481526020016001820160009054906101000a900473ffffffffffffffffffffffffffffffffffffffff1673ffffffffffffffffffffffffffffffffffffffff1673ffffffffffffffffffffffffffffffffffffffff1681525050815260200190600101906127ff565b50505050905090565b806002808111156128ae576128ad614b3c565b5b600260008381526020019081526020016000206005015414156128fd576040517f949384d300000000000000000000000000000000000000000000000000000000815260040160405180910390fd5b6001600281111561291157612910614b3c565b5b60026000848152602001908152602001600020600501541415612969576040517f08c379a00000000000000000000000000000000000000000000000000000000081526004016129609061438b565b60405180910390fd5b6001600281111561297d5761297c614b3c565b5b601360018461298c9190614980565b8154811061299d5761299c614b9a565b5b906000526020600020906006020160050181905560026000848152602001908152602001600020600501819055504260136001846129db9190614980565b815481106129ec576129eb614b9a565b5b9060005260206000209060060201600301819055504260026000848152602001908152602001600020600301819055505050565b606060086000838152602001908152602001600020805480602002602001604051908101604052809291908181526020018280548015612a7f57602002820191906000526020600020905b815481526020019060010190808311612a6b575b50505050509050919050565b612a936130a3565b600073ffffffffffffffffffffffffffffffffffffffff168173ffffffffffffffffffffffffffffffffffffffff161415612b03576040517f08c379a0000000000000000000000000000000000000000000000000000000008152600401612afa906143ab565b60405180910390fd5b612b0c81613121565b50565b80600060148054905090506000805b82811015612bbb578373ffffffffffffffffffffffffffffffffffffffff1660148281548110612b5157612b50614b9a565b5b906000526020600020906002020160010160009054906101000a900473ffffffffffffffffffffffffffffffffffffffff1673ffffffffffffffffffffffffffffffffffffffff161415612ba85760019150612bbb565b8080612bb390614a95565b915050612b1e565b508015612bf4576040517ff630824000000000000000000000000000000000000000000000000000000000815260040160405180910390fd5b6000600760008773ffffffffffffffffffffffffffffffffffffffff1673ffffffffffffffffffffffffffffffffffffffff16815260200190815260200160002054905060006001600083815260200190815260200160002054905060008110158015612c62575060028111155b612ca1576040517f08c379a0000000000000000000000000000000000000000000000000000000008152600401612c98906143eb565b60405180910390fd5b856014600184612cb19190614980565b81548110612cc257612cc1614b9a565b5b906000526020600020906002020160010160006101000a81548173ffffffffffffffffffffffffffffffffffffffff021916908373ffffffffffffffffffffffffffffffffffffffff16021790555081600760008873ffffffffffffffffffffffffffffffffffffffff1673ffffffffffffffffffffffffffffffffffffffff16815260200190815260200160002081905550600181612d62919061489f565b90508060016000848152602001908152602001600020819055508573ffffffffffffffffffffffffffffffffffffffff16827fd298ea02d554568c7f9acfd0221d68cb6c2a74a0b36431bd19b3be9f0151124c60405160405180910390a350505050505050565b81600280811115612ddd57612ddc614b3c565b5b60026000838152602001908152602001600020600501541415612e2c576040517f949384d300000000000000000000000000000000000000000000000000000000815260040160405180910390fd5b60016002811115612e4057612e3f614b3c565b5b60026000858152602001908152602001600020600501541415612e98576040517f08c379a0000000000000000000000000000000000000000000000000000000008152600401612e8f9061436b565b60405180910390fd5b6000825111612edc576040517f08c379a0000000000000000000000000000000000000000000000000000000008152600401612ed39061446b565b60405180910390fd5b60008251905060005b81811015612f835760056000858381518110612f0457612f03614b9a565b5b6020026020010151815260200190815260200160002060000154848281518110612f3157612f30614b9a565b5b602002602001015114612f70576040517f6fc1420700000000000000000000000000000000000000000000000000000000815260040160405180910390fd5b8080612f7b90614a95565b915050612ee5565b5082600860008681526020019081526020016000209080519060200190612fab929190613366565b507f6fab6e2a58a25aa36b5b13e656c745ab644a24062de00428a63ffb6d9b8dab2b8484604051612fdd9291906144c6565b60405180910390a150505050565b600260008281526020019081526020016000206002015461302160026000848152602001908152602001600020600301546131e5565b1061307c5760028081111561303957613038614b3c565b5b6013828154811061304d5761304c614b9a565b5b906000526020600020906006020160050181905560026000838152602001908152602001600020600501819055505b50565b6001816000016000828254019250508190555050565b600081600001549050919050565b6130ab613206565b73ffffffffffffffffffffffffffffffffffffffff166130c9611f1b565b73ffffffffffffffffffffffffffffffffffffffff161461311f576040517f08c379a00000000000000000000000000000000000000000000000000000000081526004016131169061440b565b60405180910390fd5b565b60008060009054906101000a900473ffffffffffffffffffffffffffffffffffffffff169050816000806101000a81548173ffffffffffffffffffffffffffffffffffffffff021916908373ffffffffffffffffffffffffffffffffffffffff1602179055508173ffffffffffffffffffffffffffffffffffffffff168173ffffffffffffffffffffffffffffffffffffffff167f8be0079c531659141344cd1fd0a4f28419497f9722a3daafe3b4186f6b6457e060405160405180910390a35050565b6000603c82426131f59190614980565b6131ff91906148f5565b9050919050565b600033905090565b82805461321a90614a32565b90600052602060002090601f01602090048101928261323c5760008555613283565b82601f1061325557805160ff1916838001178555613283565b82800160010185558215613283579182015b82811115613282578251825591602001919060010190613267565b5b50905061329091906133b3565b5090565b8280546132a090614a32565b90600052602060002090601f0160209004810192826132c25760008555613310565b82601f106132d35780548555613310565b8280016001018555821561331057600052602060002091601f016020900482015b8281111561330f5782548255916001019190600101906132f4565b5b50905061331d91906133b3565b5090565b60405180610100016040528060008152602001600081526020016000815260200160608152602001600081526020016000815260200160008152602001600081525090565b8280548282559060005260206000209081019282156133a2579160200282015b828111156133a1578251825591602001919060010190613386565b5b5090506133af91906133b3565b5090565b5b808211156133cc5760008160009055506001016133b4565b5090565b60006133e36133de84614697565b614672565b9050808382526020820190508285602086028201111561340657613405614c02565b5b60005b85811015613436578161341c88826134d9565b845260208401935060208301925050600181019050613409565b5050509392505050565b60008135905061344f81614f1b565b92915050565b600082601f83011261346a57613469614bfd565b5b813561347a8482602086016133d0565b91505092915050565b60008083601f84011261349957613498614bfd565b5b8235905067ffffffffffffffff8111156134b6576134b5614bf8565b5b6020830191508360018202830111156134d2576134d1614c02565b5b9250929050565b6000813590506134e881614f32565b92915050565b60006020828403121561350457613503614c0c565b5b600061351284828501613440565b91505092915050565b6000806040838503121561353257613531614c0c565b5b600061354085828601613440565b925050602061355185828601613440565b9150509250929050565b6000806000806040858703121561357557613574614c0c565b5b600085013567ffffffffffffffff81111561359357613592614c07565b5b61359f87828801613483565b9450945050602085013567ffffffffffffffff8111156135c2576135c1614c07565b5b6135ce87828801613483565b925092505092959194509250565b6000602082840312156135f2576135f1614c0c565b5b6000613600848285016134d9565b91505092915050565b600080604083850312156136205761361f614c0c565b5b600061362e858286016134d9565b925050602083013567ffffffffffffffff81111561364f5761364e614c07565b5b61365b85828601613455565b9150509250929050565b60008060008060006060868803121561368157613680614c0c565b5b600061368f888289016134d9565b955050602086013567ffffffffffffffff8111156136b0576136af614c07565b5b6136bc88828901613483565b9450945050604086013567ffffffffffffffff8111156136df576136de614c07565b5b6136eb88828901613483565b92509250509295509295909350565b6000806040838503121561371157613710614c0c565b5b600061371f858286016134d9565b9250506020613730858286016134d9565b9150509250929050565b60008060008060008060c0878903121561375757613756614c0c565b5b600061376589828a016134d9565b965050602061377689828a016134d9565b955050604061378789828a016134d9565b945050606061379889828a016134d9565b93505060806137a989828a016134d9565b92505060a06137ba89828a016134d9565b9150509295509295509295565b60006137d38383613e93565b60e08301905092915050565b60006137eb8383613f21565b905092915050565b60006137ff8383613f9e565b905092915050565b6000613813838361404e565b905092915050565b600061382783836140b8565b60c08301905092915050565b600061383f8383614133565b60408301905092915050565b60006138578383614162565b60208301905092915050565b61386c816149b4565b82525050565b61387b816149b4565b82525050565b600061388c82614748565b61389681856147fb565b93506138a1836146c3565b8060005b838110156138d25781516138b988826137c7565b97506138c4836147a0565b9250506001810190506138a5565b5085935050505092915050565b60006138ea82614753565b6138f4818561480c565b935083602082028501613906856146d3565b8060005b85811015613942578484038952815161392385826137df565b945061392e836147ad565b925060208a0199505060018101905061390a565b50829750879550505050505092915050565b600061395f8261475e565b613969818561481d565b93508360208202850161397b856146e3565b8060005b858110156139b7578484038952815161399885826137f3565b94506139a3836147ba565b925060208a0199505060018101905061397f565b50829750879550505050505092915050565b60006139d482614769565b6139de818561482e565b9350836020820285016139f0856146f3565b8060005b85811015613a2c5784840389528151613a0d8582613807565b9450613a18836147c7565b925060208a019950506001810190506139f4565b50829750879550505050505092915050565b6000613a4982614774565b613a53818561483f565b9350613a5e83614703565b8060005b83811015613a8f578151613a76888261381b565b9750613a81836147d4565b925050600181019050613a62565b5085935050505092915050565b6000613aa78261477f565b613ab18185614850565b9350613abc83614713565b8060005b83811015613aed578151613ad48882613833565b9750613adf836147e1565b925050600181019050613ac0565b5085935050505092915050565b6000613b058261478a565b613b0f8185614861565b9350613b1a83614723565b8060005b83811015613b4b578151613b32888261384b565b9750613b3d836147ee565b925050600181019050613b1e565b5085935050505092915050565b6000613b648385614883565b9350613b718385846149f0565b613b7a83614c11565b840190509392505050565b6000613b918385614894565b9350613b9e8385846149f0565b82840190509392505050565b6000613bb582614795565b613bbf8185614872565b9350613bcf8185602086016149ff565b613bd881614c11565b840191505092915050565b6000613bee82614795565b613bf88185614883565b9350613c088185602086016149ff565b613c1181614c11565b840191505092915050565b6000613c2782614795565b613c318185614894565b9350613c418185602086016149ff565b80840191505092915050565b60008154613c5a81614a32565b613c648186614894565b94506001821660008114613c7f5760018114613c9057613cc3565b60ff19831686528186019350613cc3565b613c9985614733565b60005b83811015613cbb57815481890152600182019150602081019050613c9c565b838801955050505b50505092915050565b6000613cd9603183614883565b9150613ce482614c22565b604082019050919050565b6000613cfc601583614883565b9150613d0782614c71565b602082019050919050565b6000613d1f601783614883565b9150613d2a82614c9a565b602082019050919050565b6000613d42602583614883565b9150613d4d82614cc3565b604082019050919050565b6000613d65602483614883565b9150613d7082614d12565b604082019050919050565b6000613d88602683614883565b9150613d9382614d61565b604082019050919050565b6000613dab601783614883565b9150613db682614db0565b602082019050919050565b6000613dce601b83614883565b9150613dd982614dd9565b602082019050919050565b6000613df1602083614883565b9150613dfc82614e02565b602082019050919050565b6000613e14601e83614883565b9150613e1f82614e2b565b602082019050919050565b6000613e37602183614883565b9150613e4282614e54565b604082019050919050565b6000613e5a601383614883565b9150613e6582614ea3565b602082019050919050565b6000613e7d603183614883565b9150613e8882614ecc565b604082019050919050565b60e082016000820151613ea96000850182614162565b506020820151613ebc6020850182614162565b506040820151613ecf6040850182614162565b506060820151613ee26060850182614162565b506080820151613ef56080850182614162565b5060a0820151613f0860a0850182614162565b5060c0820151613f1b60c0850182614162565b50505050565b600060a083016000830151613f396000860182614162565b506020830151613f4c6020860182614162565b5060408301518482036040860152613f648282613baa565b91505060608301518482036060860152613f7e8282613baa565b9150506080830151613f936080860182613863565b508091505092915050565b600061010083016000830151613fb76000860182614162565b506020830151613fca6020860182614162565b506040830151613fdd6040860182614162565b5060608301518482036060860152613ff58282613baa565b915050608083015161400a6080860182614162565b5060a083015161401d60a0860182614162565b5060c083015161403060c0860182614162565b5060e083015161404360e0860182614162565b508091505092915050565b60006080830160008301516140666000860182614162565b506020830151848203602086015261407e8282613baa565b915050604083015184820360408601526140988282613baa565b91505060608301516140ad6060860182613863565b508091505092915050565b60c0820160008201516140ce6000850182614162565b5060208201516140e16020850182614162565b5060408201516140f46040850182614162565b5060608201516141076060850182614162565b50608082015161411a6080850182613863565b5060a082015161412d60a0850182614162565b50505050565b6040820160008201516141496000850182614162565b50602082015161415c6020850182613863565b50505050565b61416b816149e6565b82525050565b61417a816149e6565b82525050565b600061418d828486613b85565b91508190509392505050565b60006141a58284613c1c565b915081905092915050565b60006141bc8284613c4d565b915081905092915050565b60006020820190506141dc6000830184613872565b92915050565b600060208201905081810360008301526141fc8184613881565b905092915050565b6000602082019050818103600083015261421e81846138df565b905092915050565b600060208201905081810360008301526142408184613954565b905092915050565b6000602082019050818103600083015261426281846139c9565b905092915050565b600060208201905081810360008301526142848184613a3e565b905092915050565b600060208201905081810360008301526142a68184613a9c565b905092915050565b600060208201905081810360008301526142c88184613afa565b905092915050565b600060408201905081810360008301526142eb818688613b58565b90508181036020830152614300818486613b58565b905095945050505050565b6000602082019050818103600083015261432481613ccc565b9050919050565b6000602082019050818103600083015261434481613cef565b9050919050565b6000602082019050818103600083015261436481613d12565b9050919050565b6000602082019050818103600083015261438481613d35565b9050919050565b600060208201905081810360008301526143a481613d58565b9050919050565b600060208201905081810360008301526143c481613d7b565b9050919050565b600060208201905081810360008301526143e481613d9e565b9050919050565b6000602082019050818103600083015261440481613dc1565b9050919050565b6000602082019050818103600083015261442481613de4565b9050919050565b6000602082019050818103600083015261444481613e07565b9050919050565b6000602082019050818103600083015261446481613e2a565b9050919050565b6000602082019050818103600083015261448481613e4d565b9050919050565b600060208201905081810360008301526144a481613e70565b9050919050565b60006020820190506144c06000830184614171565b92915050565b60006040820190506144db6000830185614171565b81810360208301526144ed8184613afa565b90509392505050565b600060408201905061450b6000830185614171565b818103602083015261451d8184613be3565b90509392505050565b600060808201905061453b6000830187614171565b818103602083015261454d8186613be3565b905081810360408301526145618185613be3565b90506145706060830184613872565b95945050505050565b600060a08201905061458e6000830188614171565b61459b6020830187614171565b81810360408301526145ad8186613be3565b905081810360608301526145c18185613be3565b90506145d06080830184613872565b9695505050505050565b60006060820190506145ef6000830186614171565b6145fc6020830185614171565b6146096040830184614171565b949350505050565b600060c0820190506146266000830189614171565b6146336020830188614171565b6146406040830187614171565b61464d6060830186614171565b61465a6080830185613872565b61466760a0830184614171565b979650505050505050565b600061467c61468d565b90506146888282614a64565b919050565b6000604051905090565b600067ffffffffffffffff8211156146b2576146b1614bc9565b5b602082029050602081019050919050565b6000819050602082019050919050565b6000819050602082019050919050565b6000819050602082019050919050565b6000819050602082019050919050565b6000819050602082019050919050565b6000819050602082019050919050565b6000819050602082019050919050565b60008190508160005260206000209050919050565b600081519050919050565b600081519050919050565b600081519050919050565b600081519050919050565b600081519050919050565b600081519050919050565b600081519050919050565b600081519050919050565b6000602082019050919050565b6000602082019050919050565b6000602082019050919050565b6000602082019050919050565b6000602082019050919050565b6000602082019050919050565b6000602082019050919050565b600082825260208201905092915050565b600082825260208201905092915050565b600082825260208201905092915050565b600082825260208201905092915050565b600082825260208201905092915050565b600082825260208201905092915050565b600082825260208201905092915050565b600082825260208201905092915050565b600082825260208201905092915050565b600081905092915050565b60006148aa826149e6565b91506148b5836149e6565b9250827fffffffffffffffffffffffffffffffffffffffffffffffffffffffffffffffff038211156148ea576148e9614ade565b5b828201905092915050565b6000614900826149e6565b915061490b836149e6565b92508261491b5761491a614b0d565b5b828204905092915050565b6000614931826149e6565b915061493c836149e6565b9250817fffffffffffffffffffffffffffffffffffffffffffffffffffffffffffffffff048311821515161561497557614974614ade565b5b828202905092915050565b600061498b826149e6565b9150614996836149e6565b9250828210156149a9576149a8614ade565b5b828203905092915050565b60006149bf826149c6565b9050919050565b600073ffffffffffffffffffffffffffffffffffffffff82169050919050565b6000819050919050565b82818337600083830152505050565b60005b83811015614a1d578082015181840152602081019050614a02565b83811115614a2c576000848401525b50505050565b60006002820490506001821680614a4a57607f821691505b60208210811415614a5e57614a5d614b6b565b5b50919050565b614a6d82614c11565b810181811067ffffffffffffffff82111715614a8c57614a8b614bc9565b5b80604052505050565b6000614aa0826149e6565b91507fffffffffffffffffffffffffffffffffffffffffffffffffffffffffffffffff821415614ad357614ad2614ade565b5b600182019050919050565b7f4e487b7100000000000000000000000000000000000000000000000000000000600052601160045260246000fd5b7f4e487b7100000000000000000000000000000000000000000000000000000000600052601260045260246000fd5b7f4e487b7100000000000000000000000000000000000000000000000000000000600052602160045260246000fd5b7f4e487b7100000000000000000000000000000000000000000000000000000000600052602260045260246000fd5b7f4e487b7100000000000000000000000000000000000000000000000000000000600052603260045260246000fd5b7f4e487b7100000000000000000000000000000000000000000000000000000000600052604160045260246000fd5b600080fd5b600080fd5b600080fd5b600080fd5b600080fd5b6000601f19601f8301169050919050565b7f506c656173652070726f766964652076616c69642064657369676e6174696f6e60008201527f20616e64206465736372697074696f6e2e000000000000000000000000000000602082015250565b7f496e76616c696420766f746520747970652049442e0000000000000000000000600082015250565b7f54686520766f746572206973206e6f7420666f756e642e000000000000000000600082015250565b7f4e6f7420617661696c61626c65206f6e636520766f746520697320616374697660008201527f617465642e000000000000000000000000000000000000000000000000000000602082015250565b7f566f746520616c726561647920616374697661746564206f72206e6f7420766160008201527f6c69642e00000000000000000000000000000000000000000000000000000000602082015250565b7f4f776e61626c653a206e6577206f776e657220697320746865207a65726f206160008201527f6464726573730000000000000000000000000000000000000000000000000000602082015250565b7f496e76616c696420766f74696e6720706572696f64652e000000000000000000600082015250565b7f55706461746520726573747269637420746f20332074696d65732e0000000000600082015250565b7f4f776e61626c653a2063616c6c6572206973206e6f7420746865206f776e6572600082015250565b7f54686520766f7465206973206e6f7420796574206163746976617465642e0000600082015250565b7f496e76616c69642066756c6c206e616d65206f7220706963747572652055524960008201527f2e00000000000000000000000000000000000000000000000000000000000000602082015250565b7f496e76616c69642063616e646964617465732e00000000000000000000000000600082015250565b7f496e76616c696420766f746572207374617475733a205573652031203d20766f60008201527f746564206f722032203d20626c616e6b2e000000000000000000000000000000602082015250565b614f24816149b4565b8114614f2f57600080fd5b50565b614f3b816149e6565b8114614f4657600080fd5b5056fea26469706673582212200d52a6e9aa2deecaf3d9ba22870fd6bee166f2fade9d519c451305f0a95a6ea464736f6c63430008060033",
  "linkReferences": {},
  "deployedLinkReferences": {}
}